:020000040800F2
:1000000098310020798600087585000877850008FA
:10001000798500087B8500087D850008A586000895
:10002000000000000000000000000000A9620008BD
:100030007F8500080000000065620008E9360008BE
:10004000A9860008AD860008B1860008B5860008BC
:10005000B9860008BD860008C1860008C58600086C
:10006000C9860008CD860008D1860008D58600081C
:10007000D9860008DD860008E1860008E5860008CC
:10008000E9860008ED860008F1860008F58600087C
:10009000F9860008FD86000801870008058700082A
:1000A000098700080D8700081187000815870008D8
:1000B000198700081D870008218700082587000888
:1000C000298700082D870008318700083587000838
:1000D000398700083D8700084187000845870008E8
:1000E000498700084D870008518700085587000898
:1000F000598700085D870008618700086587000848
:10010000698700086D8700088185000871870008ED
:1001100075870008798700087D87000881870008B7
:1001200085870008898700088D8700089187000867
:100130008785000895870008998700089D87000833
:10014000A1870008A5870008A9870008AD870008D7
:10015000B1870008B5870008B9870008BD87000887
:10016000C1870008C5870008C9870008CD87000837
:10017000D1870008D5870008D98700088D85000839
:10018000DD870008E1870008E5870008E9870008A7
:10019000ED870008F1870008F5870008F987000857
:1001A000FD87000801880008058800080988000804
:1001B0000D880008118800081588000819880008B3
:1001C0001D88000821880008258800082988000863
:1001D0002D88000831880008358800083988000813
:1001E0003D880008418800084588000849880008C3
:1001F0004D88000851880008558800085988000873
:100200005D88000861880008658800086988000822
:100210006D880008718800087588000879880008D2
:100220007D88000881880008858800088988000882
:100230008D88000891880008958800089988000832
:100240009D880008A1880008A58800082DE9F84FBE
:100250008046D8E900010024A146DFF80458C20115
:1002600006D52B69D8F8582023F0404313432B615F
:10027000C00719D5D8F85C10052913D8DFE801F0BC
:1002800006030F06060600F0DBFD044620000AD137
:100290002968D8F85C0000F0CFFD296004E000F088
:1002A000C7FDF2E70124A14698F8000081071ED59A
:1002B000D8F8600060B1082807D0102812D018289C
:1002C0001CBF2028282803D00FE000F0B9FD044609
:1002D00020000BD12968D8F8600021F038010143D3
:1002E000296004E000F0A4FDF1E70124A14698F89C
:1002F0000000410720D5D8F8640070B1402809D02B
:10030000802814D0C0281CBFB0F5807FB0F5A07F36
:1003100003D00FE000F094FD044620000BD12968C3
:10032000D8F8640021F4E0710143296004E000F092
:100330007FFDF1E70124A14698F80000010723D5CD
:10034000D8F8680088B1B0F5007F0BD0B0F5806FA9
:1003500015D0B0F5C06F1CBFB0F5006FB0F5206FC1
:1003600003D00FE000F06CFD044620000BD129689B
:10037000D8F8680021F460610143296004E000F0CE
:1003800057FDF1E70124A14698F80000C10623D5E6
:10039000D8F86C0088B1B0F5805F0BD0B0F5005F85
:1003A00015D0B0F5405F1CBFB0F5804FB0F5A04F41
:1003B00003D00FE000F044FD044620000BD1296873
:1003C000D8F86C0021F4E0410143296004E000F01A
:1003D0002FFDF1E70124A14698F80010880623D5E7
:1003E000D8F8701089B1B1F5004F0BD0B1F5803F4E
:1003F00015D0B1F5C03F1CBFB1F5003FB1F5203FAE
:1004000003D00FE000F01CFD044620000BD129684A
:10041000D8F8700021F460310143296004E000F055
:1004200007FDF1E70124A14698F80000410623D515
:10043000D8F8740088B1B0F5802F0BD0B0F5002F3C
:1004400015D0B0F5402F1CBFB0F5801FB0F5A01F30
:1004500003D00FE000F0F4FC044620000BD1296823
:10046000D8F8740021F4E0110143296004E000F0A1
:10047000DFFCF1E70124A14698F80000010623D52E
:10048000D8F8780088B1B0F5001F0BD0B0F5800F18
:1004900015D0B0F5C00F1CBFB0F5000FB0F5200FA0
:1004A00003D00FE000F0CCFC044620000BD12968FB
:1004B000D8F8780021F460010143296004E000F0DD
:1004C000B7FCF1E70124A146D8E90001C20523D514
:1004D000D8F87C0088B1B0F1807F0BD0B0F1007FFC
:1004E00015D0B0F1407F1CBFB0F1806FB0F1A06FAC
:1004F00003D00FE000F0A4FC044620000BD12968D3
:10050000D8F87C0021F0E0610143296004E000F0AC
:100510008FFCF1E70124A146D8E90001820523D52B
:10052000D8F8800088B1B0F1006F0BD0B0F1805FD7
:1005300015D0B0F1C05F1CBFB0F1005FB0F1205F1B
:1005400003D00FE000F07CFC044620000BD12968AA
:10055000D8F8800021F060510143296004E000F0E8
:1005600067FCF1E70124A146D8E9000108F18407FE
:10057000420517D53868052812D8DFE800F00603D1
:100580000E06060600F05CFC0446200009D16968EE
:10059000386800F051FC696004E000F049FCF3E7C2
:1005A0000124A146D8E9000102051CD5786860B194
:1005B000102807D0202811D030281CBF40285028F0
:1005C00003D00EE000F03CFC044620000AD169682C
:1005D000786821F070010143696004E000F028FCB4
:1005E000F2E70124A146D8E90001C20421D5B86888
:1005F00088B1B0F1807F0BD0B0F1007F14D0B0F1A2
:10060000407F1CBFB0F1806FB0F1A06F03D00EE04F
:1006100000F016FC044620000AD1A968B86821F051
:10062000E0610143A96004E000F002FCF2E701246C
:10063000A146D8E90001820419D5F86860B1B0F587
:10064000803F06D0B0F5003F18BFB0F5403F03D063
:100650000BE000F0EDFB0446200007D1E968F868E4
:1006600021F440310143E96001E00124A146D8E9C9
:100670000001420419D5386960B1B0F5802F06D069
:10068000B0F5002F18BFB0F5402F03D00BE000F0FD
:10069000CFFB0446200007D1E968386921F44021E6
:1006A0000143E96001E00124A146D8E90001020408
:1006B00019D5786960B1B0F5801F06D0B0F5001F7C
:1006C00018BFB0F5401F03D00BE000F0B1FB0446AB
:1006D000200007D1E968786921F440110143E960FD
:1006E00001E00124A146D8E9002313F4806119D068
:1006F000B86960B1B0F5800F06D0B0F5000F18BF33
:10070000B0F5400F03D00BE000F092FB0446200050
:1007100007D1E968B86921F440010143E96001E0CB
:100720000124A146D8E90001C20316D5F86948B1F1
:10073000B0F1807F03D0B0F1007F03D00BE000F078
:1007400077FB0446200007D1E968F86921F0407181
:100750000143E96001E00124A146D8E90023DFF864
:10076000486913F400610AD0D6F800C02CF4004C9C
:10077000C6F800C03168D8F8040101433160910324
:1007800021D5386A88B1B0F5807F0BD0B0F5007FF5
:1007900014D0B0F5407F1CBFB0F5806FB0F5A06FEE
:1007A00003D00EE000F04CFB044620000AD169683B
:1007B000386A21F4E0610143696004E000F038FB2D
:1007C000F2E70124A146D8E90001420321D5786A65
:1007D00088B1B0F5805F0BD0B0F5005F14D0B0F5F4
:1007E000405F1CBFB0F5804FB0F5A04F03D00EE0C6
:1007F00000F026FB044620000AD16968786A21F4DB
:10080000E0410143696004E000F012FBF2E70124DB
:10081000A146D8E9002313F0200121D0B86A88B19D
:10082000B0F5803F0BD0B0F5003F14D0B0F5403F9D
:100830001CBFB0F5802FB0F5A02F03D00EE000F064
:10084000FFFA044620000AD16968B86A21F4E02161
:100850000143696004E000F0EBFAF2E70124A146ED
:10086000D8E9002313F0400121D0F86A88B1B0F52F
:10087000801F0BD0B0F5001F14D0B0F5401F1CBF77
:10088000B0F5800FB0F5A00F03D00EE000F0D8FA5D
:10089000044620000AD16968F86A21F4E0010143A6
:1008A000696004E000F0C4FAF2E70124A146D8E947
:1008B000002313F0800121D0386B88B1B0F1807F24
:1008C0000BD0B0F1007F14D0B0F1407F1CBFB0F16D
:1008D000806FB0F1A06F03D00EE000F0B1FA0446D3
:1008E00020000AD16968386B21F0E061014369603A
:1008F00004E000F09DFAF2E70124A146D8E90023C4
:1009000013F4807121D0786B88B1B0F1805F0BD087
:10091000B0F1005F14D0B0F1405F1CBFB0F1804F68
:10092000B0F1A04F03D00EE000F08AFA0446200098
:100930000AD16968786B21F0E0410143696004E005
:1009400000F076FAF2E70124A146D8E9000102039B
:1009500022D5F96B61B1B1F5803F14D0B1F5003FFC
:1009600015D0B1F5403F18BFB1F5802F02D011E08E
:1009700000F059FA20000ED12969F86B21F4E0212A
:100980000143296108E000F05BFA0446F2E700F059
:100990004FFAFAE70124A146D8E90001C20222D5A4
:1009A000396C61B1B1F5002F14D0B1F5801F15D0AD
:1009B000B1F5C01F18BFB1F5001F02D011E000F063
:1009C00032FA20000ED12969386C21F460110143FC
:1009D000296108E000F034FA0446F2E700F028FA52
:1009E000FAE70124A146D8E90001820214D5386D46
:1009F00005280FD8DFE800F006060306060600F01B
:100A00001FFA0446200006D12969386D00F014FA57
:100A1000296101E00124A146D8E9002313F4007103
:100A200006D0786D010018BF08281BD00124A1460C
:100A3000910146D5DFF884B6DBF8000040F00100F4
:100A4000CBF8000001F014FA8246DBF80000C10781
:100A500010D401F00DFAA0EB0A000328F5D32EE024
:100A6000D80C02442100E2D1296921F00801084391
:100A70002861DDE7200023D1A86910F440701CBF75
:100A8000796F88420BD0A869A96941F48031A961C6
:100A9000A96920F4407021F48031A961A861C007E0
:100AA00029D501F0E5F98246A869810723D401F030
:100AB000DFF9A0EB0A0041F289318842F4D3032424
:100AC000A146D8E90001420136D57B6C53B1102B09
:100AD00004D0202B18BF302B04D02BE0F26842F456
:100AE0000032F260220026D12B697A6C23F03003A9
:100AF00013432B6120E0786F00F44071B1F5407F23
:100B000009D13268DFF8B81501EA101122F47C52DD
:100B10000A43326003E0306820F47C503060A869FA
:100B200020F44070A861A969786FC0F30B000143FD
:100B3000A961C6E70124A146400215D5B96C11B1DF
:100B400040290BD00EE000F06EF920000BD1E968CF
:100B5000B86C21F040010143E96005E000F070F954
:100B60000446F2E70124A146D8E90001020215D5A6
:100B7000F96C11B180290BD00EE000F054F920007F
:100B80000BD1E968F86C21F080010143E96005E0D0
:100B900000F056F90446F2E70124A146D8E9000125
:100BA00002011CD5F86D042817D8DFE800F0030F08
:100BB00013070700F16841F40031F16020000DD106
:100BC000A968F86D00F038F9A96008E000F038F97C
:100BD0000446F3E700F02CF9FAE70124A146D8E92E
:100BE0000001C2001ED5396E41B1082911D010296B
:100BF00013D0182918BF202902D011E000F013F9F2
:100C000020000ED1A968386E21F038010143A96097
:100C100008E000F015F90446F2E700F009F9FAE7F8
:100C20000124A146D8E9000182001FD5796E49B19F
:100C3000402912D0802914D0C02918BFB1F5807F77
:100C400002D011E000F0EFF820000ED1A968786E14
:100C500021F4E0710143A96008E000F0F1F80446D6
:100C6000F2E700F0E5F8FAE70124A146D8E900012F
:100C7000420021D5B86E88B1B0F5007F0BD0B0F539
:100C8000806F14D0B0F5C06F1CBFB0F5006FB0F529
:100C9000206F03D00EE000F0D3F8044620000AD104
:100CA000A968B86E21F460610143A96004E000F016
:100CB000BFF8F2E70124A146D8E90001002821D5B8
:100CC000F86E88B1B0F5805F0BD0B0F5005F14D03E
:100CD000B0F5405F1CBFB0F5804FB0F5A04F03D01A
:100CE0000EE000F0ADF8044620000AD1A968F86EC5
:100CF00021F4E0410143A96004E000F099F8F2E733
:100D00000124A146D8E9002313F0010121D0386F56
:100D100088B1B0F5004F0BD0B0F5803F14D0B0F5DE
:100D2000C03F1CBFB0F5003FB0F5203F03D00EE040
:100D300000F086F8044620000AD1A968386F21F433
:100D400060310143A96004E000F072F8F2E7012489
:100D5000A146D8E9002313F0020119D0B86D032889
:100D600014D8DFE800F006020F06F16841F4003104
:100D7000F16020000BD1E968B86D890840EA810173
:100D8000E96005E000F05CF80446F2E70124A146C2
:100D9000D8E9002313F0040119D0B96B41B1B1F5C2
:100DA000807F03D0B1F5007F0BD00EE000F03BF860
:100DB00020000BD12969B86B21F4407101432961EE
:100DC00005E000F03DF80446F2E70124A146D8E929
:100DD000002313F0100118D0F96F102904D0202936
:100DE0000DD0302902D00EE000F01DF820000BD10C
:100DF000E968F86F21F030010143E96005E000F097
:100E000017F80446F2E70124A146D8E9002313F0BD
:100E1000080105D02969B86F21F0C001014329619B
:100E20004846BDE8F28FF06840F40030F06070474B
:100E300008F1300000F0A6BFC90840EAC1017047C0
:100E400008F1080000F053BF30B59E4B596B9C6A07
:100E500000F086F8996A9A6AC2F300159A6B00F05E
:100E600093F828D000F09CF8910106D59A6AD10336
:100E700003D5596B00F065F801E0DFED8C0AC0ED99
:100E8000000A19688A0108D5996A8A0305D5596B41
:100E9000C1F3064100F057F801E0DFED840AC0ED30
:100EA000010A19688A0109D5996A4A0306D5596B5E
:100EB00000F05BF804E00160002242609FED7B0AD5
:100EC0003CE0000030B57F4BD96BDC6A00F048F89D
:100ED000D96ADA6AC2F300151A6C00F055F828D006
:100EE00000F05EF8110106D5DA6AD10303D5D96B9B
:100EF00000F027F801E0DFED6D0AC0ED000A196887
:100F00000A0108D5D96A8A0305D5D96BC1F3064110
:100F100000F019F801E0DFED650AC0ED010A19687B
:100F20000A0109D5D96A4A0306D5D96B00F01DF824
:100F300004E00160002242609FED5C0A80ED020A3D
:100F400030BDC1F3462100EE901AB8EE601AF7EEFC
:100F5000000A71EE200AC0EE200AFCEEE00A70479B
:100F6000C1F3080100EE101A7047B7EE001AC1F382
:100F7000066100EE901AF8EE600A70EE810A80EECB
:100F8000200ABCEEC00A7047C1F30521C2F3CC02AF
:100F9000554300EE905AF8EE600A002970470000B1
:100FA00001EE101A04F00304B8EE411A4649012C70
:100FB00004D022D3032C0FD00BD31EE01A68C2F347
:100FC000C102D14001EE901AF8EE611A81EE811A49
:100FD00006E09FED372A01E09FED362A82EE011AE6
:100FE000B8EE400ADFED341A00EEA10AF7EE000A6F
:100FF00070EE200A21EE200A15E01A68B8EE400AC9
:10100000C2F3C102D14001EE901AF8EE611A81EEEE
:10101000811ADFED291A00EEA10AF7EE000A30EE80
:10102000200A21EE000A1A687047000030B5254BEF
:10103000596C1C6BFFF794FF196B1A6BC2F3001508
:101040009A6CFFF7A1FF28D0FFF7AAFF910006D501
:101050001A6BD10303D5596CFFF773FF01E0DFED85
:10106000130AC0ED000A19688A0008D5196B8A03B3
:1010700005D5596CC1F30641FFF765FF01E0DFEDCF
:101080000B0AC0ED010A19688A0009D5196B4A03D9
:1010900006D5596CFFF769FF04E001600022426049
:1010A0009FED020A4AE700001C0C02440000000009
:1010B0000024744A20BCBE4B0000003924080244BE
:1010C000CFFFFF00000C02440090D003F0B50246B1
:1010D0000B46002789B0DFF8E059DFF8E0494FF40C
:1010E000FA404FF00076BB4208BFB24227D1A9694F
:1010F000AB6901F440719A0703D5B1F5807F00F028
:10110000BE85AB691A0103D5B1F5007F00F0DD851E
:101110002268900340F1D885B1F5407F40F0D48536
:10112000E06900F47C50B0F5007FC0F0CD85E16946
:10113000DFF88C09C1F30521B0FBF1F0E1E2DFF843
:101140008419002B08BF012A00F03881002B08BF4A
:10115000022A00F05481002B08BF042A00F06981A4
:10116000002B08BF082A00F08381002B08BF102A3B
:1011700000F0A281002B08BF202A00F0C381002BC1
:1011800008BF402A00F0E081002B08BF802A00F051
:10119000FD81002B08BFB2F5807F00F01982002B83
:1011A00008BFB2F5007F00F02682002B08BFB2F521
:1011B000806F00F04482002B08BFB2F5006F00F092
:1011C0005B82002B08BFB2F5805F00F07282002BBB
:1011D00008BFB2F5005F00F0B782002B08BFB2F580
:1011E000804F00F0C482002B08BFB2F5004F00F022
:1011F000D182002B08BFB2F5803F00F0F282002BB5
:1012000008BFB2F5003F00F0FA82002B08BFB2F52C
:10121000802F00F01C83002B08BFB2F5002F76D082
:10122000002B08BFB2F5801F00F09380002B08BF91
:10123000B2F5001F00F05C82002B08BFB2F5800FF2
:1012400000F0AD80002B08BFB2F5000F00F0AD80BC
:10125000002B08BFB2F1806F00F00085002B08BFA3
:10126000B2F1006F00F0D283002B08BFB2F1805FB3
:1012700000F0E983002B08BFB2F1005F00F00084AA
:10128000002B08BFB2F1804F00F02F84002B08BF65
:10129000B2F1004F00F05084012B08BF002A00F08B
:1012A0007084022B08BF002A00F09784042B08BF2B
:1012B000002A00F09A83082B08BF002A00F0BA84A5
:1012C000102B08BF002A00F0E384202B08BF002A5F
:1012D00000F0E682402B08BF002A00F00783802B35
:1012E00008BF002A00F02683B3F5807F08BF002ADC
:1012F00000F04583B3F5007F08BF002A00F0168296
:10130000B3F5806F37D1002A00F05782EFE12869EA
:1013100010F4E0204CD0B0F5803F20D0B0F5003F75
:1013200021D0B0F5403F22D0B0F5802F23D100F07E
:10133000CEFC02D508B900F0EEBB2268910502D5BB
:10134000B0F1804F53D02268910354D5B0F1004FD3
:101350007CE2286910F460102AD0B0F5002F00F06C
:101360009E83B0F5801F00F09F83B0F5C01F00F092
:10137000A083B0F5001F40F0A78400F0A8FC02D5C0
:1013800008B900F0C8BB2268910502D5B0F1804FC2
:101390002DD0226891032ED5B0F1004F56E2E868B7
:1013A00010F0400004D0402805E0E86810F080000C
:1013B00000F07384802800F01C8498E1286810F005
:1013C000070000F0E28323681A0101D5012858D0F4
:1013D00023689A0001D502285AD023689A0702D5BB
:1013E000032800F098832268910502D5042800F0B4
:1013F0001584AA69910740F16784052876E1286879
:1014000010F038005BD023681A0101D5082838D0C5
:1014100010283DD023689A0701D5182862D0226889
:10142000910501D5202864D0AA69910765D528289F
:101430005CE1286810F4E07041D02268130101D506
:1014400040281ED02268930001D5802820D0236830
:101450009A0701D5C02845D02268910502D5B0F57C
:10146000807F46D0AA69910747D5B0F5A07F3DE1BE
:10147000286810F4606022D02268130103D5B0F50B
:10148000007F00F08B832268930003D5B0F5806F56
:1014900000F00D842268930702D5B0F5C06F21D00B
:1014A0002268910502D5B0F5006F22D0AA69910794
:1014B00023D5B0F5206F19E1286810F4E04000F062
:1014C000DA812268130102D5B0F5805FD9D0226895
:1014D000930002D5B0F5005FDAD023689A0703D5F0
:1014E000B0F5405F00F017832268910503D5B0F591
:1014F000804F00F09383AA69910740F1E583B0F52E
:10150000A04FF3E0286810F4603064D02268130123
:1015100002D5B0F5004FB4D02268930002D5B0F5E3
:10152000803F65D02268930702D5B0F5C03FD9D07F
:101530002268910502D5B0F5003FDAD0AA6991077B
:10154000DBD5B0F5203FD1E0286810F4E01042D0A0
:101550002268130102D5B0F5802F55D02268930080
:1015600002D5B0F5002F43D02268930702D5B0F51D
:10157000402FB7D02268910502D5B0F5801FB8D0B2
:10158000AA699107B9D5B0F5A01FAFE0286810F49B
:10159000600020D02268130102D5B0F5001F33D0BF
:1015A0002268930002D5B0F5800F21D023689A07F6
:1015B00002D5B0F5C00F95D02268910502D5B0F5DF
:1015C000000F96D0AA69910797D5B0F5200F8DE04E
:1015D000286810F0E06000F04E812268130102D507
:1015E000B0F1807F10D02268930003D5B0F1007F66
:1015F00000F05D8368E0286810F06050EBD023684D
:101600001A0103D5B0F1006F00F0C88223689A0078
:1016100002D5B0F1805FEBD02268930702D5B0F11C
:10162000C05F56D021688A0503D5B0F1005F00F095
:10163000F582AA6991075AD5B0F1205F56E0686833
:1016400010F00700C7D023681A0101D50128DBD0AC
:1016500023689A0001D50228CAD023689A0701D5C9
:10166000032836D021688A0501D50428DFD0AA696D
:1016700091073CD5052839E0686810F07000AAD0C1
:1016800023681A0101D51028BED023689A0001D51D
:101690002028ADD02268930701D5302819D02168C1
:1016A0008A0501D54028C2D0AA6991071FD55028C4
:1016B0001CE0A86810F0E06000F04282B0F1807F8A
:1016C000A2D0B0F1007F93D023689A0703D5B0F180
:1016D000407F00F0978221688A0502D5B0F1806FC3
:1016E000A5D0AA69910702D5B0F1A06F25D0EBE291
:1016F000286910F0070000F07982012802D100F07B
:1017000043FFE2E2022800F0748223689A0302D5C4
:10171000032800F08C8223689A0702D5042800F081
:10172000FA8122689105E2D5052858E02969AB695C
:1017300001F008019A0702D5002900F0A082AA69E9
:101740001301D4D50829A1E2E86810F440304BD049
:10175000B0F5803F5DD023689A0702D5B0F5003F11
:101760004CD022689105C2D5B0F5403F37E0E8681B
:1017700010F4402038D0B0F5802F4AD023689A0763
:1017800002D5B0F5002F39D02268910528D5B0F5E3
:10179000402F24E0E86810F4401033D0B0F5801FEB
:1017A00037D023689A0702D5B0F5001F26D02268EB
:1017B000910515D5B0F5401F11E0E86810F4400020
:1017C00020D0B0F5800F24D02268930702D5B0F561
:1017D000000F13D02268910502D5B0F5400F57D005
:1017E00072E2E86810F0407045D0B0F1807F10D010
:1017F00023689A07F4D5B0F1007FF1D18BE16A68D4
:1018000012F4E06200F09C81B2F5807F4ED0B2F518
:10181000007F00F0C880B2F5407F00F0C980B2F5CB
:10182000806F00F0CB80B2F5A06FD9D100F04FFAF5
:1018300001D500284CD021688A0502D5B0F1804F2F
:1018400026D02268910315D5B0F1004FC3E16A6834
:1018500012F4E0420FD0B2F5805F27D0B2F5005FFE
:101860004DD0B2F5405F4DD0B2F5804F4DD0B2F5BE
:10187000A04F03D028E200F030FF26E200F027FA64
:1018800001D5002824D021688A0503D5B0F1804F06
:1018900000F0C48122689103ECD5B0F1004F9AE1C9
:1018A0006A6812F4E02248D0B2F5803F00F0F78079
:1018B000B2F5003F23D0B2F5403F23D0B2F5802FE0
:1018C00023D0B2F5A02FD5D100F001FA02D500281F
:1018D00000F0988121688A0502D5B0F1804FD7D0F9
:1018E00022689103C6D5B0F1004F74E16A6812F422
:1018F000E00222D0B2F5801FD8D0B2F5001F52D03E
:10190000B2F5401F54D0B2F5800F57D0B2F5A00FFA
:1019100048D100F0DCF901D5002857D021688A05AC
:1019200002D5B0F1804F58D0226891033AD5B0F17A
:10193000004F50E16A6812F0E06200F00181B2F1FC
:10194000807FB3D0B2F1007F2DD0B2F1407F2FD095
:10195000B2F1806F32D0B2F1A06F23D100F0B7F9AD
:1019600001D5002832D021688A0502D5B0F1804F18
:1019700033D02268910315D5B0F1004F2BE16A688E
:1019800012F0E042D9D0B2F1805F61D0B2F1005FD5
:1019900009D0B2F1405F0BD0B2F1804F0ED0B2F15E
:1019A000A04F0FD090E16846FFF740FB02988CE112
:1019B000A869400800F00100C00386E1AA6911018E
:1019C000FBD481E100F083F902D5002800F01A81F0
:1019D00021688A0503D5B0F1804F00F01F8122688D
:1019E0009103EED5B0F1004FF5E02869226800F4CC
:1019F0004070910302D5002800F01981B0F5807F76
:101A000041D0B0F5007F00F0C9805DE1A86800F02A
:101A100007000428F9D8DFE810F040014200470031
:101A20004C00050000F053F901D50028CED0216804
:101A30008A0502D5B0F1804FCFD022689103E4D55A
:101A4000B0F1004FC7E0A86810F038001BD008289C
:101A500025D0102828D018282BD020281ED100F0FF
:101A600036F901D50028B1D021688A0502D5B0F138
:101A7000804FB2D02268910310D5B0F1004FAAE098
:101A8000A86810F4E07000F00881402807D0802892
:101A90000AD0C0280DD0B0F5807F15D014E103A87E
:101AA000FFF710FA039810E16846FFF7BFFA0098B5
:101AB0000BE1DFF8A40308E1D80C0244000C024457
:101AC00040787D010090D00300F001F901D5002895
:101AD0004AD021688A0502D5B0F1804F4AD02268E9
:101AE0009103DBD5B0F1004F75E0A86810F4606099
:101AF0004BD023681A0102D5B0F5007F4ED0236881
:101B00009A0002D5B0F5806F52D023689A0707D5A6
:101B1000B0F5C06F04D108462168C1F3C10175E07A
:101B20002268910502D5B0F5006F23D02268910399
:101B3000B4D5B0F5206F4EE0A86810F4E04002D1B3
:101B400000F0E3FDC1E023681A0102D5B0F5805F23
:101B500024D023689A0002D5B0F5005F28D023680E
:101B60009A0702D5B0F5405F4CD021688A0502D5AE
:101B7000B0F5804F52D0226891032DD5B0F5A04F1B
:101B800029E0A86810F4603002D100F0AEFD9CE0BE
:101B900023681A0107D5B0F5004F04D103A8FFF759
:101BA00091F9049891E023689A0003D5B0F5803F3D
:101BB00000F07D8023689A0702D5B0F5C03F21D0A0
:101BC00021688A0502D5B0F5003F27D0226891032D
:101BD00002D5B0F5203F2AD076E0E86800F0030097
:101BE000032871D8DFE800F00259050A00F066FD0D
:101BF0006BE003A8FFF766F9059866E000F067F868
:101C000006D528B922680846C2F3C101C8405CE085
:101C100021688A0505D5B0F1804F02D1DFF83C027A
:101C200053E0226891034FD5B0F1004F4CD1DFF85B
:101C300030024AE02969AA6901F0C001930700D582
:101C4000E9B1AB691A0101D540293ED0226890055F
:101C50003AD5802938D148F2120036E02969236844
:101C600001F030019A0400D559B323689A0101D5D7
:101C7000102912D0AA69930704D5202902D14FF464
:101C8000004022E0AA6913011ED530291DD01BE0B7
:101C9000E86800F03000102804D106A8FFF7D4F857
:101CA000079812E021688A0006D5202804D16846EA
:101CB000FFF7BCF9019808E02268910404D53028A8
:101CC00002D1DFF8A00100E0002009B0F0BD2869D2
:101CD000236800F040409A077047F06921F0200126
:101CE00001437047B06921F00C010143704770B5A2
:101CF00000F03FF800F041F806462968080106D5D3
:101D000000F0B6F8801B0328F7D3032070BDEB6A00
:101D100000F099F8EB6200F07FF8E863E96AA069E7
:101D2000FFF7E1FFE962E96AE069FFF7D7FFE962DF
:101D3000E96A606A0143E962E96A21F01001E96237
:101D4000286C00F063F82864E96A41F01001E96248
:101D5000286840F0806000F012F804462968080105
:101D600005D400F085F8001B0328F7D3CDE7002049
:101D700070BD04463C4D2868704720F080602860A4
:101D800000F076B870B5FFF7F4FF20F08050FFF751
:101D9000F6FF06462968880006D500F069F8801B22
:101DA0000328F7D3032070BD2B6B00F04CF82B6396
:101DB00000F032F86864296BA069FFF794FF29638B
:101DC000296BE069FFF78AFF2963296B606A014389
:101DD0002963296B21F010012963A86C00F016F823
:101DE000A864296B41F010012963286840F08050F5
:101DF000FFF7C5FF04462968880005D400F038F8CD
:101E0000001B0328F7D3CDE7002070BD216A6FF3D4
:101E1000CF0040EAC1007047E168A068491E49024E
:101E2000401EC0F3080001F47E4108432169491EA9
:101E3000090401F4FE0108436169491E090601F025
:101E4000FE410843704721680848626803400B431D
:101E500043EA0223704700000080BB0000093D00F8
:101E600040787D01006CDC02000C0244FCC0FFFFE6
:101E700001484068704700BF0C0000202DE9F8437E
:101E8000050032D0DFF8D078FC69BE6A297804F00A
:101E9000180406F00306C8060FD5082C03D0182C2A
:101EA00008BF022E46D1E86900281ED0B969286A09
:101EB00021F47C1141EA0041B9612978C80708D5AD
:101EC000102C03D0182C08BF032E54D168680028AA
:101ED0000BD02978880740F1A98024B1182C08BFBD
:101EE000012E40F0BB80E868002800F01782A4B9FA
:101EF00028693A6802F0180282420ED0396821F04F
:101F000018010843386000F0D9FBDFF85408006876
:101F100000F046FC002840F00182FFF7A9FF0646CA
:101F2000396888077BD4FFF7A3FF801B0328F7D30A
:101F30000320CBE1E86978B1396841F480713960F8
:101F4000FFF796FF804638688105AFD4FFF790FF12
:101F500000F002FAF7D3EBE7386820F4807000F065
:101F600005FA804638688105A7D5FFF781FF00F0A4
:101F7000F3F9F7D3DCE76868B0F5803F11D040B9DA
:101F8000386820F4803000F0EBF9386820F48020C5
:101F900026E0B0F5A02F08D1386840F4802000F08A
:101FA000DFF9386840F480301AE0B0F5A81F0CD192
:101FB000396841F480213960386840F48010386015
:101FC000396841F4803139600BE0386820F48030A2
:101FD0003860396821F480213960386820F4801035
:101FE0003860686868B1FFF743FF8046386881034E
:101FF0003FF56FAFFFF73CFFA0EB08006528F5D376
:1020000096E7FFF735FF8046386881037FF561AFBB
:10201000FFF72EFFA0EB08006528F5D388E73969A4
:10202000686921F4FE0141EA004139612878DFF84E
:102030004867010749D5A869002836D0316841F0C2
:1020400080613160FFF714FF8046306801013CD4A5
:10205000FFF70EFF00F080F9F7D369E7E868A8B151
:102060003968286921F0180101433960396841F065
:1020700001013960FFF7FCFE064639688807CED4B7
:10208000FFF7F6FE801B0328F7D351E738684008B6
:10209000400000F06BF9064639688807C6D5FFF79F
:1020A000E7FE801B0328F7D342E7306820F080600A
:1020B0003060FFF7DDFE80463168080105D5FFF787
:1020C000D7FE00F049F9F7D332E7287841076AD5FF
:1020D000DFF8A886D8F80000C10713D4D8F80000AC
:1020E00040F00100C8F80000FFF7C2FE8146D8F8B2
:1020F0000010C80706D4FFF7BBFEA0EB09000328B9
:10210000F5D315E7A868012813D040B900F031F9DC
:1021100021F080013160306820F0040024E00528BF
:102120000BD1306840F004003060316821F080014C
:102130003160306840F0010016E085280CD131682C
:1021400041F004013160306840F080003060316857
:1021500041F00101316008E000F00BF921F00401C9
:102160003160306820F080003060A86841F2893822
:1021700060B1FFF77DFE81463068810713D4FFF719
:1021800077FEA0EB09004045F6D3D1E6FFF770FEDD
:1021900081463168880706D5FFF76AFEA0EB090083
:1021A0004045F6D3C4E62878810620D5686A78B120
:1021B000396841F480513960FFF75AFE06463868A5
:1021C000810414D4FFF754FE801B0328F7D3AFE635
:1021D000386820F4805000F0C9F806463968880451
:1021E00005D5FFF745FE801B0328F7D3A0E6A86AB4
:1021F00000286AD0182C6BD00228386820F0807034
:10220000386051D1FFF734FE04463968880105D59E
:10221000FFF72EFE001B0328F7D389E6BA6AE96AA6
:10222000DFF85C050240286B0A4342EA0022BA62EA
:10223000A96B686B491E4902401EC0F3080001F4F7
:102240007E410843E96B491E090401F4FE0108437D
:10225000296C491E090601F0FE4108437863B86AFB
:1022600020F01000B86200F06FF8B96A686C21F0D5
:102270000C010143B962B96AA86C21F02001014345
:10228000B962B96A41F48031B962386840F080704F
:1022900000F06CF804463868810116D4FFF7E8FDB9
:1022A000001B0328F7D343E6FFF7E2FD0446396835
:1022B000880105D5FFF7DCFD001B0328F7D337E6BF
:1022C000B96ADFF8C0040140B9620020BDE8F283BA
:1022D000B96A7A6B012821D0EB6A01F003009842B9
:1022E00002BFC1F30521286B814217D1686BC2F38D
:1022F0000801491C814201BFC2F34621491CA86B59
:1023000081420BD1E86BC2F30641491C814201BFF7
:10231000C2F30661491C286C814201D00120D5E737
:10232000B96BE86CC1F3CC018142CED0B96A21F01F
:102330001001B962FFF79CFD0446FFF799FD001BF1
:10234000FBD000F001F8C0E7E86CC000B863B86AE1
:1023500040F01000B8627047A0EB080003287047F7
:102360003860396821F48011396070473860FFF7B0
:102370007FBD3068400840003060316870472DE90B
:10238000F8430400894649D0DFF8C873386800F084
:102390000F00484509D23968090949EA0111396035
:1023A000386800F00F00484538D12178DFF8A8538D
:1023B000C80604D500F0C3F8814200F0DCF82078AC
:1023C000010704D500F0B5F8814200F0CCF821787F
:1023D000480706D5E068296A01F07001814200F0E3
:1023E000BBF82178880706D5A068296A01F00F019B
:1023F000814200F0AAF82178C80750D56068032808
:1024000002D12A68910108E0022802D129688A03D2
:1024100003E0012803D12A68910503D458E02B6812
:102420009A0755D5E96941F28938890840EA81005F
:10243000E861FFF71DFD0646606803280BD1E869D7
:1024400000F0180018282AD0FFF712FD801B404525
:10245000F5D303206BE002280AD1E86900F01800E8
:1024600010281CD0FFF704FD801B4045F5D3F0E792
:1024700001280AD1E86900F0180008280FD0FFF7FA
:10248000F7FC801B4045F5D3E3E7E86910F0180F2F
:1024900005D0FFF7EDFC801B4045F6D3D9E7217846
:1024A000880706D5A068296A01F00F01884200F06C
:1024B0004CF8396801F00F0189450BD238680009E2
:1024C00049EA00103860396801F00F01494501D030
:1024D00001202CE02078410706D5E068296A01F048
:1024E0007001884200F038F82078010704D500F028
:1024F00020F8884200F037F82078C10604D500F0B3
:102500001EF8884200F037F800F03EF82A6ADFF83B
:102510007812DFF85C3202F00F02895CC840186064
:10252000DFF83C020068BDE8F24300F039B9BDE8CD
:10253000F2832069296A090901F070017047606916
:10254000296A090A01F07001704704D2296A090951
:1025500040EA01102862704704D2296A21F0700114
:1025600008432862704705D2296A21F4E06141EAF4
:1025700000112962704705D2296A21F4E04141EA3D
:10258000002129627047000030B5734BD86900F014
:102590001800082808BF7E490BD0D869754910F08B
:1025A000180F07D11868820603D51A68C2F3C10054
:1025B000C1407AE0D86900F01800102808BF7549BA
:1025C00073D0D86900F0180018286ED19C6A986AF8
:1025D0009A6AC2F300159A6BC0F30520C2F3CC02CD
:1025E000554300EE105AB8EE400A00285CD000EEC9
:1025F000900A04F00304F8EE600A012C02D0032CC8
:102600002BD02DE01A689FED551A20EE010A900696
:1026100015D51868B7EE002AC0F3C100C140586B49
:1026200001EE101AB8EE411A00F041F831EE800ABE
:10263000C1EE200A30EE022A20EE820A25E0586B15
:102640009FED481AC1EE200A00F031F871EE801AB1
:10265000B7EE000A31EE800A15E09FED432A01E053
:102660009FED422A586BDFED3D1AC2EE200AC0F3FF
:10267000080001EE100AB8EE411A00EE211AB7EE7A
:10268000000A31EE000A20EE800A586BC0F34620A3
:10269000401C00EE900AF8EE600A80EE200ABCEEC4
:1026A000C00A10EE101A00E00021084630BDC0F349
:1026B000080001EE900AF8EE611A704780B5FFF746
:1026C00063FF354A1268304902F00F028A5C2849DC
:1026D00002F01F02D040086002BD80B5FFF7EEFF98
:1026E00000F00FF8C2F3021206E080B5FFF7E6FF34
:1026F00000F007F8C2F30222895C01F01F01C84014
:1027000002BD254B1A682549704780B5FFF7D6FFF3
:10271000FFF7F7FFC2F30232EEE710B51F230360A5
:102720001A4B1A6802F0030242605A6802F00F0363
:102730008360130902F07004120A02F0700203F0C1
:1027400070034261C4600361024A106800F00F0028
:10275000086010BD00200240000C02440000003957
:10276000140000200024744C20BCBE4B0024744A8A
:10277000180000200090D003F00C0244240802440A
:10278000FCC0FFFFFCFFF8FFA08400081C0C024403
:1027900000093D0040787D01200C02449C86000821
:1027A00070B5044688B01F48016841F020010160FF
:1027B000006801A900F020000090009A02A8FFF72D
:1027C000ACFF059810B9FFF788FF02E0FFF785FF1F
:1027D00040001549B0FBF1F06322144DEA60401E41
:1027E000134B686000222B602A61AA60284600F023
:1027F00023F806000FD1284600F02BF806000AD176
:10280000102C07D200222146322000F093FA09480A
:10281000046000E00126322000F0B6FA304608B02D
:1028200070BD00009C0C0244A0860100FC2C00201E
:10283000001400401400002038B5040001D101202C
:1028400032BD00F09DF818B900F096F800F0DEFAFD
:102850005FE090F83D10012901D00120704702216E
:1028600080F83D100268DFF8D830D16841F00101EE
:10287000D160016899421CBFDFF8C820914235D071
:10288000B1F1804F18BFB1F1A04F2FD0DFF8B830B1
:1028900099421CBFDFF8B420914227D0DFF8B03056
:1028A00099421CBFDFF8AC2091421FD0DFF8A8305E
:1028B00099421CBFDFF8A420914217D0DFF8A03066
:1028C00099421CBFDFF89C2091420FD0DFF898306E
:1028D00099421CBFDFF89420914207D0DFF8903076
:1028E00099421CBFDFF88C2091420AD18968DFF839
:1028F00098200A40062A18BFB2F5803F07D0026828
:1029000000E00A461168104641F001010160002014
:102910007047022068702068211D00F019F901211C
:1029200029730120A870E97028716971A871E97193
:1029300028726972A872E9726870002032BD0000C6
:10294000002C0140002C0150000400400004005005
:102950000008004000080050000C0040000C00502F
:1029600000340140003401500018004000180050AD
:10297000004001400040015000212970204670476E
:1029800004F13C056878704707000100DFF8043067
:102990009842704700480140DFF8B03198427047D4
:1029A000014B9842704700000040014070B504465A
:1029B0002068C5680669B20714D5A90712D56FF05B
:1029C0000202026101212177806910F0030F204685
:1029D00002D000F01CFA03E000F01AFA00F0B3F89D
:1029E00000202077700715D5690713D520686FF090
:1029F0000402022102612177806910F4407F2046A1
:102A000002D000F004FA03E000F002FA00F09BF8B4
:102A100000202077310715D5280713D520686FF0DF
:102A20000801042201612277C06910F0030F2046DB
:102A300002D000F0ECF903E000F0EAF900F083F8CE
:102A400000202077F00615D5EA0613D520686FF030
:102A50001001082201612277C06910F4407F2046EE
:102A600002D000F0D4F903E000F0D2F900F06BF8E6
:102A70000020207706F0010205F001010A4206D08D
:102A800021686FF0010220460A6100F03EFA16F458
:102A9000025F08D02A0606D521686FF4025008614B
:102AA000204600F041FAF00508D52A0606D5206830
:102AB0006FF480710161204600F037FA700608D586
:102AC0006A0606D520686FF040010161204600F0DB
:102AD0002DFAB00608D5AA0606D521686FF02000A9
:102AE0000861204600F023FAF00208D5EA0206D574
:102AF00020686FF480110161204600F019FAB002DD
:102B000008D5AA0206D520686FF40011016120469D
:102B100000F00FFA700208D56A0206D520686FF43B
:102B200080010161204600F005FA30020AD52A0230
:102B300008D520686FF4000101612046BDE87040AF
:102B400000F0F9B970BD204600F0F6B9004401402C
:102B50002DE9F04FDFF870A10368DFF87041DFF86E
:102B60007051DFF87021DFF870C1DFF870B1DFF865
:102B700070E1DFF87081DFF87091DFF87061504527
:102B800018BFB04215D0B0F1804F18BFB0F1A04FC0
:102B90000FD0484518BF40450BD0704518BF584569
:102BA00007D0604518BF904203D0A84218BFA0428A
:102BB0001AD123F070074B683B43504518BFB04211
:102BC00041D0B0F1804F18BFB0F1A04F3BD0484585
:102BD00018BF404537D0704518BF584533D06045C1
:102BE0001CBF9042A8422ED0A0421CBFDFF800219B
:102BF000904228D0DFF8FC2090421CBFDFF8F8207C
:102C0000904220D0DFF8F42090421CBFDFF8F02083
:102C1000904218D0DFF8EC2090421CBFDFF8E8208B
:102C2000904210D000F04BF81CBFDFF8E02090423B
:102C300009D000F040F81FBFDFF8D4209042DFF841
:102C4000D420904203D123F44072CB6813434A69E5
:102C500023F08003134303608B685045C3620A6806
:102C6000826218BFB04218D0A84218BFA04214D048
:102C7000FFF796FE1CBFDFF8A02090420DD0FFF7B3
:102C80008BFE1CBFDFF89420904206D0FFF77EFE3B
:102C90001CBFDFF88020904201D10B690363012142
:102CA00041610269D10703D50269520852000261ED
:102CB000BDE8F08F0000DFF8642090427047DFF835
:102CC0005820904270470000002C01400034015011
:102CD00000340140000C0050000C0040000800507F
:102CE000000800400004005000040040002C015087
:102CF0000018004000180050001C0040001C00504C
:102D000000200040002000500040014000440140ED
:102D1000004801400048015000400150004401506B
:102D200034490A6860F30A2240F2FA5060F31F4205
:102D30000A60704770B52F4C23680124C3F3022347
:102D4000C3F10705052D2FBF0F26C3F1070604FAAF
:102D500006F6761E1D1D072D34BF0023DB1E3140F5
:102D6000994004FA03F35B1E1A4011430A01010063
:102D700002D4214B5A5470BD204801F00F01014488
:102D800001F8042C70BD0000010007D4012200F0FE
:102D90001F018A401A4B400943F820207047000069
:102DA0001949184A042824D8DFE800F008101A232B
:102DB0000300116841F0040111607047106820F0B1
:102DC000040010600A6822F00C0207E0106801237A
:102DD00020F0040010600A6863F383020A60704701
:102DE000106820F0040010600868022262F383007B
:102DF000086070470CED00E000E400E018ED00E032
:102E000000E100E010E000E0E40C0244704770478D
:102E1000704730B5016884684218416802EB51037D
:102E2000C90703D54C4401E0491C08D19A4218BF98
:102E300012F9011B01D10C3030BD12F8015B0029E1
:102E400004F8015BF0D4491EF7D5EFE780B500F038
:102E500075F800F00DF800F093F800F02FFB00F08B
:102E6000C5FB00F062FC00F0F3FC00F071FCFEE733
:102E700000B59BB05021002207A800F03DFD1821AD
:102E8000002201A800F038FD2348026842F0300219
:102E90000260016801F03001009100994268110759
:102EA000FCD5012207924FF4A81102220891119239
:102EB000032105221291139264210222149115928A
:102EC0001692179208210022189119921A9207A8B7
:102ED000FEF7D4FF08B100F025F81F200321019070
:102EE000029100220392049205920692052101A804
:102EF000FFF745FA08B100F015F8084A11680220FA
:102F000060F3051111601BB000BD016804488142E7
:102F100008BF00F0FBBC70471008024400200240CC
:102F20000014004072B6FEE7704770477047704764
:102F3000704770477047704770472E0010B50320E8
:102F4000FFF7EEFEFFF720FB0A4B1A680A4902F072
:102F50000F028C5C0949E04008600420FFF720FF65
:102F60000120FFF71DFC08B1012010BD00F0D6FCC8
:102F7000002010BD200C0244A0840008180000208E
:102F80002DE9F84F86B014210022684600F0B4FC09
:102F9000DFF8EC04026848F23917DFF8E8B442F4CD
:102FA00080720260016840F6083443F2702501F433
:102FB000807100F04EFADFF8D064DFF8D0A442F060
:102FC000020202600168DFF8C884DFF8C89401F0EB
:102FD000020100F03EFA42F040020260016801F096
:102FE000400100F036FA42F008020260016801F088
:102FF000080100F02EFA42F010020260016801F0B0
:1030000010010591059A036843F00103036001680C
:1030100001F0010100F01DFA42F080020260016837
:1030200001F0800100F015FA42F00402026001682C
:1030300001F00401059105990268394642F0200229
:1030400002600068002200F02000059005985846B4
:1030500000F019FD00222146DFF83C0400F013FDCA
:1030600000220321DFF8340400F00DFD0022294680
:10307000304600F008FD00221A21504600F003FD02
:1030800000224021404600F0FEFC02210191002078
:103090000A21F022029003900491009200F0EBF9D3
:1030A00000F07DF9202002210090022200F09FF91B
:1030B00000970120019000F0D8F900F0D0F94FF40A
:1030C0008067009702210A20019100220490029259
:1030D00000F0C3F900F05FF94CF23B7001920C2153
:1030E00000900322049103926946ED4800F01CFC15
:1030F0000021012202910391009400F0BBF900F03D
:103100004EF9062000F042F900F0B4F9032200F075
:10311000A9F900F09BF900F042F9C02004210090C9
:10312000122200F064F9002102914FF460500B214B
:1031300000F02DF9019200F090F900F02CF94FF415
:10314000007000F01DF900F088F900F028F9402027
:10315000062100F05EF90120019000220095029204
:10316000039200F04AF910220092022100220191FC
:1031700002920392022200F067F900F010F94FF476
:10318000C0500A2100F003F9C64D00F011F94FF4C8
:10319000804000210090C44C0291019400F02DF970
:1031A0004FF4005100F0E7F800F03CF900F0F7F8B8
:1031B0004FF4C060072100F00BF91A2200F052F919
:1031C000504600F0B1FB00F0E6F8012001920C211E
:1031D000009000F005F90021009702910B210222D6
:1031E00004910192039200F046F900224FF480709E
:1031F000022102920392009001910122049200F0B8
:10320000D8F800F0DAF8802000F050F900F00BF95F
:10321000402200F027F900F006F9822100F0ABF817
:1032200000F01CF90097022201920021029109216D
:1032300000F0D6F80221019140200A2100900022DE
:10324000032304910292039300F008F900F0A3F81D
:10325000042000F095F8039200F0E4F800F0ADF8D7
:103260004FF4405000F022F98D4800F05DFB00F073
:10327000A4F8012002920321009003910A2200F099
:10328000D0F80022322000F09CF800F0CAF80022AA
:10329000862000F096F8049200F08BF84FF48051ED
:1032A00000F069F800F080F800F079F84FF4006061
:1032B000022100F0AEF8712000210090032202915B
:1032C00000F076F84FF400420092002202210292B0
:1032D00003920191052200F066F808200090022177
:1032E00000F0A4F800F09FF800F059F8082005213C
:1032F00000F06EF80021029102200621009001905A
:1033000003220491039200F04FF84FF4F04000F0D4
:1033100094F8504600F008FB4FF6807200F071F808
:103320000C2200F091F800F03AF84FF4C07000F071
:103330002DF8019200F061F84FF4406002210090F6
:1033400000F074F800F05AF846F2010000F075F849
:10335000484600F0E9FA00F030F80C2000F0A6F83A
:1033600000F04CF8042200F04CF80A2200F01BF8A0
:1033700007B0BDE8F08F00910021029101947047E1
:1033800001920921009003220491704705210090C9
:10339000022204917047002102220291704700210D
:1033A00002910391704704926946484600F0BCBA06
:1033B00001926946284600F0B7BA02210191002225
:1033C0007047022102920090019103910B227047F5
:1033D00000900222049101926946284600F0A4BAA6
:1033E0000322049103926946504600F09DBA04916D
:1033F00001926946484600F097BA6946304600F0A7
:1034000093BA0092022101910022029203210391BA
:10341000704700900222049101926946204800F012
:1034200083BA04926946404600F07EBA01910022B8
:103430000491029203926946704703210090019122
:10344000002202926946704704926946134800F0D0
:103450006BBA0591059B026870470392694658460E
:1034600000F062BA009201210191002202920392BF
:103470006946704701926946074800F055BA000056
:103480008C0C024400180242001C0242001402424A
:1034900000080242000402420020024200100242E0
:1034A000000C0242000002420000111002920321AF
:1034B0000090039109220492694670474FF4E1316C
:1034C00010B500203E4C61603E4AA060E060206183
:1034D0000C21A061E06120626062A06222606161F3
:1034E000204600F0E5FA08B1FFF71CFD0021204658
:1034F00000F085FF08B1FFF715FD0021204600F020
:1035000089FF08B1FFF70EFD204600F05BFF18B100
:10351000BDE81040FFF706BD10BD10B5C8B00446A9
:103520001421002201A800F0E7F94FF48471002271
:1035300006A800F0E1F92368224A934233D104201F
:103540000021CDE906011F9106A8FCF77FFE08B116
:10355000FFF7E8FC1C48016941F480210161016921
:1035600001F480210091009A0168022241F00201D9
:103570000160006800F00200009000994FF4406084
:10358000002103910491072101900591029201A964
:103590000E4800F0C9F9002205213C20FFF7CAFBC4
:1035A0003C20FFF7F1FB48B010BD01B54FF0FF33F1
:1035B00001226946024800F0BFFA009802BD0000EF
:1035C0009C2B0020004800408C0C02440004024266
:1035D00070B50E461446002504E0705D00216D1C98
:1035E000FFF7E3FFA542F8DB204670BD002180B560
:1035F00038484160384B00224FF4804103608260BC
:10360000C1600261426100F057FF18B1BDE801409E
:10361000FFF788BC01BD10B5C8B0044614210022D4
:10362000684600F069F94FF48471002206A800F0A2
:1036300063F92368284A93424AD14FF4800000215D
:10364000CDE90601399106A8FCF700FE08B1FFF7A5
:1036500069FC2248816841F400618160816801F45D
:1036600000610591059B0268002342F00802026098
:10367000016801F008010591059A016841F0040113
:1036800001600068022100F004000590059A019194
:10369000039104200C210090049102936946104884
:1036A00000F042F902210191039100200C214FF416
:1036B000F85202900491009269460A4800F034F9E9
:1036C000002205214F20FFF735FB4F20FFF75CFB61
:1036D00048B010BD302C0020008000468C0C024405
:1036E000000C02420008024280B5DFF85811086859
:1036F00002F06FF8012803D0BDE8014002F0F7B8EE
:1037000001BD10B50024EFF3058058B902F061F84F
:10371000012808D0EFF31080002804BFEFF31180D8
:10372000002800D00124204610BD80B5FFF7E9FF36
:1037300000B126E002F04DF8012802BFDFF80811C1
:103740000868002802D101220A6002BD1CE00000C6
:1037500080B5FFF7D6FF00B113E002F03AF8012878
:1037600002BFDFF8E4000168012909D10022DFF877
:10377000DC100A700223036001F09AFD002002BDF4
:1037800002E06FF0050002BD4FF0FF3002BDF8B55A
:10379000074684B000200E4614460390FFF7B1FFA1
:1037A00000283CD138003AD080221823002154B39D
:1037B000206800B10146A06918B1030004D0392B7C
:1037C00002D22579E80701D5002029E0606900B11F
:1037D0008208A568D4F80CC07DB1BCF15C0F1ED383
:1037E0002469002C18BF002819D000930295019479
:1037F0003346384601F03AFC10E0BCF1000F04BF3C
:10380000206900280BD103AC00930194334692B297
:10381000384601F05EFC012801D000200390039897
:1038200005B0F0BD38B500F00BF810B16FF005052C
:1038300004E0002514B1204601F01FFD284632BDEA
:1038400004465EE710E000E0902D00201FED00E050
:1038500038B5204C224600210FF21D001E4DFFF707
:1038600096FF286004F1240200210FF21900FFF7EF
:103870008EFF686031BD000080B50120FFF7D2FFE8
:10388000FBE7000038B5154C01224FF400712046CB
:1038900000F0F9F801224FF48071204600F0F3F8AF
:1038A0000F4D01220221284600F0EDF801221021DF
:1038B000284600F0E8F800BF0AA54FF40071204642
:1038C00000F0E6F8284602F0C5F84FF4FA70FFF76A
:1038D000A9FFF2E7B0840008882D002000200242F2
:1038E0000014024268656C6C6F204C4544312066C0
:1038F0006C61736865730A004018491C1CBFB1F104
:10390000010100F8012DF9D170470000024A516809
:1039100010784118516070470C00002000220F21E0
:103920006FF00100FFF706BA2DE9F04F02460B4693
:103930004FF0000CDFF86881DFF86891DFF868A1CC
:103940004FF00F0B98E0012000FA0CF0014000F05E
:1039500091805C68022C18BF122C14D14FEADC0451
:1039600002EB840EDEF820701E7C4FEA8C0404F01B
:103970001C040BFA04F506F00F06AF4306FA04F434
:103980002743CEF8207015681E794FEA4C070324B0
:10399000BC40E44306F003062540BE4035431560B5
:1039A0005D68012D18BF022D03D0112D18BF122DF7
:1039B0000FD19568DE682540BE4035439560556857
:1039C00025EA00005D68C5F3001505FA0CF52843EB
:1039D00050601D79986805F00305032D08BF012884
:1039E00006D0D568B8402C4040EA040EC2F80CE07E
:1039F0005868C0003ED54FEA9C005AF820604FEA54
:103A0000CC042A4D04F0180705EA92250BFA07F4B6
:103A1000A64305FA07F426434AF82060D9F800E0E7
:103A20005D68C84300EA0E0EEC0248BF41EA0E0E84
:103A3000C9F800E0D9F804E05D6800EA0E0EAC02B7
:103A400048BF41EA0E0EC9F804E0D8F804E05D680A
:103A500000EA0E0EAC0348BF41EA0E0EC8F804E0BF
:103A6000D8F800E05C6800EA0E00E40348BF0843B1
:103A7000C8F800000CF1010C196831FA0CF07FF461
:103A800062AFBDE8F08F0AB1816170478162704713
:103A9000436901EA0302994341EA024181617047A7
:103AA0008020024400200244602002447F7F2F00D7
:103AB00038B5040001D1012032BD04F184056868E5
:103AC00008B900F017F800F00CF808B100F028F879
:103AD00000F023F8012803D0216800F024F80EE05C
:103AE00032BD2420686020680168490849000160EF
:103AF000A06A7047002129702046FFF70EBD88603C
:103B000000F004F8BDE8324000F042BB21680868CC
:103B100040F00100086020467047204600F0EEB9F2
:103B2000204600F0D2BA486820F4904048602168EE
:103B3000886820F02A0070472DE9F843064606F110
:103B40005407786B0C4615469846202849D10CB18D
:103B5000280001D1012045E0306881680A0603D5BC
:103B6000816821F0800181600021F9632120786360
:103B7000FEF77EF93D807D80B168B1F5805F04BFBE
:103B8000316900291ABF21464FF00009A1460546B8
:103B90000C4612E000228021304600F057FBE0B9CD
:103BA0003068002C12BF14F8011B39F8021BC1F356
:103BB000080181627988481E78807888CDF8008075
:103BC0002B460028E6D100224021304600F03EFB83
:103BD00018B920207863002004E0202078630320B7
:103BE00000E00220BDE8F28342E8001000287047A0
:103BF0002DE9F0410546D5F800C0DCF81C2040F660
:103C00000F0760460668DCF8083005F15C0406F032
:103C1000200002F020013A420DD1002913D010B942
:103C2000D80040F19880A169002900F04F81284612
:103C3000BDE8F0410847DFF8E8763B4204BFDFF813
:103C4000E4E616EA0E0F00F086805FEAC27E48BF07
:103C50005FEAC65809D54FF0010ECCF820E0D4F841
:103C600034C04CF0010CC4F834C05FEA827C48BF19
:103C70005FEAC3780BD5D5F800E04FF0020CCEF820
:103C800020C0D4F834C04CF0040CC4F834C05FEA4F
:103C9000427C48BF5FEAC3780BD5D5F800E04FF00F
:103CA000040CCEF820C0D4F834C04CF0020CC4F898
:103CB00034C05FEA027C0ED5002808BF3B420AD020
:103CC0002F684FF0080CC7F820C0D4F834C04CF06F
:103CD000080CC4F834C0120509D5770107D52A6845
:103CE0004FF400661662666B46F020066663626BF0
:103CF000002A2FD031B108B9D80003D5A16909B184
:103D000028468847606B29688A68510602D410F0FB
:103D1000280F1AD0284600F0E4FA2868816848067F
:103D20000ED5606A60B10FF23561C166606A01F05C
:103D3000EBFE00280ED0606AC16EBDE8F041084776
:103D40002846BDE8F04101F0F4BE284601F0F1FE3E
:103D500000206063BAE02069012879D1D10677D5C7
:103D6000F00675D51021CCF82010286821888268CB
:103D7000500635D5626A1068806C80B238B38842CC
:103D800025DA6080106D81281AD0296851E8001F5B
:103D90002A6821F48071FFF727FFF6D12A6800F026
:103DA000A2F8FBD1202020630021216100F096F8C9
:103DB00022F0100200F08EF8F8D1606A01F05EFE89
:103DC0000220606121886088091A89B206E0884271
:103DD00004BF106D812879D102226261284633E048
:103DE00062886088891A00281CBF88B200286DD0BC
:103DF0002A46106850E8005F034625F4907543E8B2
:103E000000500028F5D1106800F1080656E8006F50
:103E100000F10803DFF81005064043E800600028C1
:103E2000F1D12020206300232361A361136853E8AC
:103E3000003F156823F0100345E800300028F5D155
:103E40000220606189B21046BDE8F04101F072BE07
:103E5000D1020AD5580208D54FF48011CCF82010B1
:103E60002846BDE8F04101F066BE100609D53106CE
:103E700001D4180205D5E16941B32846BDE8F041F7
:103E80000847500610D571060ED500F027F822F02D
:103E9000400200F01FF8F8D12021E162E0612846DD
:103EA000BDE8F04101F048BE110206D5700004D50E
:103EB0002846BDE8F04101F040BED00148BF002EC9
:103EC00004D52846BDE8F04101F038BEBDE8F081D8
:103ED00042F4807241E8002000287047286850E8CA
:103EE000002F0146704702F1080151E8001F083217
:103EF0004908490042E8001000287047F8B5054617
:103F00002A68DFF87C0400241368A9680340286944
:103F10000B4369690343E8690B430343136051682A
:103F2000E868DFF8603421F4405101435160AE6924
:103F3000DFF854149A421EBF8A42286A06439768E3
:103F4000DFF8480407403E439660D66A686ADFF8A7
:103F50004074360940EA0616BA42D6620FF20846A5
:103F60001ED10120EA6900214FF6F077B2F5004F2B
:103F700040F08780FDF7AAF8002810D000F09EF8E6
:103F80004A0802EB4002B2FBF1F0A0F11001B94285
:103F900073D207402968C0F342000743CF6082E034
:103FA000DFF8F003824208BF0220DBD0DFF8E8032D
:103FB000824208BF0420D5D0DFF8E003824208BF68
:103FC0000820CFD0DFF8D803824208BF1020C9D024
:103FD000DFF8D003824208BF2020C3D0DFF8C80337
:103FE000824208BF4020BDD0DFF8C003824208BF34
:103FF0008020B7D0DFF8B803824208BF4FF480704A
:10400000B0D0DFF8B003824208BF4FF40070A9D0EF
:10401000DFF8A403824208BF4FF48060A2D0DFF82B
:104020009C03824208BF4FF400609BD09A420EBFAF
:104030004FF4805000208A4294D10021FDF746F8C9
:10404000002830D0696A36F81120B0FBF2F66A68B1
:1040500002EB42039E4224BF1103B14222D3500817
:10406000002110EB0620DFF8587351EB1661002396
:1040700001F066FDA0F54076BE4213D22968C86003
:1040800011E0FDF723F870B100F018F800EB5100D3
:10409000B0FBF1F0A0F11001B94203D22A6880B25E
:1040A000D06000E0012405F1680001210023418077
:1040B0000180C36003612046F2BD00006A6A69683E
:1040C00036F81230B0FBF3F0704790F82820110753
:1040D00006D502685368816B23F400430B43536099
:1040E00090F82820D10706D502685368C16A23F4E6
:1040F00000330B43536090F82820910706D50268DF
:104100005368016B23F480330B43536090F82810FD
:104110004A0706D502685368416B23F480230B439A
:10412000536090F82820D10606D502689368C16BC9
:1041300023F480530B43936090F828108A0606D529
:1041400003689A68016C22F400520A439A6090F85E
:104150002820510610D502685368416C23F480135F
:104160000B435360436CB3F5801F05D15368816CDA
:1041700023F4C0030B43536090F82820110606D5A2
:1041800002685168C06C21F40021014351607047FE
:10419000F8B5044604F184050020E860FDF768FEE8
:1041A000216806466FF07E470868020712D500971F
:1041B000334600224FF40011204600F047F848B182
:1041C00000F03FF800F037F8FAD1202068600021B5
:1041D000297024E020680268510722D500973346F1
:1041E00000224FF48001204600F030F8C8B100F002
:1041F00028F821F49071FFF7F7FCF8D1216801F15C
:10420000080353E8001F20684908490000F108022C
:10421000FFF7EAFCF2D12020A86000222A700320D8
:10422000F2BD202169602020A8600021E166002005
:1042300020672970F2BD21F0800142E800100028BB
:104240007047206850E8001F024670472DE9F04192
:1042500005460E4690461F46069C2968C8693040B0
:10426000B0420CBF01210021414538D114F1010FAA
:10427000F3D0FDF7FDFDC01B844200D314B9032029
:10428000BDE8F0812A6811684807E6D5802E18BF7E
:10429000402EE2D01146C869010704D41046C16916
:1042A0000805DAD50DE02968082228460A6200F0E0
:1042B00018F805F184000821C16000220270012075
:1042C000DEE74FF4006110460162284600F009F86D
:1042D00005F184002022C26000210170CFE7002098
:1042E000CEE710B500F022F8FCD100F00BF8FCD1BD
:1042F000C26E00F025F82021C0F88C100022C266A2
:10430000426710BD026802F1080151E8004F0649FA
:1043100008320C4042E800410029704700000000CC
:104320000100001020010004FEFFFFEF016851E8CA
:10433000003F0A4623F4907342E800310029704799
:10434000012A09D1016851E8003F0A4623F0100311
:1043500042E800310029F5D170470000C06D00210E
:10436000A0F85E1001F0E5BB0100020004000600A9
:1043700008000A000C00100020004000800000012E
:10438000F369FFCF0024004400240054FFF4FF1120
:10439000003801400044004000480040004C00400C
:1043A000005000400064004000780040007C004065
:1043B0000080004000680040006C00400084004025
:1043C00000FD0F0010B500F184010A78012A01D127
:1043D000022010BD01230B7024224A600468226869
:1043E00023685B085B00236000244466006822F0B9
:1043F0000052202302604B600C70002010BD70B58D
:1044000000F01FF801D1022070BD00F020F820F06C
:10441000604009E070B500F014F801D1022070BDD1
:1044200000F015F820F0606001439160204600F034
:104430001BF820682022002106606A602970002095
:1044400070BD044604F184052878012870470122D4
:104450002A702420686022681668106840084000AE
:10446000106022689068704730B5416E11B9012420
:10447000012114E0026800BF0BA39168D2F8085034
:104480000BA2490E01F007016D0F5C5D5B5C555D91
:10449000515CE400DB0094FBF5F493FBF1F1683030
:1044A0004480018030BD00000101010307010000CC
:1044B000080402040801010178B585B004002BD07E
:1044C00004F13005287820B9002121762046FFF735
:1044D000A2F804212970204600F038F8E0B96946B6
:1044E000204600F06BFBB8B99DF810209DF8110034
:1044F000A968012907D1002A0ABF00284FF40070DB
:104500004FF4807002E00021A96200E0A862E16837
:10451000204600F033FC10B1012006B070BDFDF75D
:10452000A7FC0646204600F0FCFC042807D0FDF757
:104530009FFC00F00EFDF5D100F0ECFCEDE7002152
:1045400069600020E06201212970E6E72DE9F04171
:104550008CB0002500210646029503910495059133
:104560003368DFF85824934204D14FF48000FCF7FD
:10457000ADFD05463268DFF84804824205D14FF4AC
:1045800000000021FCF7A2FD054606F130042DB91C
:10459000012020704FF000616160E8E0DFF82474D2
:1045A000B5FBF7F702A91422069783B0684601F01D
:1045B0004BFB0EBC306801F053FB306801F069FB27
:1045C0001FB17F00B5FBF7F535B1DFF8FC03B0FB99
:1045D000F5F0401C01F0F4FD0020009080463068AA
:1045E00000254FF0805701F0D4FB00284DD13068F2
:1045F00001F0F4FBB0F1004F0ED1E560306801F03E
:10460000C8FB002841D1E068012810D130680021A2
:1046100001F0FDFBE8B90AE00120E060F6E700F0F8
:1046200094FC804600984FEAD875401C0090009991
:104630004FF6FF7081420ED26DB93068002101F053
:10464000E6FB10BB3068DFF86C1501F0EAFB0028D0
:10465000E5D038461BE00099814228BF4FF08070BA
:1046600015D20020A0605FEA480244BF0121A1608A
:104670000020ADF80000FDF7FBFB0546306801F0B7
:104680000FFB48B94FF0806074E00028F0D00122A1
:1046900022706168084371E0A068032846D0306842
:1046A00001F0D2FB002865D100F04FFCE06300F080
:1046B00068F820643068082101F008FB6064306805
:1046C0000C2101F003FBA064A06803282ED0BDF8E4
:1046D000000078B93068694601F0DDFB002849D157
:1046E000FDF7C6FB401B41F288318842EFD34FF003
:1046F00000403FE0A068032818D0BDF800106161B9
:104700003068090401F0B1FB002833D100F01DFC32
:10471000E06200F036F820633068082101F0D6FA34
:10472000606330680C2101F0D1FAA06300F029F831
:10473000000D206101A9304600F055F908B1384656
:1047400018E061693068090401F019FB90B930681C
:1047500000F00BFB50B13268DFF85C1491636168C4
:10476000012201436160227000B10120C0B20CB08F
:10477000BDE8F08101212170626810436060012072
:10478000F5E73068042101F0A1BA8F637268104325
:1047900070607047706840F000607060704705910D
:1047A0002868694601F095BA2DE9FC410546EF6A93
:1047B0002868416B0A0418D5390716D5A86A6E6AAD
:1047C000202811D30824286801F05DFA3070010A0E
:1047D000020C000E7170B270F070361D641EF2D1C2
:1047E000A86A6E622038A862E5E0416B05F13006E8
:1047F000DFF81C87CA054FD54FF4807181632968A3
:10480000DFF8480807F00304CA6B0240CA6329684E
:10481000C86B20F08050C8632968C86820F0400049
:10482000C860380715D517F0220F05D0286801F0A9
:104830007CFA08B100F0CAF8286801210022C0F80B
:1048400038803170EA62002C284622D101F0CCFC7D
:10485000B1E03A06FCD528680021002281622B686D
:1048600017F0220FDA622868016505D0286801F088
:104870005CFA08B100F0AAF8012030700021E9626A
:1048800017F0300F1CBF284601F0AEFC002C02D000
:10489000284601F0AAFC8EE0416B4A041FD5390777
:1048A0001DD5286AEE692028F5D3082416F8011BC7
:1048B0000091084616F8011B40EA0120009016F806
:1048C000011B40EA0140009016F8011B00F084F83B
:1048D000641EEBD1286AEE61203828626BE0416BE0
:1048E00011F03A0F59D0416B8A0703D5716841F036
:1048F00002017160416B0A0703D5716841F008013C
:104900007160416B8A0603D5716841F020017160C6
:10491000416BCA0603D5716841F010017160C0F89F
:1049200038802968C86B20F49D70C8632968C868FE
:1049300020F04000C8602868C16A41F40051C1629B
:104940002868C16841F08001C160286801F0EDF974
:1049500071680843706028684FF40061C26822F0F3
:104960008002C26028688163390704D50120307055
:104970000022EA620DE039061DD57068D8B12968B9
:104980000122C86B20F08050C863286800210165AF
:104990003270284601F02AFC0DE0426BD1000AD5A6
:1049A0004FF080528263B806284602D501F01FFC02
:1049B00001E001F01DFCBDE8F3810000008000462D
:1049C000008C004600350C0010210100716808437E
:1049D0007060284601F00ABC40EA01606946009018
:1049E000286801F051B930B500F13003DC6AA40F3A
:1049F0000C70DA6A920E02F00F024A70DA6A120E36
:104A000002F003028A70DA6A120CCA70DA6A120AB9
:104A10000A71DC6A4C711A6B4FF40074120DCA8073
:104A20001A6B120C02F00F020A721A6BD20B02F010
:104A300001024A721A6B920B02F001028A721A6B1F
:104A4000520B02F00102CA721A6B120B02F0010241
:104A50000A7300224A739A68002A40F08F801A6B0A
:104A600040F6FC7000EA82005A6B40EA92700861DE
:104A7000586BC00E00F007000875586B000E00F070
:104A800007004875586B400D00F007008875586B9B
:104A9000800C00F00700C875586BC00B00F00700D1
:104AA00008760869401C98619A690D7E012005F01E
:104AB0000705AD1C00FA05F56A439A610A7A02F00F
:104AC0000F0290409A69D861400A42431A62586BBB
:104AD0005C62800B00F001004876586BC00900F062
:104AE0007F00887693F8340000F07F00C876986BDA
:104AF000C00F0877986B400F00F003004877986B61
:104B0000800E00F007008877986B800D00F00F0092
:104B1000C877986B400D00F0010081F8200001F18A
:104B20002100002101709A6B120C02F00102427008
:104B3000996BC90B01F001018170996B890B01F030
:104B40000101C170996B490B01F001010171996B71
:104B5000090B01F001014171996B890A01F0030110
:104B60008171996B090A01F00301C1719A6BC2F35B
:104B70004601017201214172002030BD012A0ED18F
:104B8000186B5A6B000400F47C1040EA1240086174
:104B90000869DC61401C80029861186297E7006830
:104BA000054981635968012041F0805159601870AE
:104BB00030BD0000000010C1FF0FE01F2DE9F84FCD
:104BC000054696B005F1300738780E464FF0000ADA
:104BD000032808BF012022D0FDF74AF98046286843
:104BE00000210DF1180B01F071F8DFF878918001C8
:104BF00016D54FF400602A68C2F8389079680843E7
:104C0000786001203870824600F0AEF830B1296833
:104C1000C1F838907860012038708246504611E221
:104C20002868402101F06BF810B179687960E2E7FB
:104C3000796900F09FF80028F7D14FF0FF3240214A
:104C4000009201916022022102920391CDF810A0FE
:104C50000121FFF7A4FD286801F038F990B1E4E7DD
:104C6000416B080407D50824286801F00CF84BF8BC
:104C7000040B641EF8D1FDF7FBF8A0EB080010F15F
:104C8000010F22D02868416B11F4957FE8D0426B68
:104C9000110748BF0820AED4416B8A0748BF0220E5
:104CA000A9D4406B810648BF2020A4D42868426B59
:104CB000D1040DD500F0E7FF4BF8040BFDF7D8F851
:104CC000A0EB080010F1010FF0D14FF0004092E787
:104CD000DFF87C1381630698C0F38110307006986A
:104CE000C0F34010707006980699000A00F47F40E7
:104CF00040EA1160708006A84368190201F47F0140
:104D000041EA03611A0A02F47F42114341EA136146
:104D10007160816831728268120A72728168090D4D
:104D200001F00F01B1728368C1681B0C03F47F436B
:104D300001F0FF021343890AB38101F03F01B1730F
:104D4000C168090A01F00301F173C168C1F30311DD
:104D50003174017B01F00F0171740069000EB074B1
:104D600052E70000FF0FE01F28684FF4007100F0C9
:104D7000C6BF71692868090401F049B82DE9F043FC
:104D80000546884687B005F1300603213170B068CA
:104D90000024032818BFB8F5004F46D04FF08067B5
:104DA0004FF40069B8F5804F19D100940194286838
:104DB00000F0CCF8800148BF4F462ED46946284603
:104DC00000F0CBF840BB0199480326D5FFF7D1FF8F
:104DD000070022D12868022101F028F81CE0B8F170
:104DE000000F1ED1002100910191286800F06EFF94
:104DF000800148BF4F4610D46946284600F0ADF800
:104E000050B90199C80308D5FFF7B3FF070004D1D3
:104E10002868002101F00AF80746706807437760A8
:104E200007E0706840F0006002E0706840F0805079
:104E3000706029687068DFF81C7208B18F6359E0F0
:104E4000DFF81422914208BF4FF4800005D0DFF84C
:104E50000C2291424CD14FF400000021FCF736F9AE
:104E6000002845D06A680292A968CDF810800391A5
:104E70002A690592DFF8E8216969B0FBF2F29142F4
:104E80002AD2B36AB3F5007F26D0B3F5807F14D160
:104E9000DFF8CC2139B9904214D9DFF8C811B0FB42
:104EA000F1F0069019E04B00B0FBF3F3934213D9F5
:104EB000DFF8B011B0FBF1F10EE0DFF8AC3119B959
:104EC000984207D2069408E04FEA410EB0FBFEFE7E
:104ED0009E4501D3069200E0069102A983B0684680
:104EE000142200F0B1FE0EBC286800F0B9FE02E00A
:104EF000FFF750FC0124FFF737FF18B129680124A0
:104F0000FFF743FC01203070204607B0BDE8F08376
:104F10003A0F00184FF0004169600120287003200B
:104F2000704738B50446616C20680025090400F01C
:104F3000C3FF18B1616B0843606304E0206800F0B0
:104F400005F8C0F34325284632BD3068002100F043
:104F5000BDBE801B10F1010F7047F8B588B0074641
:104F60000D46FCF785FF002406460094019438683E
:104F7000082100F0C4FE002862D1796C3868FFF780
:104F8000FAFE00285CD14FF0FF3208210292039113
:104F9000302202210492059106940121079138687C
:104FA00002A900F096FE386800F042FF002847D1C1
:104FB000386840F22A51426B0A42416B12D10A030F
:104FC00008D43CB900F05FFE00903868012400F07E
:104FD0005AFE0190FCF74CFFFFF7BBFFE8D14FF002
:104FE00000402DE00A0748BF082108D4416B8A071A
:104FF00048BF022103D4416B8A0603D52021816377
:1050000008461DE012498163019A100200F47F00F6
:1050100040EA0260110A01F47F41084340EA12604D
:1050200028600099080200F47F0040EA0160090A44
:1050300001F47F410843009940EA11606860002054
:1050400009B0F0BD17B0BDE8F08F0000C53EFFFF0E
:105050003A0F0018FF0FE01F00800046008C00464A
:1050600080F0FA0200E1F50541787D012DE9F04379
:1050700085B00D9C06460F469046994614B901F03E
:10508000DFF8FEE70E9D15B901F0DAF8FEE75C20C7
:10509000009000995C2902D001F0D2F8FEE7009858
:1050A000284601F00FF902202C6385F859000C986E
:1050B000002204A903920191009002954B464246BA
:1050C0003946304600F036F8284600F073F8049868
:1050D0002DE02DE9F8430646174684B088469946E8
:1050E000B80001F0F3F804001FD05C2001F0EEF8E6
:1050F000050017D05C2101F0E5F800212C6385F84C
:10510000591003910D990C980191029500904B460E
:105110003A464146304600F00DF8284600F04AF87D
:10512000012004E0204601F053F94FF0FF3005B0B4
:10513000BDE8F0832DE9F8430A9C80460D46206BBC
:1051400017469946A522B90001F08CF9216B01EBB5
:105150008702171FFF08FF0065B100216B5C621812
:1051600082F83430685C10B1491C1029F6D3002055
:1051700084F84300089E382E02D301F061F8FEE760
:10518000099DE662E664201D01F096F904F118001D
:1051900001F092F92461C6F13806A661216B6462C0
:1051A0004B464246384600F0BFFB206005B12C60FC
:1051B000BDE8F1832DE9F04100F077F8DFF8C45540
:1051C000E86C1426DFF8C075401CE864E86B48BB47
:1051D000EC63E86C01282DD14FF0000806FB08F0C5
:1051E00008F10108384401F05AF9B8F1380FF5D345
:1051F00005F1780001F053F905F18C08404601F003
:105200004EF9284601F04BF905F1140001F047F979
:1052100005F1280001F043F905F178002864C5F88C
:10522000448007E0A86D28B9E06AEA6BD16A884239
:1052300028BFEC63AA6EE06A521C6264696D814209
:1052400038BF68654643AA66381D8059221DBB19C0
:1052500000F0CBFA6361B859401CB85100F036FB3E
:10526000A86D40B1E96BC86AE16A884203D2BDE823
:10527000F04100F015BBBDE8F08110B504000FD07F
:10528000DFF80015486F10B100F0DAFFFEE700F01C
:1052900045F80021204600F0B4FA00F045F818B9AE
:1052A000BDE8104000F0FCBA10BD044600F002BB9F
:1052B00010B586B000210591049103AA04A905A8A0
:1052C00001F02AF9059A049900200292039A0191AB
:1052D000009000230FA10FF26D40DFF8A844FFF704
:1052E000C5FE70B101F022F901280DD100F0A8FF30
:1052F0004FF0FF30E0660121A1650020206500F03D
:1053000047FB206F06B010BD10F1010FF9D100F07E
:1053100097FFFEE749444C4500000000DFF86414A5
:10532000486F401C48677047F8B5DFF85864706FE5
:105330000024002510B900F083FFFEE700F0BAFA60
:10534000706F401E7067706F002863D1F06C00288A
:105350004AD15FE0F068C468226AE169A06A8A60A5
:10536000E269216A4A60426804F118018A4204BF76
:10537000236A4360A5620168491E0160E168A36871
:1053800060699960A268E1684A604268211D8A42AA
:1053900004BFE268426065610168491E0160D4F89B
:1053A0002CC0706D604538BFC6F854C0142000FB97
:1053B0000CFCDFF8D403011D51F80C10231D00EB89
:1053C0000C07A1608A68E2608A6853608B6067613D
:1053D00050F80C10491C40F80C10F06BC16AE06AE0
:1053E00081423CBF0121316630680028B2D10CB146
:1053F00000F0E1F9F46D44B100F014F808B10120B7
:105400003066641EF8D10020F065306E10B10125C1
:1054100000F046FA00F05AFA2846F2BDDFF86403BD
:10542000006D7047F8B5DFF85C63706F00240028EA
:1054300040F08980356D6D1C35650ED1306C00688B
:1054400010B100F0FDFEFEE7316C706C30647164E9
:10545000706E401C706600F0AEF9F06E1422DFF83A
:105460002813854262D35AE0336CD868C368586801
:10547000854266D3DF68D3F808C05869CCF8087055
:105480009F68D3F80CE0CEF80470D0F804C01F1D5C
:10549000BC4504BFDF6847604FF0000EC3F814E05E
:1054A00007687F1E0760986AC8B1D3F820C0DF691B
:1054B000C7F808C0D3F81CC01F6AC7F804C0D0F8EA
:1054C00004C003F11807BC4504BF1F6A4760C3F856
:1054D00028E0D0F800C0ACF1010CC0F800C0DF6AD1
:1054E000706DB84238BF77655743081D03F1040E4D
:1054F000C0599860D0F808C0C3F80CC0D0F808C0F4
:10550000CCF804E0C0F808E0C8195861C859401C3C
:10551000C851F76BDB6AF86A984238BF0124306CD7
:1055200000680028A0D14FF0FF33F366F06BC06A2B
:1055300042438958022928BF0124306E30B101242A
:1055400004E0F066F2E7F06D401CF0652046F2BD25
:1055500010B5DFF83022506F10B10121116610BD77
:105560001066506DDFF80C4300E0401E14234343E7
:105570002344196821B90028F7D100F061FEFEE745
:1055800059684C6803F108015C608C4204BFDC6818
:105590005C605B68D968D163506510BD10B50C467E
:1055A00010B900F04DFEFEE7DFF8D821D16B1831BD
:1055B00000F085FF20460121BDE8104000F021B930
:1055C000F8B50B4610B900F03BFEFEE741686D4CA4
:1055D000E56BE9618E68E56B2E62E76B8D6807F11C
:1055E00018066E60E66B06F118058D6000F009F88C
:1055F0000AB14FF0FF3311461846BDE8F44000F001
:1056000000B9E46BA0620168491C01607047F8B5FD
:10561000C068C06810B900F013FEFEE7036AC269F3
:10562000816A9360C369026A53604B6800F1180293
:10563000934204BF036A4B600A680023521E0A604B
:10564000504A516F41BBC56884684169A56085684F
:10565000C46865604D68041DA54204BFC5684D60FF
:1056600043610C68641E0C60C46A516DA14238BF6E
:10567000546514214C43DFF8FC110D1D2D59071DF5
:105680008560AE68C660AE687760AF600D19456131
:105690000D596D1C0D510CE0516800F11803C161EA
:1056A0008C6804628C6863608B6011681346491CC7
:1056B00011608362D36BC06AD96A814203D201212F
:1056C00001201166F2BD0020F2BDDFF8AC21516E61
:1056D0000160126D42607047F8B504000D4602D1BA
:1056E00000F0AEFDFEE715B900F0AAFDFEE700F000
:1056F000E1F8DFF88401D0F850C061682B68ACEBAA
:10570000010213F1010F11D0466E2768BE4205D089
:105710008C4503D30020012428600CE09A4207D274
:105720009A1A2A60416E2160006D6060002402E0D8
:105730000020286001245FE00121DFF83C010166C0
:105740007047000070B5104CDFF82C5111E000F0EC
:10575000B1F8286AC668301D00F0CAFEE86C401E29
:10576000E864A86C401EA86400F0B0F8304600F071
:105770000DF8A86C0028EAD121680229F9D300F0BD
:105780008FF8F6E71C0000205821002010B50446D1
:1057900094F8590040B9206B00F01AFE2046BDE88D
:1057A000104000F015BE10BD0128F7D00228FAD035
:1057B00000F046FDFEE7DFF8C010086C006818B97D
:1057C0004FF0FF32CA6670470B6CDA681068C86623
:1057D0007047DFF8A410886D08B901207047486F42
:1057E00008B90220704700207047A0608168E1601E
:1057F00081684A608260704700F068F82046F2BD18
:105800000000F8B51C4E0C46376DF16B0546081DBF
:1058100000F06EFE15F1010F15D1A4B1F06AF16B25
:1058200088608268F16BCA60F36B81681A1D4A60F8
:10583000F36B06F128011A1D8260F06B4161B16AB9
:10584000491CB162F1BDF06BED19BD424560F06BD2
:1058500005D2011D706CBDE8F44000F030BE011DA2
:10586000306C00F02CFEF06E854238BFF566F1BD5D
:1058700000000000582100201C00002080B50020FE
:1058800000907049486810F1010F02D000F0D8FC78
:10589000FEE700F0D5FC00980028FCD001BD000018
:1058A0004FF0805168480160BFF34F8FBFF36F8F97
:1058B0007047000080B500F0C3FC62494868401C96
:1058C0004860BFF34F8FBFF36F8F01BD80B55D4957
:1058D000486810B900F0B4FCFEE74868401E486014
:1058E000486818B9BDE8024000F0B5BC01BD10B56C
:1058F00000F0A6FC0446FFF795FD18B14FF080516B
:10590000514801602046BDE8104000F0A4BC80B5BD
:10591000816911F8020C662803D1BDE8014000F04E
:1059200069BC00F08DFCFEE730B5A0F14404E263F1
:10593000464AA2634FF0033222634FF00132A26263
:1059400063624FF080754FF010334FF009322564D9
:10595000E361A2614FF012354FF008334FF0073288
:105960006563636122614FF002354FF006334FF0FB
:105970000532E562E360A2604FF011354FF0043369
:105980006FF0430225626360226040F8481D30BD1D
:105990001FB5002101912E490A684FF07F43294C21
:1059A00002920B600868000E8DF800009DF8002040
:1059B00012F05002227002D100F042FCFEE79DF886
:1059C0000000C04310F0500F09D000F039FCFEE792
:1059D000401C01909DF8000040008DF800009DF8EB
:1059E000000002060198F3D408280FBF0020019898
:1059F000C0F10700000200F4E060A060029A0A60B3
:105A0000486840F47F004860486840F07F40486044
:105A100000F0ECFE0020606000F006FCFFF798FD4F
:105A200000200090616811F1010F02D000F008FC25
:105A3000FEE700F005FC00980028FCD0002004B030
:105A400010BD00000000002004ED00E07D580008BB
:105A50001CED00E00EB41EB5024605A8019000241E
:105A6000009401AB0121044878440C3000F0D5FECD
:105A700003B010BC5DF810FBE92B000070B50446C4
:105A8000FCF7F6F906462CB304F14C05287A0228F7
:105A900002D02021E9601BE02168486940F0040041
:105AA00048610521297220680269910414D4FCF729
:105AB000DFF9801B0628F6D3E868032140F01000C8
:105AC000E86029722879010602D5A96A01200873C5
:105AD00000202870012070BD4169042241F00201BC
