:020000040800F2
:10000000B02F00208D3000087530000877300008D0
:10001000793000087B3000087D300008B1300008DE
:10002000000000000000000000000000F5250008AE
:100030007F30000800000000B12500082D180008DE
:10004000B5300008B9300008BD300008C1300008E4
:10005000C5300008C9300008CD300008D130000894
:10006000D5300008D9300008DD300008E130000844
:10007000E5300008E9300008ED300008F1300008F4
:10008000F5300008F9300008FD30000801310008A3
:1000900005310008093100080D3100081131000850
:1000A00015310008193100081D3100082131000800
:1000B00025310008293100082D31000831310008B0
:1000C00035310008393100083D3100084131000860
:1000D00045310008493100084D3100085131000810
:1000E00055310008593100085D31000861310008C0
:1000F00065310008693100086D3100087131000870
:100100007531000879310008813000087D31000820
:100110008131000885310008893100088D310008DF
:100120009131000895310008993100089D3100088F
:10013000A1310008A5310008A9310008AD3100083F
:10014000B1310008B5310008B9310008BD310008EF
:10015000C1310008C5310008C9310008CD3100089F
:10016000D1310008D5310008D9310008DD3100084F
:10017000E1310008E5310008E9310008ED310008FF
:10018000F1310008F5310008F9310008FD310008AF
:100190000132000805320008093200080D3200085B
:1001A0001132000815320008193200081D3200080B
:1001B0002132000825320008293200082D320008BB
:1001C0003132000835320008393200083D3200086B
:1001D0004132000845320008493200084D3200081B
:1001E0005132000855320008593200085D320008CB
:1001F0006132000865320008693200086D3200087B
:100200007132000875320008793200087D3200082A
:100210008132000885320008893200088D320008DA
:100220009132000895320008993200089D3200088A
:10023000A1320008A5320008A9320008AD3200083A
:10024000B1320008B5320008B93200082DE9F84390
:10025000050032D0DFF8A068F469B76A287804F0A6
:10026000180407F00307C1060FD5082C03D0182C7B
:1002700008BF022F43D1E86900281ED0B069296A5F
:1002800020F47C1040EA0140B0612878C10708D50D
:10029000102C03D0182C08BF032F51D168680028F8
:1002A0000BD02978880740F19C8024B1182C08BF16
:1002B000012F40F0AE80E868002800F001828CB980
:1002C0002869316801F0180181420BD0326822F0B0
:1002D00018021043306000F0CEFB00F01EFA002838
:1002E00040F0EE8100F02AFC07463068810771D4A7
:1002F00000F024FCC01B0328F7D30320B8E1E86911
:1003000070B1316841F4807100F012FA80463068B3
:100310008105B3D400F012FC00F0FBF9F7D3ECE751
:10032000306820F48070306000F008FC804630684F
:100330008105AAD500F002FC00F0EBF9F7D3DCE769
:100340006868B0F5803F19D040B9306820F480303B
:1003500000F0E8F9306820F4802012E0B0F5A02F1A
:1003600004D100F0E8F921F4801106E0B0F5A81FEF
:1003700009D100F0E0F941F480113160306840F4B7
:100380008030306008E0316821F4803131603068BD
:1003900020F4802000F0C6F9686868B100F0CEFB58
:1003A0008046306881033FF57CAF00F0C7FBA0EBCF
:1003B00008006528F5D3A0E700F0C0FB8046306850
:1003C00081037FF56EAF00F0B9FBA0EB0800652854
:1003D000F5D392E73069696920F4FE0040EA0140F4
:1003E00030612878DFF82877010749D5A869002807
:1003F00036D0396841F08061396000F09FFB80465B
:10040000386801013CD400F099FB00F082F9F7D381
:1004100073E7E868A0B13168286921F01801014349
:100420003160316841F0010100F082F9074630681F
:100430008107CFD400F082FBC01B0328F7D35CE711
:10044000306840084000306000F078FB07463068B4
:100450008107C6D500F072FBC01B0328F7D34CE719
:10046000386820F08060386000F068FB80463868AB
:10047000010105D500F062FB00F04BF9F7D33CE732
:100480002878410760D5DFF88C86D8F80000C107CE
:1004900013D4D8F8000040F00100C8F8000000F0C4
:1004A0004DFB8146D8F80000C10706D400F046FB9A
:1004B000A0EB09000328F5D31FE7A868012817D08F
:1004C00040B938684008400000F017F9386820F05B
:1004D000040010E0052804D100F015F921F0800196
:1004E00005E0852809D100F00EF941F0800139605E
:1004F000386840F00100386008E039684908490070
:100500003960386820F0040000F0F7F8A86841F27C
:10051000893860B100F012FB81463868810713D436
:1005200000F00CFBA0EB09004045F6D3E5E600F037
:1005300005FB81463868810706D500F0FFFAA0EB7D
:1005400009004045F6D3D8E62878810620D5686AA8
:1005500070B1316841F4805100F0EAF80746306824
:10056000810415D400F0EAFAC01B0328F7D3C4E6CF
:10057000306820F48050306000F0E0FA07463068C0
:10058000810405D500F0DAFAC01B0328F7D3B4E6DE
:10059000A86A00286BD0182C6CD00228306820F094
:1005A0008070306052D100F0C9FA04463068810191
:1005B00005D500F0C3FA001B0328F7D39DE6B06A07
:1005C000EA6ADFF854150840296B104340EA01201D
:1005D000B062A96B686B491E4902401EC0F3080057
:1005E00001F47E410843E96B491E090401F4FE0150
:1005F0000843296C491E090601F0FE410843706357
:10060000B06A20F01000B06200F070F8B062B06A1A
:10061000696C20F00C000843B062B06AA96C20F04D
:1006200020000843B062B06A40F48030B0623168A4
:1006300041F0807100F07CF804463068810116D4E6
:1006400000F07CFA001B0328F7D356E600F076FA98
:1006500004463068810105D500F070FA001B0328BC
:10066000F7D34AE6B06ADFF8B4140840B06200205D
:10067000BDE8F283B26A716B012821D0EB6A02F007
:100680000300984202BFC2F305202A6B904217D1A3
:100690006A6BC1F30800401C904201BFC1F34620C1
:1006A000401CAA6B90420BD1EA6BC1F30640401C80
:1006B000904201BFC1F30660401C296C884201D002
:1006C0000120D5E7B06BE96CC0F3CC008842CED0F6
:1006D000B06A20F01000B06200F030FA044600F07A
:1006E0002DFA001BFBD000F001F8BFE7E86CC0005A
:1006F000B063B06A40F0100070473860396821F08C
:10070000800139607047386840F00400386039680B
:100710007047A0EB080003287047DFF80404006866
:1007200000F012BA3060316821F4801131607047F6
:10073000316000F003BA306840F4802030603168E6
:1007400070472DE9F8430400894640D0DFF8A063E4
:1007500000F0D1F802D200F0C9F838D12078DFF8E3
:100760009853C10604D500F0BBF8814200F0DEF8D2
:100770002078010704D500F0ADF8814200F0CEF8F2
:100780002078410706D5E068296A01F070018142AE
:1007900000F0BDF82078810706D5A068296A01F02D
:1007A0000F01814200F0ACF82078C1074FD5606896
:1007B000032802D129688A0108E0022802D12968A9
:1007C0008A0303E00128296802D18A0502D450E097
:1007D0008A074ED5E96941F28938890840EA8100E3
:1007E000E86100F0ABF90746606803280BD1E869BF
:1007F00000F0180018282AD000F0A0F9C01B4045CE
:10080000F5D3032064E002280AD1E86900F018005B
:1008100010281CD000F092F9C01B4045F5D3F0E73A
:1008200001280AD1E86900F0180008280FD000F06C
:1008300085F9C01B4045F5D3E3E7E86910F0180FD0
:1008400005D000F07BF9C01B4045F6D3D9E72078EE
:10085000810706D5A068296A01F00F01884200F0DF
:100860004FF8306800F00F00814504D200F03EF8E8
:1008700001D001202CE02078410706D5E068296AE4
:1008800001F07001884200F042F82078010704D599
:1008900000F020F8884200F041F82078C10604D525
:1008A00000F01EF8884200F041F800F047F82A6A8C
:1008B000DFF87012DFF8503202F00F02895CC84096
:1008C0001860DFF85C020068BDE8F24300F03CB954
:1008D000BDE8F2832069296A090901F070017047B7
:1008E0006069296A090A01F07001704731680909D5
:1008F00049EA01113160306800F00F004845704747
:1009000004D2296A090940EA01102862704704D21A
:10091000296A21F0700108432862704705D2296ACC
:1009200021F4E06141EA00112962704705D2296A89
:1009300021F4E04141EA00212962704730B56E4B55
:10094000D86900F01800082801D1784830BDD9696D
:100950006E4811F0180F07D119688A0603D5196877
:10096000C1F3C101C84030BDDA6902F01802102A93
:1009700001D16F4830BDD96901F01801182972D131
:100980009C6A996A9A6AC2F300159A6BC1F30521B1
:10099000C2F3CC02554300EE105AB8EE400A0029CB
:1009A00060D000EE901A04F00304F8EE600A012C07
:1009B00002D0032C22D031E019689FED4E1A20EEB0
:1009C000010A8A060AD51968C1F3C101C84001EEBF
:1009D000100AB8EE411AC1EE200A03E09FED472A43
:1009E000C2EE200A586BF7EE001A00F03DF831EE27
:1009F000000A70EE211A20EEA10A24E0586BDFED08
:100A00003D1A9FED3F2A00F02FF800EE211AB7EEB5
:100A1000000AC2EE200A31EE000A12E0586B9FED88
:100A2000391AC1EE200AC0F3080001EE900AF8EE70
:100A3000611A9FED301A40EE011AB7EE000A31EE4E
:100A4000800A20EE800A586BC0F34620401C00EE5E
:100A5000900AF8EE600A80EE200ABCEEC00A10EEA2
:100A6000100A30BD002030BDC0F3080001EE100AAE
:100A7000B8EE411A704780B5FFF760FF2D4909684D
:100A8000284A01F00F01515C1F4A01F01F01C840C4
:100A9000106002BD80B5FFF7EEFF00F008F8C3F369
:100AA0000212FFE7895C01F01F01C84002BD214A24
:100AB00013682149704710B51F2202601A4A136853
:100AC00003F003034360526802F00F0383601309CD
:100AD00002F07004120A03F0700302F07002C460A6
:100AE000036142610248026802F00F020A6010BD11
:100AF0000020024000000039000C02440024744C25
:100B000020BCBE4B0024744A180000200090D00383
:100B1000F00C024424080244FCC0FFFFFCFFF8FF75
:100B200014000020382F00081C0C024400093D006E
:100B300040787D01200C0244A8300008014840683C
:100B4000704700BF0C00002070B5044688B01F48F5
:100B5000016841F020010160006801A900F0200057
:100B60000090009A02A8FFF7A6FF059810B9FFF7BA
:100B700091FF02E0FFF78EFF4000154BB0FBF3F052
:100B8000144D15492960401E632268600021EA6007
:100B90002961A960284600F023F806000FD12846F5
:100BA00000F02BF806000AD1102C07D200222146B3
:100BB000322000F07EFA0948046000E0012632206D
:100BC00000F09EFA304608B070BD00009C0C024454
:100BD000A08601001C2B00200014004014000020FF
:100BE00038B5040001D1012032BD00F099F818B9E0
:100BF00000F06AF900F0C2FA5DE090F83D100129BA
:100C000001D001207047022180F83D100168CA68B8
:100C100042F00102CA600168DFF8C82091421CBF9F
:100C2000DFF8C430994235D0B1F1804F18BFB1F12F
:100C3000A04F2FD0DFF8B42091421CBFDFF8B030B6
:100C4000994227D0DFF8AC2091421CBFDFF8A830D2
:100C500099421FD0DFF8A42091421CBFDFF8A030DA
:100C6000994217D0DFF89C2091421CBFDFF89830E2
:100C700099420FD0DFF8942091421CBFDFF89030EA
:100C8000994207D0DFF88C2091421CBFDFF88830F2
:100C9000994209D18A68DFF884101140062918BFEB
:100CA000B1F5803F05D001680A68084642F00102AC
:100CB000026000207047022068702068211D00F04B
:100CC00007F9012028730121A970E8702971687162
:100CD000A971E87129726872A972E87269700020BE
:100CE00032BD0000002C0140002C015000040040E7
:100CF000000400500008004000080050000C0040B4
:100D0000000C005000340140003401500018004035
:100D10000018005000400140004001500700010051
:100D200004F13C056878704770B504462068C568D2
:100D30000669B10714D5AA0712D56FF00201016147
:100D400001222277806910F0030F204602D000F0C4
:100D500016FA03E000F014FA00F0B3F80020207750
:100D6000700715D5690713D520686FF004020221BA
:100D700002612177806910F4407F204602D000F0A4
:100D8000FEF903E000F0FCF900F09BF8002020776A
:100D9000300715D5290713D520686FF00802042104
:100DA00002612177C06910F0030F204602D000F0E5
:100DB000E6F903E000F0E4F900F083F80020207782
:100DC000F00615D5E90613D520686FF0100208214A
:100DD00002612177C06910F4407F204602D000F004
:100DE000CEF903E000F0CCF900F06BF8002020779A
:100DF00006F0010105F00100014206D020686FF005
:100E000001010161204600F034FA16F4025F08D0B7
:100E1000280606D522686FF402512046116100F0C1
:100E200037FAF00508D5290606D522686FF48070D8
:100E30001061204600F02DFA700608D5690606D527
:100E400022686FF040001061204600F023FAB006DF
:100E500008D5A90606D522686FF02000106120464B
:100E600000F019FAF00208D5E90206D522686FF4FD
:100E700080101061204600F00FFAB00208D5A902D8
:100E800006D522686FF400101061204600F005FAC4
:100E9000700208D5690206D522686FF480001061DF
:100EA000204600F0FBF930020AD5290208D5226855
:100EB0006FF4000010612046BDE8704000F0EFB90B
:100EC00070BD204600F0ECB9002129702046704723
:100ED0002DE9F04FDFF868B10768DFF86831DFF817
:100EE0006841DFF86821DFF868C1DFF868E1DFF802
:100EF0006881DFF86891DFF868A1DFF8685158452C
:100F000018BFA84215D0B0F1804F18BFB0F1A04F64
:100F10000FD0504518BF48450BD0404518BF70450D
:100F200007D0604518BF904203D0A04218BF984236
:100F30001AD127F070064F683743584518BFA842AA
:100F400043D0B0F1804F18BFB0F1A04F3DD0504515
:100F500018BF484539D0404518BF704535D0604569
:100F60001CBF9042A04230D098421CBFDFF8F8204E
:100F700090422AD0DFF8F42090421CBFDFF8F02026
:100F8000904222D0DFF8EC2090421CBFDFF8E8202E
:100F900090421AD0DFF8E42090421CBFDFF8E02036
:100FA000904212D0DFF8DC2090421CBFDFF8D8203E
:100FB00090420AD0DFF8D42090421FBFDFF8D02043
:100FC0009042DFF8D020904203D127F44072CF68DE
:100FD00017434A6927F08007174307608F68584511
:100FE000C7620A68826218BFA8421BD0A04218BF1D
:100FF000984217D0DFF8883098421CBFDFF8842071
:1010000090420FD0DFF8803098421CBFDFF87C2080
:10101000904207D0DFF8783098421CBFDFF8742088
:10102000904201D109690163012242610169CA0745
:1010300003D50169490849000161BDE8F08F00004E
:10104000002C01400034015000340140000C0050DD
:10105000000C004000080050000800400004005050
:1010600000040040002C01500018004000180050FF
:10107000001C0040001C00500020004000200050D8
:101080000040014000400150004401400044015034
:101090000048014000480150314B19684FF6FF02EB
:1010A0000002114000F4E06008432E490843186034
:1010B000704770B52A4B1C68C4F302230124C3F1A6
:1010C0000705052D2EBF0F2504FA05F56D1E1E1D03
:1010D000072E34BF0023DB1E2940994004FA03F396
:1010E0005B1E1A4011430901020002D41E488154BC
:1010F00070BD1E4B02F00F021A4402F8041C70BDB2
:10110000010007D4012200F01F018A40184B40095A
:1011100043F82020704700001749164A04281ED8BB
:10112000DFE800F00811141D0300106840F004000F
:1011300010607047136823F004031360086820F000
:101140000C00086070471368012001E0136802205A
:1011500023F0040313600A6860F383020A60704797
:101160000CED00E00000FA0500E400E018ED00E0FE
:1011700000E100E010E000E0E40C0244704770473A
:10118000704730B5016884684218416802EB51032A
:10119000C90703D54C4401E0491C08D19A4218BF45
:1011A00012F9011B01D10C3030BD12F8015B00298E
:1011B00004F8015BF0D4491EF7D5EFE780B500F0E5
:1011C00071F800F009F800F08FF800F050FB00F023
:1011D000E1FB00F05FFBFEE700B59BB05022002171
:1011E00007A800F0EAFB1822002101A800F0E5FBA7
:1011F0002348016841F030010160026802F03002CA
:101200000092009942681107FCD5012207924FF421
:10121000A811022208911192032105221291139222
:10122000642102221491159216921792082100222D
:10123000189119921A9207A8FFF708F808B100F060
:1012400025F81F21019100210322039104910591AA
:1012500006910292052101A8FFF773FA08B100F088
:1012600015F808480268022161F3051202601BB0FC
:1012700000BD00680449884208BF00F0A9BB704760
:1012800010080244002002400014004072B6FEE73D
:101290007047704770477047704770477047704796
:1012A0007047000080B50320FFF7F6FEFFF746FB0E
:1012B0000A4A13680A490B4A03F00F03C95CC84085
:1012C00010600420FFF728FF0120FFF73DFC08B164
:1012D000012002BD00F084FB002002BD200C02446E
:1012E000382F0008180000202DE9F84F86B014228E
:1012F0000021684600F061FBDFF85C04016848F2F9
:101300003915DFF8584441F480710160026840F6F5
:10131000083643F2702902F480720592059902683A
:10132000DFF83C84DFF83CA442F00202026003686C
:10133000DFF834B403F0020300F06BFA42F040022D
:101340000260036803F0400300F063FA42F0080211
:101350000260036803F0080300F05BFA42F0100239
:101360000260036803F0100300F053FA42F0010238
:101370000260036803F0010300F04BFA42F08002C0
:101380000260036803F0800300F043FA42F00402B5
:101390000260036803F0040300F03BFA294642F0C0
:1013A000200202600068002200F0200005900598ED
:1013B000204600F0CEFB00223146EC4800F0C9FB8D
:1013C00000220321EA4800F0C4FB002249464046BF
:1013D00000F0BFFB00221A21E64800F0BAFB002211
:1013E0004021504600F0B5FB0022F02000F083F9C8
:1013F00000F0ACF90022202000F09CF900F05CF92C
:1014000000950121019100220292039200F08EF9D1
:101410004FF480670022009702210292039201910B
:1014200000F082F900F07CF94CF23B7000F06AF9B0
:101430000C22D14D00F04DF90096012001900022C0
:101440000292039200F083F90022062000F0AFF927
:1014500000F07EF9032100F0E0F900F05EF90022CF
:10146000C02012210292039200900191042200F008
:101470002BF900224FF4605000F090F900F057F97A
:1014800000F04EF94FF4007000F03CF9092200F032
:101490004CF90022402000F028F9062200F019F94A
:1014A000012001900022CDF800900292039200F0FA
:1014B0002EF9102002210022009001910292039245
:1014C000022200F028F90022042000F007F900F0C1
:1014D00000F900224FF4F85000F000F900F052F942
:1014E00000224FF4C05000F006F9DFF8909200F0AF
:1014F000E6F84FF480400090A14E00F062F900F051
:1015000007F94FF4005100F05BF900F03DF90022BB
:101510004FF4C06000F0E9F8072200F0D0F81A217B
:1015200000F07BF900F00FF900F050F90C22049262
:10153000694600F008F90022009702210292019109
:1015400003910B2200F002F900224FF4807000F0AA
:10155000CCF8012200F0B3F800F0E2F80292032187
:10156000802003910922009000F00CF9402100F046
:1015700054F900F009F9822100F022F900F0D7F8BF
:101580000097022100F03CF900F0DDF800F0C8F807
:10159000402000F0B7F800F0C7F800F020F9092269
:1015A00000F0F0F800F0BCF84FF4405000F0AAF85A
:1015B000092200F08EF800F009F90A2200F0E2F8A2
:1015C0000022322000F0EAF800F0DEF80022862047
:1015D00000F0E4F8484600F009FA4FF4805100F0BA
:1015E000EFF800F069F800224FF4006000F0A2F874
:1015F000284600F0FBF9712000F0C9F8484600F0D9
:10160000F5F900220221029203924FF44064019105
:101610000722009400F058F800224FF4004000F038
:10162000C6F800F049F800F0E3F8022200F0AAF84A
:1016300000F0DEF8052200F042F8002202200292BB
:101640000321009001900391062200F03DF84FF431
:10165000F04000F09CF800F076F800F061F84FF6EA
:10166000807000F04FF80C2200F055F800224FF483
:10167000C07000F09CF800F04BF8002202210292AA
:101680000392019102220094049200F040F846F285
:10169000010000F07CF800F00FF80C20022100900F
:1016A00000F0AEF800F034F800F099F80A2200F0EB
:1016B0000BF807B0BDE8F08F584600F097B90492D8
:1016C0006946484600F092B904926946584600F0CF
:1016D0008DB904926946284600F088B90221029229
:1016E0000090019103910C22704702210292039213
:1016F00000900191704702210292039200900191A3
:101700000A227047029203210090039170476946B4
:10171000404600F06BB904926946154800F066B97E
:1017200002210191002270470A2204926946204654
:1017300000F05CB902210292039200900191022212
:101740000492694670470B4800F050B9049269460C
:10175000064800F04BB900008C0C0244001802420D
:10176000001C024200080242000402420020024221
:101770000010024200140242000C02420000024229
:101780000000111004926946504600F02FB9032161
:101790000090019100220292694670470221029254
:1017A0000090019103910B22049269467047022137
:1017B00002920392009001910522049269467047BB
:1017C0000091019600210291694670470221019122
:1017D0000022012002920321009003917047022110
:1017E000019100220420029203210090039170478E
:1017F000002208200221029203920090019170477A
:101800000191002202920321039109220492694668
:1018100070470593059902687047009100210122E5
:1018200002910391019269467047000080B5DFF88C
:101830005801016800F045FD012803D0BDE80140D2
:1018400000F0C1BD01BD10B50024EFF3058058B90B
:1018500000F037FD012808D0EFF31080002804BF06
:10186000EFF31180002800D00124204610BD80B580
:10187000FFF7E9FF00B126E000F023FD012802BFD9
:10188000DFF808110868002802D101220A6002BDB1
:101890001CE0000080B5FFF7D6FF00B113E000F0B8
:1018A00010FD012802BFDFF8E4000168012909D119
:1018B0000022DFF8DC100A700223036000F07CFADB
:1018C000002002BD02E06FF0050002BD4FF0FF30C6
:1018D00002BDF8B5064684B000200F4614460390BA
:1018E000FFF7B1FF00283CD130003AD08022182306
:1018F000002154B3206800B10146A06918B103006B
:1019000004D0392B02D22079C50701D5002029E067
:10191000606900B18208A568D4F80CC07DB1BCF143
:101920005C0F1ED32469002C18BF002819D0009327
:10193000029501943B46304600F018F910E0BCF1E6
:10194000000F04BF206900280BD103AC0093019461
:101950003B4692B2304600F03CF9012801D000200D
:101960000390039805B0F0BD38B500F00BF810B146
:101970006FF0050504E0002514B1204600F001FADF
:10198000284632BD04465EE710E000E0AC2B0020A4
:101990001FED00E080B5044A00210FF21500FFF7AB
:1019A00098FF0249086001BDA82F0008A82B00205D
:1019B00080B50120FFF7D8FFFBE710B504461046BD
:1019C0000A460146204600F0B1FD204610BD000049
:1019D00002494A68087882184A6070470C00002063
:1019E00000220F216FF00100FFF763BB2DE9F047E4
:1019F00002460B464FF0000C584CDFF86481DFF8CC
:101A000064914FF00F0A9DE0012101FA0CF10840AA
:101A100000F096805D68022D18BF122D14D14FEA98
:101A2000DC0502EB850EDEF820504FEA8C0606F04E
:101A30001C060AFA06F7BD431F7C07F00F0707FADA
:101A400006F63543CEF8205016681F794FEA4C0E43
:101A5000032505FA0EF5ED4307F003072E4007FABC
:101A60000EF73E4316605E68012E18BF022E03D0AB
:101A7000112E18BF122E10D19668DF682E4007FA7B
:101A80000EF73E439660566826EA01015E68C6F38B
:101A9000001606FA0CF6314351601E79996806F07B
:101AA0000306032E08BF012907D0D66801FA0EF1FC
:101AB000354041EA050EC2F80CE05968C9003FD52F
:101AC0004FEA9C01284F59F821E04FEACC0507EA7C
:101AD000922705F018050AFA05F62EEA060607FA17
:101AE00005F545EA060E49F821E0D8F800E05D6802
:101AF000C14301EA0E0EEE0248BF40EA0E0EC8F8DE
:101B000000E0D8F804E05D6801EA0E0EAE0248BFBE
:101B100040EA0E0EC8F804E0D4F804E05D6801EA7B
:101B20000E0EAE0348BF40EA0E0EC4F804E0D4F82F
:101B300000E05D6801EA0E01ED0348BF014321604A
:101B40000CF1010C186830FA0CF17FF45DAFBDE8C0
:101B5000F0870AB18161704781627047802002443A
:101B600000200244602002447F7F2F002DE9F043D3
:101B700085B00D9C06460F469046994614B900F074
:101B800005FDFEE70E9D15B900F000FDFEE75C20A7
:101B9000009000995C2902D000F0F8FCFEE7009864
:101BA000284600F035FD02202C6385F859000C987A
:101BB000002104AA03910192009002954B464246EF
:101BC0003946304600F036F8284600F073F804989D
:101BD0002DE02DE9F8430646174684B0884699461D
:101BE000B80000F019FD05001FD05C2000F014FDC6
:101BF000040017D05C2100F00BFD0020256384F861
:101C0000590003900D980C990190029400914B4655
:101C10003A464146304600F00DF8204600F04AF8BA
:101C2000012004E0284600F07AFD4FF0FF3005B0B7
:101C3000BDE8F0832DE9F8430A9C80460D46206BF1
:101C400016469946A522B10000F0B4FD216B01EBC8
:101C50008602161FF608F60065B100216A5C63185B
:101C600083F83420685C10B1491C1029F6D3002099
:101C700084F84300089F382F02D300F087FCFEE76A
:101C8000099DE762E764201D00F0BEFD04F1180025
:101C900000F0BAFD2461C7F13807A761216B6462C7
:101CA0004B464246304600F0ABFB206005B12C604D
:101CB000BDE8F1832DE9F04100F07BF8DFF8B45581
:101CC000E86C1426DFF8B075401CE864E86B48BB8C
:101CD000EC63E86C01282DD14FF0000806FB08F0FA
:101CE00008F10108384400F082FDB8F1380FF5D34F
:101CF00005F1780000F07BFD05F18C08404600F00E
:101D000076FD284600F073FD05F1140000F06FFD2C
:101D100005F1280000F06BFD05F178002864C5F896
:101D2000448007E0A86D28B9E06AE96BCA6A90426E
:101D300028BFEC63A86EE16A401C60646A6D8A4249
:101D400038BF69654E43231D391D8959A1608A68D2
:101D5000E2608A6853608B60B9196161BA59521C9C
:101D6000BA51A86600F01EFBA86D40B1E86BC16ACD
:101D7000E06A814203D2BDE8F04100F0FDBABDE85F
:101D8000F08110B504000FD0DFF8E814486F10B1EF
:101D900000F0FCFBFEE700F045F80021204600F0D3
:101DA0009CFA00F045F818B9BDE8104000F0E4BA1C
:101DB00010BD044600F0EABA10B586B000210591C6
:101DC000049103AA04A905A800F04EFD0598049902
:101DD00000220092039A0290019100230FA10FF2BA
:101DE0005540DFF89044FFF7C1FE70B100F046FDAA
:101DF00001280DD100F0CAFB4FF0FF30E066012151
:101E0000A1650020206500F02FFB206F06B010BDFB
:101E100010F1010FF9D100F0B9FBFEE749444C4540
:101E200000000000DFF84C04416F491C4167704717
:101E3000F8B5DFF84064706F0024002510B900F099
:101E4000A5FBFEE700F0A2FA706F401E7067706F8E
:101E5000002857D1F06C00283ED153E0F068C468E8
:101E6000216AE269A06A9160E169226A5160416871
:101E700004F11802914204BF216A4160A562016821
:101E8000491E0160E168A26860699160A168E2682A
:101E900051604168221D914204BFE1684160656163
:101EA0000168491E0160E06A716D814238BF70654A
:101EB00014214843DFF8C0130A1D125800F023F81C
:101EC0000A1862610B585B1C0B50F06BC16AE06A28
:101ED00081423CBF0121316630680028BED10CB17F
:101EE00000F0E1F9F46D44B100F019F808B10120F7
:101EF0003066641EF8D10020F065306E10B1012507
:101F000000F03AFA8CE1271DA2609368E3609368C1
:101F10005F6097607047DFF85C03006D7047F8B54D
:101F2000DFF85063706F0024002840F08680356D24
:101F30006D1C35650ED1306C006810B100F026FBC9
:101F4000FEE7306C716C31647064706E401C7066BA
:101F500000F0A9F9F06E1423DFF81C2385425FD34B
:101F600057E0316CC868C1684868854263D3CF6860
:101F7000D1F808C04869CCF808708F68D1F80CC057
:101F8000CCF80470476801F1040C674504BFCF68C2
:101F9000476000274F6107687F1E0760886AA8B105
:101FA0000F6AD1F81CC0CCF80870CF69D1F820C0F6
:101FB000CCF80470476801F1180C674504BF0F6A3C
:101FC000476000278F6207687F1E0760C86A776DC9
:101FD000874238BF70655843171D01F1040E3F5802
:101FE0008F60D7F808C0C1F80CC0D7F808C0CCF88B
:101FF00004E0C7F808E017184F6152F800C00CF170
:10200000010C42F800C0F06BC76AC86A874238BF4B
:102010000124306C00680028A3D14FF0FF31F16635
:10202000F06BC06A4343D158022928BF0124306EA7
:1020300030B1012404E0F066F2E7F06D401CF06579
:102040002046F2BD10B5DFF82C22506F10B10121EF
:10205000116610BD1066516D00E0491E14244C43FA
:10206000DFF8E8322344186820B90029F5D100F0E0
:102070008DFAFEE7586803F1080440685860A042F2
:1020800004BFD86858605868C368D363516510BDF1
:1020900010B50C4610B900F079FAFEE77549CA6B25
:1020A00002F1180100F0B3FB20460121BDE8104009
:1020B00000F013B9F8B50B4610B900F067FAFEE767
:1020C00041686C4CE56BE9618E68E56B2E62E66BEE
:1020D0008F6806F118057D60E56B05F118068E60C6
:1020E000E16B88620468641C04600AB14FF0FF333E
:1020F00011461846BDE8F44000F0EFB8F8B5C068E6
:10210000C06810B900F042FAFEE7026AC369816A4A
:102110009A60C269036A5A604A6800F118039A42D9
:1021200004BF026A4A600B6800225B1E0B60514BC1
:10213000596F41BBC46885684169AC608468C568F3
:102140006C604C68051DAC4204BFC4684C604261C1
:102150000C68641E0C60C46A596DA14238BF5C658E
:1021600014214C43DFF8E4110D1D2D59071D856026
:10217000AE68C660AE687760AF600D1945610E59F4
:10218000761C0E510CE0596800F11804C1618A6890
:1021900002628A6854608C6019681A46491C19608A
:1021A0008262D96BC06ACA6A824203D201210120CD
:1021B0001966F2BD0020F2BDDFF894114A6E02608C
:1021C000096D41607047F8B505000C4602D100F07A
:1021D000DDF9FEE714B900F0D9F9FEE700F0D6F812
:1021E0002448016D6A6826688B1A16F1010F12D017
:1021F000476ED5F800C0674505D0914203D3002053
:10220000012520600CE0B34207D2F31A2360416E2F
:102210002960006D6860002502E000202060012533
:1022200000F0C0F82846F2BD0120DFF8241108664E
:102230007047000070B5104CDFF8145111E000F049
:10224000A5F8286AC668301D00F0FAFAE86C401E4E
:10225000E864A86C401EA86400F0A4F8304600F0C2
:102260000DF8A86C0028EAD121680229F9D300F002
:1022700083F8F6E71C000020D820002010B50446A3
:1022800094F8590040B9206B00F049FA2046BDE8A7
:10229000104000F044BA10BD0128F7D00228FAD04F
:1022A00000F074F9FEE7DFF8A810086C006818B9B0
:1022B0004FF0FF32CA667047086CC2681368CB667D
:1022C0007047DFF88C10886D08B901207047486F9F
:1022D00008B90220704700207047F8B51C4D0C4625
:1022E0002F6DE96B0646081D00F0AAFA16F1010FE2
:1022F00015D1A4B1E86AE96B88608268E96BCA60AD
:10230000EA6B8368111D5960E96B0A1D8260E96BF5
:1023100005F128004861A86A401CA862F1BDE86B7D
:10232000F619BE424660E86B05D2011D686CBDE837
:10233000F44000F06CBA011D286C00F068FAE86EF9
:10234000864238BFEE66F1BD00000000D8200020B4
:102350001C00002080B5002000907049486810F1F2
:10236000010F02D000F012F9FEE700F00FF900981B
:102370000028FCD001BD00004FF080506849086083
:10238000BFF34F8FBFF36F8F7047000080B500F031
:10239000FDF862484168491C4160BFF34F8FBFF3AD
:1023A0006F8F01BD80B55D49486810B900F0EEF847
:1023B000FEE74868401E4860486818B9BDE802401A
:1023C00000F0EFB801BD10B500F0E0F80446FFF7EB
:1023D000A6FD18B14FF08050514908602046BDE875
:1023E000104000F0DEB880B5806910F8021C662944
:1023F00003D1BDE8014000F0A3B800F0C7F8FEE744
:1024000030B5A0F14404E263464AA2634FF00332C0
:10241000226363624FF001324FF01133A2622362F4
:102420004FF010324FF00933E261A3614FF0807535
:102430004FF008324FF007332564626123614FF09B
:1024400012354FF006324FF005336563E260A3604A
:102450004FF002354FF004326FF04303E5626260E3
:10246000236040F8481D30BD1FB5002101912E4961
:102470000A684FF07F40294C029208600B681B0EDF
:102480008DF800309DF8002012F05002227002D129
:1024900000F07CF8FEE79DF80000C04310F0500FFC
:1024A00009D000F073F8FEE7401C01909DF8000091
:1024B00040008DF800009DF8000002060198F3D45A
:1024C00008280FBF00200198C0F10700000200F4A7
:1024D000E060A060029808604A6842F47F024A60A7
:1024E000486840F07F40486000F028FB00206060B2
:1024F00000F040F8FFF7A6FD00200090616811F1A0
:10250000010F02D000F042F8FEE700F03FF800981B
:102510000028FCD0002004B010BD00000000002006
:1025200004ED00E0552300081CED00E04018491CB4
:102530001CBFB1F1010100F8012DF9D17047000075
:10254000314A1168086806C881F30B88022181F3BB
:102550001488203080F30988BFF36F8F4FF000009C
:1025600080F311881047EFF3148020F0010080F30E
:102570001488704725480068006880F3088862B6B0
:1025800061B6BFF34F8FBFF36F8F66DFEFF311803C
:102590004FF0500181F31188BFF34F8FBFF36F8F5E
:1025A000704780F31188BFF34F8FBFF36F8F704771
:1025B000EFF30980EFF30B82734620E9FC0F124A18
:1025C000116808604FF0500080F31188BFF34F8FFF
:1025D000BFF36F8FFFF736FD4FF0000080F31188D7
:1025E000094A11680868B0E8FC0F82F30B8880F391
:1025F000098818471EF0040F0CBFEFF30880EFF3B3
:102600000980FFF7F0BE00005800002008ED00E050
:102610000022FFF78BBF00002DE9F0410446FFF7D1
:1026200001FC634FB8684FF000080025F0B907F1CE
:102630001C0107F11C034FF400500A4613F0070F6A
:1026400005D0CA1DD208D200C2F50053C8181044E4
:102650000838C008C0003A607D60B8604560056019
:10266000831A5360106050683861F860002C4DD0B8
:1026700014F1080F4AD2083414F0070F09D004F0FF
:102680000700C0F108004FF0FF31091AA1423DD305
:102690000419002C3AD439D0F868A04236D3394610
:1026A0003E6801E0314606467068A04202D23068BA
:1026B0000028F7D1B868864228D00A68306802F14D
:1026C000080808607268121B112A0CD3311911F026
:1026D000070002D0FFF75AFFFEE7301D0251746079
:1026E000084600F041F87068F968091AF960FA685C
:1026F00039698A4288BF0A463A6140F000407060FA
:102700003560796908F00705491C7961FFF790FB8E
:1027100015B1FFF73BFFFEE74046BDE8F08100281A
:1027200000D1704738B5A0F108046168002902D4CF
:10273000FFF72CFFFEE7206810B1FFF727FFFEE749
:1027400021F000416160FFF76DFB194DE968606899
:102750004118E960204600F007F8A869401CA8610C
:10276000BDE83140FFF764BB114930B50A4600E0CF
:102770001A4613688342FBD35368D418844203D1AA
:102780004068C3185360104643681468C518A542D2
:1027900008D189688C4204D06168CB1843602468F2
:1027A00000E00C460460824218BF106030BD00009B
:1027B000BC00002062F30F2262F31F4200B500BF8D
:1027C000130096469446103928BFA0E80C50FAD85A
:1027D0005FEA417C28BF0CC048BF40F8042BC90702
:1027E00028BF20F8022B48BF00F8012B00BD4FF096
:1027F000FF3200F1080182604160C16000F108020F
:10280000026100210160704700210161704730B50D
:102810000A6812F1010F08BF036907D000F108032D
:1028200000E023465C682568AA42FAD25A684A60EA
:1028300091608B60596008610168491C016030BD7E
:102840008268436801699A60426883685A604A688E
:10285000824204BF83684B60002202610868401E08
:102860000860086870470000034B036003F15C00D8
:1028700008608021116070473825002010B586B0AF
:1028800000F02AF9DFF8A042A068C0B1002105914C
:10289000049103AA04A905A800F064F90598049915
:1028A00002220092039A0290019100230FF27C21F0
:1028B0000FF27900FFF75AF90028E06002D1FFF724
:1028C00065FEFEE7012006B010BD70B504460D465A
:1028D000164604E0A069216A451920468847A16987
:1028E0002B4632464919204600F0DBF80028F1D18A
:1028F00070BDF8B504460D468B480168CA68D668B5
:10290000301DFFF79DFF06F12007387A410705D5F6
:102910002A4621463046FFF7D8FF02E000F0FE00CD
:10292000387230463968BDE8F4400847F0B585B0E4
:102930007D4E3168086810B90124002502E0C8689E
:1029400000240568FFF76EFA684600F08DF8074628
:102950000098C8B944B9AF420BD3FFF769FA3946BA
:102960002846FFF7C6FF19E0706801684C1EA441B5
:10297000E40FB0682246E91B00F05EFAFFF758FA50
:1029800060B9FFF7F9FC09E0FFF752FA06E094F8A6
:10299000280081073DD42046FFF7C1FEB068002221
:1029A00001A900F059F90028C3D00198002803D5E7
:1029B00004990398029A904701980028EED4039C4A
:1029C000606910B1201DFFF73BFF684600F04CF82E
:1029D00005460198401E0828E0D8DFE800F02121D4
:1029E0001A070621211A0700D8E7D0E794F8281023
:1029F00041F0010184F828100298A06110B9FFF796
:102A0000C5FDFEE741192B462A46204600F049F84D
:102A1000C4E794F8280000F0FE0084F82800BDE721
:102A200094F828002A4640F0010084F82800029912
:102A3000A0690B464118204600F033F80028ADD0BD
:102A400094F82800410707D50299A0692A46411841
:102A50002046FFF73AFF03E000F0FE0084F828006C
:102A6000216A2046884799E770B50446FFF753FA74
:102A700005462D4E306985420AD30020356120601D
:102A8000284670BDD0684FF0FF310068FFF731FF76
:102A9000326810680028F5D17068726030600120DB
:102AA000ECE738B50024416000611F4D8A4206D32F
:102AB0008169D21A8A4206D2011D686807E09A42EB
:102AC00003D2994201D3012403E0011D2868FFF7D6
:102AD0009EFE204632BD00001CB5FFF757FC124C8D
:102AE000A068E0B904F11400FFF781FE04F12800AA
:102AF000FFF77DFE04F1140004F12801002220609C
:102B00006160009204F13C0304F18C0210210A2060
:102B100000F072F8A06010B106A100F06EF9BDE8F7
:102B20001340FFF73FBC0000F0290020546D7220D5
:102B300053766300546D7251000000000748002175
:102B4000016000228260064B19684FF47A72B1FB73
:102B5000F2F20721521E42600160704710E000E06F
:102B600018000020034B036003F15C000860802123
:102B7000116070479427002070B504000D4602D103
:102B8000FFF704FDFEE7E06B98B34FF0FF31B1FBB8
:102B9000F0F0226C90422CD3FFF7F8FB206CE16B35
:102BA0002268002600FB01F3491E48431344A3603A
:102BB0001044A663E060626004F144004FF0FF310E
:102BC000017041704DB9206978B104F11000FFF730
:102BD00095FA50B1FFF7D0FB07E004F11000FFF7C2
:102BE00006FE04F12400FFF702FEFFF7DBFB0120E5
:102BF00070BDFFF7CBFCFEE77CB51C0002D1FFF7F0
:102C0000C5FCFEE708B11AB121B9FFF7BFFCFEE72A
:102C10000029FAD150230093009D502D02D0FFF7D8
:102C2000B5FCFEE7069B009D012684F846600094F3
:102C300000F002F8204676BD38B51C46049D0029F8
:102C40000CBF2D602A60E863296401212846FFF744
:102C500093FF85F84C4031BDF7B506460F4600247A
:102C600016B9FFF793FCFEE70FB9306C38B9FFF7E0
:102C700028FB58B9029848B1FFF788FCFEE7FFF738
:102C800085FCFEE700F05CF8FFF7D2F8FFF77EFB6B
:102C9000B56BA5BB0298002844D014B900F052F8D7
:102CA0000124FFF77FFBFFF7BDF8FFF76FFB06F18D
:102CB0004400415711F1010F04BF0022027000F0DF
:102CC00044F804BF00224270FFF76CFB02A968467B
:102CD000FFF779FA0028304628D100F083F8002861
:102CE000D0D0029906F12400FFF7D2F900F028F8BD
:102CF000FFF79EF80028C9D1FFF73EFBC6E739462B
:102D0000304600F027F86D1EB563306930B106F12A
:102D10001000FFF7F3F908B1FFF72EFBFFF742FBB6
:102D20000120FEBDFFF73EFB0020FEBD00F026F8AF
:102D3000FFF77EF8304600F055F80028A6D0F3E7FC
:102D400030461BE06846FFF737BA90F9011011F1E1
:102D5000010F7047026C0B46002A00D1704710B576
:102D6000C16884681144C160A14224BF0168C16088
:102D7000C1681846BDE8104000F082B8F8B50546B5
:102D8000FFF704FB05F1440494F9016007E005F145
:102D90002400FFF7B3F908B1FFF746FA761E70B2C8
:102DA000012802DB686A0028F1D14FF0FF36667017
:102DB000FFF7F8FAFFF7EAFA94F9007007E005F177
:102DC0001000FFF79BF908B1FFF72EFA7F1E78B2CB
:102DD000012802DB28690028F1D12670BDE8F14006
:102DE000FFF7E0BA10B50446FFF7D0FAA06B441E17
:102DF000A441FFF7D7FAE00F10BD70B5002310B95A
:102E0000FFF7C4FBFEE7A1B100240A4D05EBC406A1
:102E10007268904209D0002B02BF55F83420002A76
:102E20003346641C082CF1D300E033460BB1196023
:102E3000586070BD682B0020F8B504460D46164654
:102E4000FFF7A4FA04F1380797F90C0010F1010F0D
:102E500004BF0021397397F90D0010F1010F04BF71
:102E600000217973FFF79EFA386828B9324629465F
:102E700004F12400FFF71EF92046BDE8F2407DE78B
:102E80004AB1000011F8013B521E00F8013B1CBF83
:102E900011F8013BF8E770471F4801680022002342
:102EA00041F4700101601D4901200860CA610B6294
:102EB0000A681B4802400A608B620022CA62002036
:102EC0000863184848638A63C8630B644864002039
:102ED00088640A6822F480220A6008654FF0006165
:102EE000114A11601148C16801F06041B1F1604FB1
:102EF00018BFB1F1404F0ED10169CA0703D50C4983
:102F000001600C4B0360016941F00201016101693C
:102F100041F001010161704788ED00E0000C0244BE
:102F2000E3EAE2EA8002010108ED00E00C20024041
:102F30003B2A19087F6E5D4C000000000000000075
:102F4000010203040607080930B4002512E050F816
:102F5000042BD30744BF4A44521E091F042942F8D8
:102F6000045BFAD213468C0744BF15809B1CC9072B
:102F700048BF1D7050F8041B0029E8D130BC7047D1
:102F800010B5074979441831064C7C44163404E0E6
:102F90000A68081D114488470146A142F8D110BDB6
:102FA000500000006C0000009C3000080000000091
:102FB000000000000000000000000000000200000F
:102FC0001800000000000000000000004EF68851CC
:102FD000CEF20001086840F470000860BFF34F8F24
:102FE000BFF36F8F4FF00170E1EE100A70470000E1
:102FF00059FFFFFFF42A0000BC0000200000000081
:1030000083E1FFFFB8020000300000000000002054
:1030100000F00DF8002801D0FFF7B2FFAFF30080F9
:103020000020AFF30080FEF7C9F800F002F801209D
:10303000704700F001B800000746384600F002F87B
:10304000FBE7000080B5AFF30080024A11001820B2
:10305000ABBEFBE7260002000548014603B4684604
:1030600080F30988AFF30080FFF7B0FFFFF7D0FFD0
:10307000A5EDF5FEFEE7FEE7FEE7FEE7FEE770479B
:103080000148FDF751BE00001C2B0020014880477D
:1030900001480047992E00085930000864656661B0
:1030A000756C745461736B0000000000010203042E
:1030B000FFF7FEBFFFF7FEBFFFF7FEBFFFF7FEBF44
:1030C000FFF7FEBFFFF7FEBFFFF7FEBFFFF7FEBF34
:1030D000FFF7FEBFFFF7FEBFFFF7FEBFFFF7FEBF24
:1030E000FFF7FEBFFFF7FEBFFFF7FEBFFFF7FEBF14
:1030F000FFF7FEBFFFF7FEBFFFF7FEBFFFF7FEBF04
:10310000FFF7FEBFFFF7FEBFFFF7FEBFFFF7FEBFF3
:10311000FFF7FEBFFFF7FEBFFFF7FEBFFFF7FEBFE3
:10312000FFF7FEBFFFF7FEBFFFF7FEBFFFF7FEBFD3
:10313000FFF7FEBFFFF7FEBFFFF7FEBFFFF7FEBFC3
:10314000FFF7FEBFFFF7FEBFFFF7FEBFFFF7FEBFB3
:10315000FFF7FEBFFFF7FEBFFFF7FEBFFFF7FEBFA3
:10316000FFF7FEBFFFF7FEBFFFF7FEBFFFF7FEBF93
:10317000FFF7FEBFFFF7FEBFFFF7FEBFFFF7FEBF83
:10318000FFF7FEBFFFF7FEBFFFF7FEBFFFF7FEBF73
:10319000FFF7FEBFFFF7FEBFFFF7FEBFFFF7FEBF63
:1031A000FFF7FEBFFFF7FEBFFFF7FEBFFFF7FEBF53
:1031B000FFF7FEBFFFF7FEBFFFF7FEBFFFF7FEBF43
:1031C000FFF7FEBFFFF7FEBFFFF7FEBFFFF7FEBF33
:1031D000FFF7FEBFFFF7FEBFFFF7FEBFFFF7FEBF23
:1031E000FFF7FEBFFFF7FEBFFFF7FEBFFFF7FEBF13
:1031F000FFF7FEBFFFF7FEBFFFF7FEBFFFF7FEBF03
:10320000FFF7FEBFFFF7FEBFFFF7FEBFFFF7FEBFF2
:10321000FFF7FEBFFFF7FEBFFFF7FEBFFFF7FEBFE2
:10322000FFF7FEBFFFF7FEBFFFF7FEBFFFF7FEBFD2
:10323000FFF7FEBFFFF7FEBFFFF7FEBFFFF7FEBFC2
:10324000FFF7FEBFFFF7FEBFFFF7FEBFFFF7FEBFB2
:10325000FFF7FEBFFFF7FEBFFFF7FEBFFFF7FEBFA2
:10326000FFF7FEBFFFF7FEBFFFF7FEBFFFF7FEBF92
:10327000FFF7FEBFFFF7FEBFFFF7FEBFFFF7FEBF82
:10328000FFF7FEBFFFF7FEBFFFF7FEBFFFF7FEBF72
:10329000FFF7FEBFFFF7FEBFFFF7FEBFFFF7FEBF62
:1032A000FFF7FEBFFFF7FEBFFFF7FEBFFFF7FEBF52
:1032B000FFF7FEBFFFF7FEBFFFF7FEBFFC00FCAA53
:1032C000FC000001F9000010FC000290D003900007
:0432D0000037D100F2
:040000050800305966
:00000001FF
