:020000040800F2
:1000000070340020D9EC000885EB000887EB00086D
:1000100089EB00088BEB00088DEB000821ED000850
:10002000000000000000000000000000D9D6000819
:100030008FEB00080000000095D6000881980008AA
:1000400025ED000829ED00082DED000831ED000830
:1000500035ED000839ED00083DED000841ED0008E0
:1000600045ED000849ED00084DED000851ED000890
:1000700055ED000859ED00085DED000861ED000840
:1000800065ED000869ED00086DED000871ED0008F0
:1000900075ED000879ED00087DED000881ED0008A0
:1000A00085ED0008B1EB000889ED00088DED000832
:1000B00091ED000895ED000899ED00089DED000810
:1000C000A1ED0008A5ED0008A9ED0008ADED0008C0
:1000D000B1ED0008B5ED0008B9ED0008BDED000870
:1000E000C1ED0008C5ED0008C9ED0008CDED000820
:1000F000D1ED0008D5ED0008D9ED0008DDED0008D0
:10010000E1ED0008E5ED000891EB0008E9ED0008DD
:10011000EDED0008F1ED0008F5ED0008F9ED00083F
:10012000FDED000801EE000805EE000809EE0008EC
:1001300097EB00080DEE000811EE000815EE000820
:1001400019EE00081DEE000821EE000825EE00085B
:1001500029EE00082DEE000831EE000835EE00080B
:1001600039EE00083DEE000841EE000845EE0008BB
:1001700049EE00084DEE000851EE00089DEB000826
:1001800055EE000859EE00085DEE000861EE00082B
:1001900065EE000869EE00086DEE000871EE0008DB
:1001A00075EE000879EE00087DEE000881EE00088B
:1001B00085EE000889EE00088DEE000891EE00083B
:1001C00095EE000899EE00089DEE0008A1EE0008EB
:1001D000A5EE0008A9EE0008ADEE0008B1EE00089B
:1001E000B5EE0008B9EE0008BDEE0008C1EE00084B
:1001F000C5EE0008C9EE0008CDEE0008D1EE0008FB
:10020000D5EE0008D9EE0008DDEE0008E1EE0008AA
:10021000E5EE0008E9EE0008EDEE0008F1EE00085A
:10022000F5EE0008F9EE0008FDEE000801EF000809
:1002300005EF000809EF00080DEF000811EF0008B6
:1002400015EF000819EF00081DEF0008884238BFBD
:1002500008467047884288BF08467047B0FBF1F0F7
:10026000484370470818401EF8E7411EB1F5803F2B
:100270002CBF10200020C140B1F5807F2CBF082288
:100280000022D140104310292CBF04220022D1406B
:10029000104304292CBF022200221043D14040EA1F
:1002A0005100401C70474142084080B5401CFFF798
:1002B000DCFF401E02BD420822F0AA32801A20F064
:1002C000CC31800820F0CC30401800EB10104FF0FB
:1002D000013120F0F0304843000E704701B49DF822
:1002E00000009DF8011040EA01209DF8021040EA4C
:1002F00001409DF8031001B040EA01607047EDE74E
:1003000001B49DF801009DF80010000440EA01606E
:100310009DF8021040EA01209DF8031001B0084347
:100320007047EDE704F0CCB804F068B910B5806E02
:100330000C46FF22816AE06804F062F94FF0FF3159
:10034000216010BD2DE9FE4F0546AC6E0D9EDDF817
:100350003C90E069DDF838A009EB0604A04208D320
:10036000E86E019117469846DDF830B0A8B1834594
:1003700013D36FF053009DE000F09EF8024600900A
:100380006068E168301A0144504604F05FF9009952
:100390008A448E19A9EB01090194B9F1000F00F00C
:1003A0008880019C484664B121688B4509D1A268C8
:1003B000616853189E4204D28E42DDD2891BFFF73A
:1003C00049FF39688B4509D1BA68796853189E424C
:1003D00004D28E4242D2891BFFF73CFFC14508D3AD
:1003E000A96E4969B6FBF1F201FB12620AB98945AF
:1003F00045D2E86EDFF8341A019140B1834506D347
:100400006B22DFF8040D04F02DF9AFF30080C7F87C
:1004100000B0A86E41693046FFF720FF7860A86EF3
:10042000416908EB0600FFF71DFFA96EC969FFF7D8
:1004300011FFA96E7A68896A801AFFF70BFF0146DF
:10044000B960A86E0091FB687A683968D0F804C07A
:10045000E0470090002824DCA4D028E000F02CF82D
:10046000009002467968F868711A0144504604F019
:10047000EDF8009882448619A9EB00098CE70194F5
:10048000FFF7ECFE0446A86E00945346D0F804C073
:1004900032465946E04768B9A244A619A9EB0409B7
:1004A0007BE70199762200F0E1F8AFF30080009835
:1004B00000E00020BDE8FE8F921B8918CAE62DE9F6
:1004C000F84F88B0129D139E149FDDF854800024CD
:1004D000059004919346994607E05246391906A8BB
:1004E00004F0D2F8002817D15444444518D208210A
:1004F000A8EB0400FFF7AEFE0499824606A802901E
:10050000A01900F03DF8A9EB04035A46FFF71AFFC3
:100510000028E2D002F030BA54BF02200120F9E7EF
:100520000020F7E72DE9F84F88B0159C129D139E27
:10053000DDF850900027059004919346984606E018
:100540002068524606A904F0AFF8206057444F4592
:1005500014D20821A9EB0700FFF77CFE049982461C
:1005600006A80290B81900F00BF8A8EB07035A464A
:10057000FFF7E8FE0028E3D002F0FEB90020FBE719
:1005800001900598CDF80CA0009570472DE9FF4724
:100590000F4639689146984611F1010F18BF11F1C5
:1005A000020F45D00546EB6EDFF8600B00F1840AC0
:1005B000994206D3B3225146D03004F053F8AFF33A
:1005C0000080A86E8169B868FFF74CFE0646A86EE9
:1005D0000096FB687A6839688468A0470446002C56
:1005E00006DDB722514600F041F8AFF3008000E08D
:1005F00001D020461DE0B8F1000F15D04A464FF05B
:10060000FF3010600396FB680293796833460191CE
:100610003868002100902846FFF751FF002808D4D1
:1006200018BF6FF0530004D139462846FFF77EFE0D
:10063000002004B0BDE8F08738B505464FF0FF3024
:1006400010602846FFF7A2FF04000CD1A86E0169D4
:1006500088470446002C06DDDD22DFF8D01700F0C5
:1006600005F8AFF30080204632BD000001A003F082
:10067000F9BF0000657272203C3D20300000000090
:100680002DE9F84F07460A980C4615469B46DDF8BB
:1006900030A0DFF8789A10F1020F0CD00A99F86EAA
:1006A000814208D3E82209F1840109F1F40003F042
:1006B000D9FFAFF30080DDF834800B9E0095BA6E51
:1006C00008EB0600D169814208D2E92209F18401D0
:1006D00009F5967003F0C6FFAFF30080B8F1000F84
:1006E00018BF0A9D18D10020BDE8F28F12F1010F4A
:1006F00009D04FF4837209F1840109F5A87003F061
:10070000B1FFAFF300802560B86E81693046FFF716
:10071000A5FD60600020A06022689542E6D1616876
:100720008E42E3D3B86E806A43189E42DED2801BAD
:1007300009180A954046FFF78DFDE3680546606895
:100740002A465146301A184403F080FF6168A068B9
:10075000AE19711AFFF77AFDA060BA6EAA44A8EB31
:100760000508916A8842B9D1009A5B46214638460D
:10077000FFF70CFF0028B1D0B6E7000070B50446C3
:10078000E36E0E46DFF8A4569E4208D34FF48A72F9
:100790004FEA05010AA003F065FFAFF30080A06EE9
:1007A0003146C26890470446012C06DB4FF48B7239
:1007B0002946FFF75BFFAFF30080204670BD0000C5
:1007C000626C6F636B203C206C66732D3E626C6FB5
:1007D000636B5F636F756E7400000000B8A103F077
:1007E0007FBF38B50546FFF7F9FF0446B4A12819C5
:1007F00003F087FF0419285D401E8041C00F32BD01
:1008000010B50446FFF7EAFF205C00B1012010BDDF
:1008100041680268016042607047016811F1010F90
:100820001CBF406810F1010F01D10120704700206A
:1008300070470A68036893421EBF4968406888424F
:1008400005D08B4218BF904201D001207047002094
:10085000704710B54A68096804688C4204BF436851
:10086000934204D0944204BF4068884201D10120E1
:1008700010BD002010BD10B585E010B500F07FF868
:1008800000F07AF8606010BDC00F80F00100704782
:100890008005801510F1010F01D101207047002063
:1008A0007047000D00F4E0607047000D00F4F06048
:1008B00070474000400D70470001000E704780B542
:1008C000FFF7FAFF40B202BD0003800D7047C0F38E
:1008D0000900704710B50446FFF7DAFF0019FFF76B
:1008E000F6FF001D10BD10B504680A68544004608E
:1008F00043684A6853404360836889684B4083601B
:1009000010BD0168002904BF4168002902D1806838
:1009100001F0D0B90020704780B50068FFF7D7FF1D
:1009200003E080B50068FFF7BCFF00B10120C0B252
:1009300002BD80B50068FFF7CAFF400A18BF01205A
:10094000C0B202BD38B5054628680C46FFF7A9FFBE
:1009500030B12146281DFFF76CFF401E8041C00FBB
:1009600032BD10B500F00BF800F006F86060A0682A
:10097000FFF7C5FCA06010BD20606068BFE40446BE
:100980002068BCE410B504462068FFF7A7FC20608F
:100990006068FFF7A3FC606010BD10B504462068D6
:1009A000FFF79CFC20606068FFF798FC6060A0681F
:1009B000FFF794FCA060E068FFF790FCE06020691E
:1009C000FFF78CFC20616069FFF788FC606110BD57
:1009D00010B5FFF7D4FFFFF7CFFF6060A068FFF707
:1009E0008EFCA060E068FFF78AFCE0602069FFF7FA
:1009F00086FC20616069FFF782FC606110BD01B474
:100A00006846006810B18842FBD1012001B07047F0
:100A100000F1280200E00246106818B18842FAD1BD
:100A2000006810607047826A0A6081627047022025
:100A3000704701207047C16E0166704700228265D1
:100A4000C265F8E710B5426DC36E891A5918B1FB3B
:100A5000F3F203FB1211836D994209D2446ECA0866
:100A60000123A05C01F0070103FA01F10143A15445
:100A7000002010BD38B50546696DE86DEA6E401876
:100A8000B0FBF2F102FB1100AA6E296E686500202E
:100A9000E865D06AC000FFF7DDFBA86503F0F0FA57
:100AA00001232A46DFF81C1C284602F006FF04003A
:100AB00004D02846FFF7C2FF204632BD002032BDD9
:100AC0002F0000007CB504460D4604E0206E5B1C40
:100AD000E365401E2066E36DA06D834221D2606E07
:100AE000DE0803F00701825DCA40D607EED4626DCE
:100AF0009B18E26EB3FBF2F102FB11332B60E16D48
:100B0000226EA56D491C521EE1652266A94206D2DD
:100B1000CB08C25C01F00701CA40D107EFD4002026
:100B200076BD206E28B12046FFF7A4FF0028D2D062
:100B300076BD606DE16EBCA200921B18B3FBF1F2B2
:100B4000DFF8C80501FB123300F1840140F2BF2237
:100B500000F5BA7003F0E6FD6FF01B0076BD2DE9DD
:100B6000F84F934686B00E4632698046D6F80C9010
:100B70001D46049208F13C000024FFF7E3FEA8B1F3
:100B80005846FFF7A1FE88B1D8F83C00FFF79CFE5D
:100B900000F008FD87427CD0D8F83C00FFF794FEB7
:100BA00000F000FD874238BFDFF81C4B059500F0D0
:100BB000F1FC001D81456CD300F0ECFCA9EB0009B1
:100BC000049D042204A903920291CDF80490306898
:100BD00004234246009000214046FFF7B3FB002863
:100BE00059D10498FFF78CFB684020F00040049036
:100BF0005846FFF769FEE0B12846FFF752FEB0F510
:100C0000806F16D1059F3F1B3846FFF75DFE824679
:100C100000F0C9FC82450CD3DFF8701C0F40DFF8F0
:100C2000700C0743BD4234D02846FFF748FE04EB62
:100C30008024059805EA0B01001B00EA0B008142A5
:100C4000B5D105962846FFF723FE10BBDDF848A076
:100C5000119E109F2846FFF73AFE5146FFF7FAFA19
:100C600083464F44CDF80CB002963F1D019705997D
:100C70005B4642460868002100904046FFF762FB51
:100C800048B9AAEB0B0106EB0B0003F05FFD6019FE
:100C900001E06FF0010000F05BBFFEB504461F46A7
:100CA0000D4616463846FFF712FE089902900020BE
:100CB0000191009003F0C9FBFFF751FFFEBD8C4688
:100CC0002DE9F84F064684B0B16E119F1398CD6997
:100CD0001446C119DDF838E00F9ADDF84090DDF8D0
:100CE00048B08D4221D26FF0530062E0D21BFFF773
:100CF000E4FB82465246E168606807E0C91B591868
:100D0000FFF7A8FA82465246E9686868381A014433
:100D1000584603F09BFCD3445744A8EB0A00DDF887
:100D20000CC02B46DDF838E00F9A002841D0CDF8F2
:100D30000CC01D46CDF838E00F9280466FF0010AD6
:100D4000404664B12168514509D1A26861685318D1
:100D50009F4204D28F42C9D2C91BFFF77BFA296890
:100D6000514506D1A9686B68CA18974201D29F42C3
:100D7000C4D2C5F800A0B06E41693846FFF76EFADC
:100D80006860B06E41690E98C019FFF76BFAB16EDA
:100D9000896AFFF75FFAA8600290E9680F9A4B46EC
:100DA00001916868039900903046FFF7D8FE00284B
:100DB000C6D505B0BDE8F08F70B504460D46DFF826
:100DC000DC6AE8004CBF3246DFF8D42A206805EA26
:100DD0000201024091420CD0FFF75AFD48B9216848
:100DE000DFF8A82ADFF8BC0A0A402E4002439642E8
:100DF00003D100212160012070BD280D00F4E060C6
:100E0000B0F5806F0DD10903890D2803B1EB905F18
:100E100007D32846FFF750FD216840B201EB80213F
:100E20002160002070BD000000000000B4DC00085C
:100E30002DE9FF4FA5B0349F002405AA359DBDF9CB
:100E4000E080DDF8E490DDF8E8A0C2E900442898ED
:100E5000FFF740FD279A26998018CA6890427AD2F7
:100E60002898279EFFF736FD0421861927960391BF
:100E7000279A269904A8029001920868259A0423CB
:100E8000009000211046FFF75DFA002840F03981FC
:100E9000049805AEFFF734FA2899484040F0004026
:100EA0000490269801682798001D069004980591E3
:100EB0002890049ADFF8A00CDFF89C1C3A4002400E
:100EC00005EA070008408242C1D13846FFF7FCFC22
:100ED000002800F0B280032C09D340F2BF32DFF8C3
:100EE0007C1C0FF22C2003F0BDFBAFF300803C21F3
:100EF00001FB04F0269B07AA10440360279A641C98
:100F000061434260289A8260329BC360339A0261D7
:100F100047618561BDF8D820002500278283BDF890
:100F2000DC30A0F82080C0F82490C383C0F828A04B
:100F3000049AA846DFF8289CC2620663DDE905230F
:100F40003430C0E9002303AAADF8D850ADF8DC5026
:100F500002EB010A7BE7339800280BDD3299086821
:100F6000329904904E6801F1080033993290491E7D
:100F700033919EE7002035E00498FFF79AFCB0F526
:100F8000817F23D14FF0000B0498FFF7A0FC83452D
:100F9000E0D200F004FB0C2101FB0BF1321D735C6D
:100FA000525803F5407C0FFA88F31818800206F1B6
:100FB000080340EA0C50595801435046C8470028DE
:100FC0000DD408BF0BF1010BDED040E704990FFAF6
:100FD00088F0324601EB80215046C847002800F1D6
:100FE0009080F2D0002C00F08C803C22624307A954
:100FF000641E1144A1F13C021068269055682795A3
:1010000093682893D568329513693393908B576909
:101010009569ADF8D800D38BADF8DC30D06AB2F961
:101020002080D2F82490D2F828A00490166BA1F169
:101030000802D2E90001CDE905013846FFF744FC7A
:1010400058B100F0ACFABDF8D8108842BDD300F01A
:10105000A6FABDF8DC108842B7D20498FFF729FC45
:101060000028B2D00498FFF724FC40F2011290420D
:101070007FF482AFDFF8E81A894541D03C22624311
:10108000269907A8024411602798DFF8D83A641C13
:101090005060289991603298D060339911615761FE
:1010A0009561BDF8D8004FF0FF35DFF8BC7A90832A
:1010B000BDF8DC100020A2F82080D183C2F8249073
:1010C000C2F828A0D0621063D3E900013432C2E92B
:1010D00000010498FFF7FBFB834600F060FA2696B8
:1010E000002328950BF10102A0EB0B00279332930C
:1010F00033934FF00055ADF8D8B0ADF8DC20804404
:10110000A5E629B0BDE8F08F84DC000830DC0008DB
:101110007370203C203300002DE9F04F97B0C46E6F
:101120004FF0FF3534B11668A6423CBF5668A64260
:1011300080F0068107AE0024C6E900440027A146DE
:101140000646069190460493DDF888A0DDF88CB041
:1011500007AA042302EB8901002003930291019066
:1011600058F829403246002100943046FFF7EAF84B
:10117000044607A850F82900FFF7B0F807A941F87E
:10118000290009F1010024B114F1540F0ED02046BA
:10119000D8E000EBD07251F8293022F00102821A17
:1011A00051F822105B1A002BC8BF4F468146B9F197
:1011B000010FCDDD07EBD770069C20F00100381A37
:1011C00058F820102160791C01EBD17222F0010245
:1011D000891A159158F8212007A9626051F820104A
:1011E0000020E06002205A46DDF81080D3462392AA
:1011F000139016974FF0FF3202920FF29039D9E90F
:1012000000320BA80027C0E90032019514978DF831
:101210000070A1600846FFF772F8A060042204F194
:1012200008014FF0FF3003F03FFA0590A068B9467F
:10123000FFF754F8A06011950D978DF81890029F54
:101240000025DDF804909DF800A03FE000F0A2F931
:10125000B26ED1690D9A801881425FD3101D109033
:101260000498049FFFF721FBB0F5A06F6DD1109A91
:10127000042112A800F09AF9002878D11298FFF7FB
:101280002DF8129005981299884247D10498FFF7DB
:1012900013FB87EAC077F06A042205A903F004FA79
:1012A000F0620D98CDF84490009000F073F9009929
:1012B00027614018E060A5820B98A0610C98E0615E
:1012C0009DF818104FF0FF30E17505900D980090D3
:1012D0003846FFF7FFFA009940180D900D9A042147
:1012E00004A800F063F9002841D10598042204A95C
:1012F00003F0DAF905900498FFF702F878400490BB
:10130000FFF7C2FA0028A1D1119D3846FFF7CDFAA8
:10131000B0F5A06F01D101201490B0E0119DAEE0B6
:10132000A160C1A201926168DFF8B80B40F263527C
:101330000091236800F1840100F5CE7003F0F2F90A
:101340006FF0530017B0BDE8F08F00F023F9109A4A
:1013500005A9001F03910290019221683246009175
:10136000B06E0021C3693046FFF7DCF8002847D192
:101370000498FFF796FA0028049808D1FFF7A4FA1A
:10138000A9B2884261D300F00AF9451C5DE0FFF77D
:1013900088FAB0F5806F049820D1FFF790FA4519CC
:1013A0000498DFF8E82402EA0902DFF8F8140A4397
:1013B00090420CBF49F0004919F1010F45D0484651
:1013C000FFF782FA00F0E9F8BDF8001081423CD343
:1013D0000498FFF774FA09EB802936E0FFF761FA09
:1013E000B0F5C06F049814D1FFF766FA00F0010061
:1013F000109A8DF8180008210BA800F0D7F820B13A
:10140000119D10F1540F3AD09CE70BA8FFF733FA67
:101410001BE0FFF74EFA40F2FF51884215D1109AB7
:10142000082009AB0390029300F0C2F818B110F144
:10143000540F3FF473AF09984FF0010AFEF74EFFC7
:1014400009900A98FEF74AFF0A900498209900EA4A
:10145000080001EA080188420CD1206810990E901A
:1014600023980F9104990EAAD847002803D415D1C8
:10147000DDF810902AE7119D10F1540FC4D1E068F7
:1014800030BB2046FFF7C4F9159807A951F8201082
:101490001398401E13907FF4ADAE41E7049BDFF834
:1014A000FC1301EA09020B40934208BF4FF0FF39D9
:1014B0000DD002280BD14846FFF706FA00F06DF870
:1014C000BDF80010814202D3049840F00049FDE6C7
:1014D0000022A275149931B3B16E8A69B0FBF2F3A0
:1014E00002FB1300F8B9BAF1000F1CD04FF0FF3027
:1014F0000490099804AA03920290E268304601928F
:10150000236832460093CB690021FFF70BF80028CF
:1015100018BF10F1540F38D104980A9988420CBFB3
:1015200001200020A075214606F13C00FFF70AFAD1
:10153000A8B1F06BFFF7C8F900F034F887420CBF90
:1015400045F0004515F1010F09D0F06BFFF7BCF92C
:10155000064600F028F8864238BFA5F58065219E32
:101560002EB100F020F8A18AFEF774FE30802846E4
:10157000FFF78AF90028284607D1FFF7A5F9A18AC5
:1015800088422CBF00206FF00100DBE6FFFFFFFF69
:10159000FFFFFFFF0498FFF79DB9ADF80000049826
:1015A000FFF792B907462846FFF78EB903910290DC
:1015B0000192216832460091B06E0021C369304625
:1015C000FEF7C0BE1FB500230393029301934FF0B3
:1015D000FF3400942346FFF79FFD04B010BD38B5DB
:1015E00084B0144601AD0095DFF80039DFF86825B6
:1015F000FFF753FB002803D510F1020F10D010E0C5
:101600000198FEF76BFE01900298FEF767FE0290CC
:101610000398FEF763FE039001A92046FFF763F9E4
:10162000002005B030BD0000000000002DE9FF41A2
:10163000044640F2FF3088461E46824209D192A3FA
:101640001A7806F10800022102705A78427031704F
:1016500034E006F108000090236F9702DFF890282D
:101660005B1C3B4301F0A6FA0546002D0FD4FFF7A3
:1016700020F9307001A8009047F0005747F00803A8
:10168000874A414602F092FE0546002D01D52846C4
:1016900015E001A8FFF776F902F0D6F940F2022131
:1016A000884208BF029808D002F0CEF940F201212A
:1016B000884203D12846FFF70AF97060002004B081
:1016C000BDE8F081450A000800FCFFFFF8B50D46B3
:1016D00084B00446A368C5F309062068B34288BFF6
:1016E000334603936168029157680021019712689D
:1016F00000920246FEF7E3FE48B9A068C5F309056B
:10170000A84203D02CBF0220012000E0002005B039
:10171000F0BD2DE9FF4F87B007981668DFF8D48732
:10172000016A08980FF2601A81610799486A08995E
:10173000C861307800280DD134E0022C40D10099E6
:101740000222584602F0A0FF002839D16D1E38D180
:101750000BF102064046FFF7ACF8022804D15146CF
:10176000304602F0CEFF36185146304602F0B8FF40
:10177000074606EB0709012F0BD1012245A1304690
:1017800002F082FF002877D043A04C46012500904C
:1017900018E0022FF8D102223FA1304602F074FF78
:1017A0000028F1D16FF015006AE06FF0130067E0D8
:1017B000012CC2D1012237A1584602F065FF00B1C9
:1017C0006D1C5C445146204602F09BFF04EB000B6D
:1017D0005146584602F084FF0400E9D1344620788F
:1017E000002842D0099804604046FFF762F80228BA
:1017F000DBD14046FFF768F840F2FF31884215D050
:101800004046FFF761F8089ADFF8D43B43EA8023AB
:1018100002F11801009108990798214AFFF73DFA53
:1018200000282DD408981830FFF725F8079E089D4A
:10183000DDF8288004A9DFF8B00B0496039102902C
:1018400005940697CDF8048000974FF0F04305F11A
:10185000180229463046FFF75FFC002804D406D161
:10186000E87D0028E6D109E08046404608E007967A
:10187000CDF82880089580464E466BE76FF0010052
:101880000BB0BDE8F08F00002F00000000FC0F003F
:10189000000010402E0000002E2E000000FCFF7FF4
:1018A00000FC0F700000F04FF8B584B015461E46DE
:1018B0000C46039602956168002302460191276851
:1018C00000F110010097FEF7DBFE48B9E0683246F0
:1018D000294602F0E9FEE060606836186660002084
:1018E00005B0F0BD2DE9F8438146154686B00C469B
:1018F0001F462846FEF7EEFF06466068616930180D
:10190000814238BF6FF01B001BD3A06825F0004850
:1019100080EA0800FEF705FD0590042305AA21468C
:101920004846FFF7C1FF60B9361F3A46002D0AD47A
:10193000334621464846FFF7B7FF10B9C4F8088080
:10194000002001F03BBB0027154600E07F1CB7429A
:10195000F4D2012004AA039002926968F31B4A465C
:10196000791801912868002100904846FEF7EAFCAA
:101970000028E6D1012304AA21464846FFF794FF38
:101980000028E3D0DDE72DE9F04F87B00746B86EB9
:101990000D460024C1696868A1466FF0530A1430EF
:1019A000FEF758FCB96E8969FEF75CFC80466868F2
:1019B000404580F0AF80686840F2FE31A8EB00003F
:1019C000001FFEF747FC6E683618361D464505D2E7
:1019D000A8F114013046FEF73DFC0646FF208DF8C5
:1019E0001000464540D3B86E8369C069C01AB04242
:1019F0003AD3012204A903920291019628683A463B
:101A0000002100903846FEF79DFC002818BF504585
:101A100029D10FF25812D2E9000106ABCDE9050138
:101A2000B86E816903930591059A0292019629681F
:101A30003A460091836900213846FEF773FD00287D
:101A400018BF50450FD10598FEF759FC0590069830
:101A5000FEF755FC069005ABDFF89029294638467D
:101A6000FFF740FF002873D19DF810006968C0435C
:101A7000C0F3C010711A00F5A060091F41EA0050C0
:101A800040F4402040F47F3BA86880EA0B00FEF75A
:101A900048FC0590E868042205A902F005FEE8600C
:101AA000FEF72DFC0690082005AA039002926968B3
:101AB00000233A460191286807F11001009038464A
:101AC000FEF7DEFD002843D11CB96C68D5F80C90F8
:101AD000241D6E609DF81000C043000600F0004019
:101AE00080EA0B00A8604FF0FF30E860464506D260
:101AF000B96E7A69886A82189642FFF45CAF002357
:101B00003A4607F110013846FEF796FD00283FF4EB
:101B10004EAF1DE004AA286903924FF0FF31221A4C
:101B20000491029201902868231D00F023F878B9EF
:101B3000049848450BD104A9042203910292019410
:101B40002868042300F016F810B9049800B1504634
:101B500007B0BDE8F08F00000000F07FB4DC0008A3
:101B6000B90D000844EB000800FC0F600000000005
:101B7000FFFFFFFF3A46009000213846FEF7D2BC37
:101B80007FB506460D460024641C04EBD472304633
:101B900022F00102A21A05EB8201FEF793FF80BB3F
:101BA000012CF1DDA860042305F108020021039354
:101BB000029201912868324600903046FEF7C2FB3F
:101BC0000446A868FEF78AFBA860002C1CBF14F12D
:101BD000540F204615D1B06E416A002906DDA86871
:101BE000491C41F00101FEF73DFBA8600420E860BC
:101BF0004FF0FF3100202961A882A961E961A87531
:101C0000E87504B070BD2DE9F8418BB00E4605466D
:101C100090461F4603A9FFF7B3FF48BBF07DBDF810
:101C20005010139C8DF82300B0693B464246099042
:101C3000F069029101940A90129803A90090284635
:101C400000F03EF8002813D40398B06104990120F5
:101C5000F075F16105F120013046FEF7EAFD00283C
:101C600008BF002C03D10398286204986862002002
:101C70000CB0BDE8F08110B504460846FEF72AFE18
:101C8000216840182060002010BD13460A464168B4
:101C9000006827E6806E406A012809DB8A68401CDC
:101CA00040F00100521CB2FBF0F100FB112001E0FA
:101CB00000207047401E8041C00F704700000000A8
:101CC0002DE9FC4F91B083460F46DDF87490DDF8A6
:101CD0007880FFF7DFFF0546B8680026DFF804A22A
:101CE000401CB8603DB10FF210213846FEF7A1FD4F
:101CF000002840F0C7800BA80FF20421182202F040
:101D0000A5FC78680B90DBF8681000F08DFB796813
:101D10005846FEF733FD040010D1B868FEF7EFFA1D
:101D2000B860042307F108020BA95846FFF7BCFD71
:101D30000446B868FEF7D2FAB860002C71D10BA93E
:101D40000A91DFF8601A07914946494209B20691A3
:101D50000020129903901198019109AADFF8483ADE
:101D60001C99089202930090CDF824B0CDF814800D
:101D7000CDF810904FF0FF3300225846FFF758F887
:101D800028B110F1540F7DD013B0BDE8F08F07F1EA
:101D90001800FEF742FDA0B907F11800FEF76DFD2F
:101DA000F87DDFF8082A07F1180300F5C06042EA61
:101DB00000520BA95846FFF795FD044600F03AFB88
:101DC0007CBB00F046FB3EB90BF13C01FEF78BFDFE
:101DD0000BF1300100F032FB0BF1480100F02EFB5B
:101DE00000986A463946800A800200905846FFF7FC
:101DF000F6FB040018D16846FEF783FD58B9684623
:101E0000FEF7AFFD6B46DFF8A8290BA95846FFF790
:101E100069FD040005D10BA95846FFF7B4FD040085
:101E200004D014F1540F2DD02046ADE7DBF8681034
:101E30000C9801F0F9FC48B140F61E020AF1840149
:101E40000AF5E87002F00EFCAFF300803846FEF7AA
:101E5000DFFCA8EB0900B8820C9800220021F86092
:101E60000D9C0BF1480000233C6180E80E003EB958
:101E70000BF1300494E80E000BF13C0080E80E00FA
:101E8000304681E74FF0FF300126CBF8100055B9FE
:101E900015A000907B684FF403620AF184010AF5F3
:101EA000FC7002F03FFC00BF1BA138466FF01B0422
:101EB000FEF7BFFC58B90CA000907B6840F63602D4
:101EC0000AF184010AF5077002F02CFCACE7391D19
:101ED0005846FEF7F7FD18B1A042D2D1002DD0D060
:101EE000002508E730DC0008000000000C00F07F4F
:101EF00000FC0F7800FC2F00000000000100000033
:101F00000000000000000000FFFFFFFFFFFFFFFFD9
:101F100000000000000000000000000001000000C0
:101F20002DE9F54F93B000260FF2C4400F461E9DD9
:101F30004FF00008B24600901C4640F20149DFF81D
:101F400070BC32E054F83A00FEF7ABFCB0F5C06F5D
:101F500029D1211D51F83A201068B86151F83A0092
:101F60004168F96154F83A00FEF7A6FC00F0010060
:101F7000F87500F05FFA16E054F83A00FEF799FCA5
:101F800040F2FF418842DDD1B88A40B9009840F65E
:101F9000C2020BF1840102F065FBAFF30080B98A45
:101FA0000126481EB8820AF1010AAA4508DA54F847
:101FB0003A00FEF77EFC4845DED1B88A401CF1E7C6
:101FC0003000139E20D0B88AF0B9DDF87CA0BAF1B9
:101FD000000F09D140F6CF020BF184010FF220402F
:101FE00002F040FBAFF3008052463946304601F024
:101FF0002FFD18B110F1020F06D021E19AF8170059
:1020000010B14FF0020857E1DFF8C41C0A91B87D07
:1020100000283AD00BA80FF2F031182202F016FB7C
:1020200039680B91F8680C9038690D90F8680F903A
:10203000B16E00F0F9F907F11800FEF71EFC0BA9CC
:10204000129111A8DFF85C17119608900791CDF84E
:102050001880CDF81480CDF81080CDF80C80CDF824
:102060000880019500943B69FA6839463046FEF7CE
:10207000DFFE834600F0DEF96FF0530ABBF1000F7C
:1020800006D01BF11C0F18BFD34559D05846D7E0D6
:1020900000F0DFF906F13001FEF725FC06F13C0106
:1020A00000F0CCF906F1480100F0C8F90098800A68
:1020B000800200906846FEF724FC88B96A463946DB
:1020C0003046FFF78CFA002814D16846FEF749FC29
:1020D0006B46DFF8DC260BA93046FFF703FC20B97E
:1020E0000BA93046FFF74FFC28B110F11C0F18BFA9
:1020F000504525D0A4E0B26E0C989269B0FBF2F185
:1021000002FB110040B10A9940F61912DFF8C40B26
:1021100002F0A8FAAFF300800C9806F13C0C06F12F
:10212000480BF8600D98C246386106F1300090E81F
:102130000E00002086468CE80E008BE80144BBE0D0
:102140004FF0FF313161B88A00E040464FF000089F
:10215000ADF8240017E0B06ED0F84CB0BBF1000F22
:102160003AD0BAF1FF0F0CD281694FEA5B00FEF75B
:1021700079F80146ABF12800FEF76CF80B9988421C
:102180002DD208EB5A08BDF82400A0EB080ABAF1DA
:10219000010F24D900200B90DFF8602C0792BDF8C6
:1021A0002400C8F100020BA912B208910692059012
:1021B0001FFA88F00021DFF8F025049003910292C5
:1021C000019500944FF0FF33002239463046FEF768
:1021D0002FFE0028BFD06BE0D0F81CB0C1E7BDF8DF
:1021E00024A0B8F1000F16D01FFA88F000F038F9DB
:1021F000FFF709FD0028A8D010F11C0F58D179A1D4
:10220000019178680A9940F68A0200903B68DFF8ED
:10221000A80C02F087FA39463046FFF73BFD00284C
:1022200041D00FF2FC113846FEF703FB00283AD1EB
:10223000304601F098FE8046B8F1000F03D54046C5
:1022400015B0BDE8F08FF16EC808A1EB0801884217
:1022500029D20FF29018CDF80080BB68DFF850B992
:1022600040F69F020BF184010BF5207002F05AFA40
:1022700000210191CDF808A000972B46224639464F
:102280003046FFF7C0FC60B110F11C0F10D143467F
:1022900040F6A9020BF184010BF52C7002F042FA12
:1022A00001E04FF0010A002000F0DAF8FFF708FD26
:1022B0008046B8F1000FC2D41499086814990190AF
:1022C00048680290D6F828A001E0DAF800A0BAF138
:1022D000000FB4D001A90AF10800FEF7AAFA0028FD
:1022E000F3D10AF108003946202202F0AFF914991F
:1022F0000AF10800884251D04FF0FF3240F2FF410E
:102300004FF0000B0392ADF800102EE000F099F8AA
:10231000484528D100F099F8BAF80420824222D327
:102320009AF80600521CAAF8042002281BD1DAF8F9
:102330002800401C15E000F084F8BDF80010884229
:10234000E4D100F082F8BAF804209042DED29AF884
:102350000600521EAAF80420022804D1DAF8280048
:10236000401ECAF828000BF1010BAB4516DA00F04D
:1023700068F8BDF800108842DDD100F066F8BAF8C0
:1023800004108142D7D19AF806000228D3D00399CD
:10239000CAF808100398CAF80C00E4E7BAF8040079
:1023A000BAF81C10884290D39AF81F0000288CD0ED
:1023B00006F120010AF12000FEF73BFA30B1BAF82D
:1023C0000410BAF81C00091AAAF804100AF1200235
:1023D0000AF108013046FFF7F5F80028DED02FE7B4
:1023E0000800002000000000CD16000808FCFF5F78
:1023F0006469722D3E636F756E74203E203000005C
:10240000706469720000000000000000000000001D
:1024100000000000FFFFFFFF0000000000000000C0
:102420000000000001000000C86C00B9C86908384D
:102430001090704707F11800FEF71DBA6846FEF7C6
:1024400052BA54F83B00FEF734BA54F83B00FEF79A
:102450003BBA684600210023002280E80E00704746
:102460000190CDF808A000972B4622463946304609
:1024700070472DE9F84FA0B007460D46164698461E
:10248000BC6A00E0246814B304F108018D42F9D05D
:10249000294604F10800FEF7CCF9002804BFA07912
:1024A0000128EFD1216BC802ECD5B96E886AE16AC8
:1024B0008842E7D22146384600F017FC002805D1B3
:1024C0002146384600F023FC0028DBD064E1286870
:1024D0000DF1100B20220490696810A8CBF80410AD
:1024E000294602F0B3F808A80190CDF800803346E1
:1024F0002A4610A900F06BF90646002E2FD404A935
:102500002846FEF796F918B9284610A901F01AFFD7
:10251000022E28D107F1480229463846FFF75FF816
:102520000028D3D100F046F905F11800FEF7A5F90F
:10253000E97D9E48002201F5C06140EA015005F1A5
:1025400018010391012102900192009102AB00F069
:102550003CF9064605F11800FEF78DF9002E00F152
:102560001A8101F0EDFEDFF8500ADFF864170790DA
:10257000069140F2FF3ADFF8388601E001F0E0FE14
:10258000012E5CD0002C14BF0320002004E10121A7
:10259000384601F000FB4FF001090028F6D108A9E8
:1025A00007F130005646FEF7CDF9B8B1386BFEF7AB
:1025B0008BF906467AA0029001960999089B079824
:1025C0000091069940F6D51202F0ACF800F0F8F848
:1025D000FEF7E9FF8642B8BFA5F58065089802902E
:1025E0000998039010A8FEF748F918A8102102F0E6
:1025F000B1F856450EBF0020DFF8280C40EA8620CF
:10260000189010A9002202201B91019200901A95A7
:1026100018AB02AA00F0DAF8064610A8FEF72BF96C
:10262000002E9CD4012E4ED1029808A9202204909D
:1026300003980124CBF8040010A802F007F858A072
:1026400011990390109ADBF804000291049B0699FB
:102650000192009040F6A81208F5377002F062F877
:1026600007F1200104A80026FEF7E3F818B9109836
:10267000386211987862BD6A17E005F1080104A874
:10268000FEF7D7F818B91098A8601198E860A879F3
:10269000022809D105F12C0104A8FEF7CAF818B9DF
:1026A0001098E862119828632D68002DE5D108AADA
:1026B00004A9384601F01EFA05007FF568AF15F150
:1026C000020F69D1B14608AA04A9384601F0C0F941
:1026D000002837D107F13000FEF71EF940B1C9F1EB
:1026E00000094FFA89F1384601F055FA002853D114
:1026F00008A907F130005546FEF724F988B1386B78
:10270000FEF7E2F826A10291089B06990546099872
:10271000019540F609220090079802F003F800F0B6
:102720004FF800F047F810A8FEF7A7F81CA81021F2
:1027300002F010F855451ABFDFF8E80A40EA852094
:1027400000200FE010F1020F26D1B9F1000F08D0E0
:10275000069940F6F61208F5567001F083FFAFF3C4
:1027600000800DE79DF837101C90104801F5C061FE
:1027700040EA015010A91F91002202211E900192EF
:1027800000911CAB00F021F8064610A8FEF773F884
:10279000002E7FF5F3AE304621B0BDE8F08F00008B
:1027A000000000008B1C000800FC0F4008FC0F001C
:1027B0000CFCFF7F089804900998CBF80400704740
:1027C00000225146384601F01BBA04AA08A938462F
:1027D000FFF7A6BB10B50446FFF74BFE002807D451
:1027E00005D020460021BDE8104001F023BA0020AA
:1027F00010BD2DE9F041806E0C462568C669083E83
:10280000B5FBF6F090B1401EFDF755FD6FF00307E4
:10281000801C07FB0050B0FBF6F808FB165540463D
:10282000FDF749FD07FB005540462560BDE8F081F6
:102830002DE9F84F86B00446109889469346129EBB
:10284000139F38B94FF0FF3030600021396000200D
:10285000FFF77EB9401E049004A92046FFF7C9FF88
:10286000804611A92046FFF7C4FF0594824604E084
:10287000012000FA05F5A8EB0508C24524D2404620
:10288000FDF711FD0446A8EB0A00401CFDF7EDFC26
:102890002146401EFDF7DEFC054604200390069805
:1028A00006AAA900009005980292019104235A46B5
:1028B0004946FDF747FD04460698FDF70FFD0690D3
:1028C000002CD5D02046C3E706983060119900202F
:1028D0003960BDE72DE9F04F89B00C4612991546D5
:1028E0001E46002939D0491E0491824604A9FFF7EB
:1028F00080FF08940795804605AF139D149C06E061
:1029000005A901EB890050F8046CA8EB09083146D1
:102910002046A8475FEA000B2DD1B8F1000F1CD06C
:1029200008F00109C9F102094FEA890305A90393D7
:10293000029101900096079A08995046FDF702FD12
:10294000834600F08AFC05907868FDF7C7FC786044
:10295000BBF1000F0FD1002602E000200CE0761C36
:10296000A9F101008642CBDA57F826102046A84785
:102970000028F4D08346584609B0BDE8F08F2DE911
:10298000F44F04461E4686B00D46B00703D52046D8
:1029900001F04EFA78BB10982B1D06AA28652E630D
:1029A00000206863E863E86401F076FD07466FF095
:1029B0000109002F05D54F4514D10698FDF711FFE9
:1029C00080B10120A87129462046FEF72CF8DFF8D7
:1029D0005CA8DFF85CB86FF01B084F453FD1F005ED
:1029E0000BD44F46296B204641F400212963294628
:1029F00000F0E3F83846FFF7ABB80698FDF700FFA4
:102A000010B16FF01307EDE70698FDF7E7FE0646F5
:102A1000206FB0421CD36846182101F09BFEA888A5
:102A2000DFF8101841EA802146EA802600914BEA3F
:102A3000802046F480160296069A0490032303929F
:102A40006A4605F1080101F087FC0746474502D1B7
:102A50006FF02307C6E7002FC4D15F462AE0B00518
:102A600048BF6FF01007BDD43846FDF722FF01289C
:102A700018BF6FF01407B5D1710507D5296BA88869
:102A800041F4803129634BEA802713E005F12801E6
:102A90000091A888DFF8A037524643EA802305F169
:102AA000080100F087F80746002F9BD405F12800A5
:102AB000FDF768FF4FF0000B0FE0286B82070AD587
:102AC0002A6DA16F536803F10802925991422AD3EB
:102AD00040F4803028630BF1010B286D81688B4531
:102AE00023D295F830200C2606FB0BF6D107E4D54F
:102AF0004068021D9359DFF8EC2B0093815DAB8891
:102B000001F540719B0243EA015300F10801885925
:102B100005F10801034300F04DF80028CDD54845E4
:102B2000CBD007465EE74046FBE7006898B3E86411
:102B300005F1400100F0D6F83846FDF7BAFE40F244
:102B40000121884231D1C5F828903846FDF7BFFEF3
:102B5000E862286B002140F480102863A86A28648A
:102B60006964A06E826AAA64E86AF0B140F2FE313C
:102B70001046FDF76FFBE96C0091AA8805F108018A
:102B800040EA8220524640F0005300F013F8074616
:102B9000002F0AD526E7A06E806AFDF7C3FBE86424
:102BA0000028C5D16FF00B071CE7002023E70000C9
:102BB00030DC00082046FEF770B870B506460C46BB
:102BC00000F01EF9054621463046FDF721FF216D34
:102BD000086810B9E06CFDF7A7FB284670BD2DE929
:102BE000F04188B004460D46DFF85086B3A708E0F0
:102BF000079B009740F6FC4200F028FB4FF0FF31A6
:102C0000216107A92046FDF75DFF00285CD10799E7
:102C10002046FDF7B3FD00283BD1002600E0761CDE
:102C2000EB6B9E4239D2286BC10219D5012206A84E
:102C3000059204900396A988DFF8F405DFF8A82A26
:102C400040EA81209B1B01920290009305F1400312
:102C5000002205F108012046FEF731F860B133E0AB
:102C600000F03AF8A86B9B1B2246009005F140014A
:102C70002046FDF767FB38BB00F02EF807980123CC
:102C80002246009004F110012046FDF7F9FC0028CF
:102C9000C5D010F1540FABD016E0A06EE169826A86
:102CA000E86C01F0D3FC2069286461696964A0695B
:102CB00004F11001A86400F015F8286B079940F49E
:102CC00000302863A963002008B0BDE8F08100004F
:102CD000B4DC000800DE0008012206A9039202917C
:102CE000019670472046FDF721BB38B50D46696B4C
:102CF0000446E963FDF79FFE29462046FFF76FFF74
:102D000020B9286B20F480102863002032BD2DE903
:102D1000F84396B00D46296B06464FF0FF34480342
:102D200006D5C90258BF2C64286B20F48020286384
:102D3000296B88035DD5686BC90280464AD4DFF8E9
:102D4000FC9401A84946542201F080FCAF6A314648
:102D500010220B97E86A0C90686B0E9011A801F096
:102D600075FC04E0306810F1010F01D0119434605B
:102D7000696BE86A814210D201236A4601A9304694
:102D800000F09EF8002835D401236A4629463046D3
:102D900000F017F90028E5D52CE00123324605F1B3
:102DA00040013046FDF7F2FBC0B110F1540F21D1C4
:102DB00042A00090AB6B40F64B5209F1840109F53B
:102DC000FC7001F0AFFC29463046FFF708FF0028F1
:102DD000E3D00FE0E96AFDF739FA6863686BA96B25
:102DE000C5F83480E862286BA962012161F31140C3
:102DF0002863002017B0BDE8F0830000771C0008AE
:102E000070B586B00C46216B0546080350D42146A8
:102E10002846FFF77CFF216B002842D1C80347D525
:102E200004F10800FDF7F9FC002841D1216BC8022C
:102E300007D400232A4605F110012846FDF7FCFBC4
:102E4000B8BB216BC80204D5DFF8E463E06CE26A2A
:102E500010E004F12802D2E90001DFF8B86BCDE9F7
:102E60000001FDF74CFA00900198FDF748FA019037
:102E700068460822A18846EA8126164302AA0296DD
:102E80005060236D986840EA812141F08151916042
:102E90005868022304F10801059001F0F6FA216B4D
:102EA00018B141F40021216303E021F48031216352
:102EB000002006B070BD000084DE000800000000A5
:102EC0002DE9F84386B007460E46F16A706B9046CE
:102ED000884201D3002071E0091A1846FDF7BAF9BB
:102EE0000446814631E0306B40F480203063B86E98
:102EF000C169F06B091A2046FDF7ACF90546B86EBA
:102F0000326BC369F06BD10244D50595CDF81080C2
:102F10000390B088DFF8D417DFF8CC2741EA80218E
:102F200001920093029106F14003002206F108018C
:102F30003846FDF7C4FE0028CDD1716BF06B6918DF
:102F400071632818F063A844641B94B3306B420388
:102F500004D5BB6EF16BDA699142C8D1C00213D4BB
:102F600006F13C0106F1380203910292706B06F102
:102F700040020190F16A38460091B36A0021FFF7E0
:102F800057FC0028AFD0A6E7716B6FF00100B0636B
:102F9000F163A8E70395CDF808800190B06B06F1C6
:102FA0004002002100903846FDF7CCF90028C4D03B
:102FB00091E748468FE7000044DF000807B0BDE80E
:102FC000F0832DE9FC4F0D468BB00C990A92824696
:102FD00007912A6BD0021CD5686B079AE96A101812
:102FE000FDF734F9DAF87C10814212D229465046B6
:102FF000FFF77BFE68B10BE1686BE96BF6193818D7
:1030000068637918E9635046FDF715FDE41B0A96DD
:1030100007940798002800F00081286B6FF053098F
:10302000820306D5DAF86830E96BDA69914240F03C
:10303000C580C10200F1CE8082031BD4686BC8B189
:10304000002104AA05F13800049103920290696BF3
:1030500005F14002491E0191E86A00210090AB6A27
:103060005046FFF7E5FB0028C5D105F14001504669
:10307000FDF75CF95046FDF7DEFC6A6BDFF8BC81BA
:103080000992A96B08910CE0204648450ED166A034
:10309000049B00904FF43C6200F0D8F84FF0FF30F2
:1030A000286404A95046FDF70DFD002840F08180FA
:1030B00004995046FDF762FB0028E6D1099880B1DB
:1030C000401E069006A95046FFF793FB0699491C3F
:1030D0000691DAF86830DA69914229D00027089E13
:1030E0001EE004980022EA63A86363E000F0A8F8F9
:1030F0000096069B52460021DB1B5046FDF722F945
:10310000040055D100F09CF8049A012305F1400118
:10311000009252465046FDF7B3FA002846D17F1C74
:1031200006988742E2D30499A9630698E86341E0D0
:10313000401CFDF7B8F8461C0898002705902EE0C3
:1031400005984FEA870BFDF7DAF8059004980422FA
:1031500005A9039202910090CDF804B001235246D4
:1031600005F140015046FDF78BFA00F075F8059027
:10317000002C89D17F1CB74211D0059A042105A8E3
:10318000039102900092CDF804B00423524600212E
:103190005046FDF7D7F800F05FF8059044B9B74204
:1031A000CED30498B600A863EE6303E008966CE7FC
:1031B000204668BB286B40F400302863DAF86800CA
:1031C000C169E86B091A0798FDF744F80A9E079C45
:1031D000074605E0696B6FF00100A863E963E9E762
:1031E00003970296E96B012352460191A86B05F102
:1031F000400100905046FDF743FA00283FF4FCAE32
:10320000484505D129465046FFF7E9FC0028E7D09C
:10321000296B41F40021296300E00C980DB0BDE852
:10322000F08F00000000F04F0000000000FC0F7065
:1032300000001020000010400800002030DC0008D2
:10324000012105A8039102900197704708F18401BC
:1032500008F5FC7001F066BA04460598FDF73EB823
:103260002DE9FC410C4694F83010054690461F4667
:10327000880709D401F0C8F840F6466200F56C7082
:1032800001F0F0F9AFF30080216B480304D521462B
:103290002846FFF73CFD60BB206B010505D5E26ABF
:1032A000616B8A4238BF0A466263666B6A6FB919FE
:1032B0008A4238BF6FF01A001BD380030DD4E06A36
:1032C000B0420AD2606301F0D9F82846FFF779FED0
:1032D00000280ED4606BB042F5D33B4642462146EF
:1032E0002846FFF76EFE002803D4216B21F400214D
:1032F0002163BDE8F681F8B50446A166086AA16EAF
:10330000DFF8386DE066486806F1840540B941F29F
:10331000770229460FF2D83001F0A4F9AFF300800C
:10332000A16E886840B941F2790229460FF2D43083
:1033300001F098F9AFF30080A16EC86840B941F27E
:103340007A0229460FF2D03001F08CF9AFF30080F9
:10335000A16E086940B941F27B0229460FF2D030D4
:1033600001F080F9AFF30080A16E486940B94FF4D5
:10337000845229460FF2CC3001F074F9AFF300808B
:10338000A16E886940B941F2810229460FF2D0301E
:1033900001F068F9AFF30080A16E886A40B941F28C
:1033A000820229460FF2D43001F05CF9AFF30080BD
:1033B000A16E886A00F03EFA40B141F286022946C9
:1033C00006F2044001F04EF9AFF30080A16E886A66
:1033D00000F02AFA40B141F28702294606F2344051
:1033E00001F040F9AFF30080A16EC869896AB0FBB3
:1033F000F1F201FB120040B141F28802294606F2C7
:10340000644001F02FF9AFF30080A06EC1698029FC
:1034100008D241F28B0229460FF27C3001F022F9EA
:10342000AFF30080A26E4FF0FF30D1690839B0FBD6
:10343000F1F0FCF71AFFA26ED169B1EB800F08D250
:1034400041F28F02294606F5936001F00BF9AFF3C4
:103450000080A16E486A40B941F2970229460FF2F6
:10346000543001F0FFF8AFF30080A16E086B88B113
:10347000C969B0EB510F08D241F29E02294606F20B
:10348000E44001F0EFF8AFF30080A06E016B11F1A2
:10349000010F0DD0A16EC869096B884208D24FF4A4
:1034A0008552294606F5A76001F0DCF8AFF30080ED
:1034B000A16EC86C70B300F0BDF940B141F2A50235
:1034C000294606F5B36001F0CDF8AFF30080A16E98
:1034D000C86CF8B100F0A8F940B141F2A702294642
:1034E00006F5BD6001F0BEF8AFF30080A16EC86CB8
:1034F00000281FBFC969B1FBF0F200FB12100028C1
:1035000008D041F2A902294606F5C76001F0AAF8E1
:10351000AFF30080A16E486B08B1E06005E0886AF7
:10352000FCF700FFE060002809D0A16E886B08B1AD
:10353000E06106E0886AFCF7F5FEE061002800F033
:103540008F802146FFF7CEFB04F11001FFF7CAFB85
:10355000A16EC86A40B941F2C70229460FF2702035
:1035600001F080F8AFF30080A16EC86B002871D025
:103570006066A06E016CFF2908D941F2D30229468A
:103580000FF26C2001F06EF8AFF30080A16E086CB2
:1035900000B9FF202067486C6FF00047B84208D997
:1035A00041F2D902294606F5D16001F05BF8AFF38C
:1035B0000080A16E486C00B938466067886C40F2A4
:1035C000FE37B84208D941F2DF0229460FF23C200B
:1035D00001F048F8AFF30080A16E886C00B938465E
:1035E000A067C869C96C884208D241F2E502294641
:1035F00006F2AC6001F036F8AFF30080A16E086D02
:1036000010F1010F3ED0896A814208D241F2E802EE
:10361000294606F2DC6001F025F8AFF30080A06EC9
:10362000006D10F1010F2DD0A16F814208D241F23F
:10363000EA02294606F2347001F014F8AFF3008074
:10364000A26E116D11F1010F1CD0D06C002808BFC3
:10365000D0690BE0C86AFCF765FE6066002888D177
:10366000204600F0EDF86FF00B00F2BDC008884274
:1036700008D241F2EE02294606F2847000F0F2FF11
:10368000AFF30080A26E106DE06710F1010F08BF6C
:1036900000200CD060B9D16C01B9D169A06FC90804
:1036A000FCF7D8FD0146A06E806AFCF7D3FDE06709
:1036B0004FF0FF302062606200200021A062E162D2
:1036C00004F13C0784460026002587E8601004F1D9
:1036D0003003002204F1480783E80700002487E84C
:1036E0007000F2BD00FCFF7F00FCF7FF000010201F
:1036F0006C66732D3E6366672D3E726561642021A2
:103700003D2030006C66732D3E6366672D3E7072FF
:103710006F6720213D2030006C66732D3E63666725
:103720002D3E657261736520213D20300000000050
:103730006C66732D3E6366672D3E73796E63202140
:103740003D2030006C66732D3E6366672D3E7265CA
:1037500061645F73697A6520213D203000000000BC
:103760006C66732D3E6366672D3E70726F675F7384
:10377000697A6520213D2030000000006C66732DC1
:103780003E6366672D3E63616368655F73697A6552
:1037900020213D20300000006C66732D3E6366677B
:1037A0002D3E626C6F636B5F73697A65203E3D20CE
:1037B000313238006C66732D3E6366672D3E626C55
:1037C0006F636B5F6379636C657320213D2030000C
:1037D0006C66732D3E6366672D3E6C6F6F6B616820
:1037E0006561645F73697A65203E203000000000E7
:1037F0006C66732D3E6366672D3E6E616D655F6D11
:103800006178203C3D203235350000006C66732D18
:103810003E6366672D3E617474725F6D6178203C13
:103820003D203130323200008969B0FBF1F201FBFA
:10383000120070474969B0FBF1F201FB12007047BA
:1038400010B50446A16E486B10B9E068FCF76CFD3A
:10385000A16E886B10B9E069FCF766FDA16EC86BBC
:1038600010B9606EFCF760FD002010BD38B504464D
:103870000D4604F11800FCF7ECFF58B100F0C4FD50
:10388000B8A341F2701200F6140000F04BFF6FF085
:10389000530032BDA968E868814208D1A169296056
:1038A000E0690021A9606860E8684000E860A868F5
:1038B000401CA860002032BDC2E72DE9F04391B062
:1038C00080460C461746994609A80FF24C1100F0A5
:1038D00039FD05A80FF2601100F04EF90FA8FCF7B2
:1038E0009CFF002864D105A909A8FFF7BFFF0028A5
:1038F00058BF002507D56FF0530011B0BDE8F08325
:103900006D1C012D07DC0FA850F825103846A04784
:103910000028F5D0F1E70FAA09A94046FDF752FEAD
:103920000028EAD1002600E0761CBDF83810B0B2BD
:103930008842D3D203A80090B0B2DFF8143A43EA29
:103940008023DFF8102A09A94046FDF7A6F90546AD
:10395000002D03D515F1020FE6D0CEE703A8FDF741
:1039600011F800F071F840F2022188420CD104985D
:10397000039B029700900194424600214046FEF7C7
:10398000A9FF0028B9D1CFE75FEA0900CCD000F049
:103990005BF8B0F5007FC7D1002503A850F82510CB
:1039A0003846A0470028A8D16D1C012DF5DDBBE7E6
:1039B000D8F8285013E0286B00F49010B0F5003FC1
:1039C0000CD102970194686B424605F140010090CA
:1039D000AB6B4046FEF77EFF00288ED12D68B5B157
:1039E000A8790128FAD1286B00F48810B0F5803F3F
:1039F000E1D102970194E86A424605F14001009046
:103A0000AB6A4046FEF766FF0028D4D075E7002079
:103A100073E700000000202000000000000000000C
:103A20000000000000000000000000000000000096
:103A30000000000001000000FFFFFFFFFFFFFFFF8D
:103A400001000000010000002846FCF732BF000022
:103A5000F8B5044684B000F092F8684611A100F071
:103A60008BF806F11800FCF7D8FEC0B9694630465D
:103A7000FFF7FCFE00280ED4294606F11800FCF7DB
:103A8000D8FE50B106F1180231462046FDF79AFDE6
:103A90000028E6D001E06FF0530005B0F0BD6FF0F4
:103AA0000100FAE7FFFFFFFFFFFFFFFF010000003B
:103AB0000100000038B586B004462068082504AB34
:103AC0000395029351680191126800F11001009270
:103AD000856E0246EB69FCF735FC40B904A8FCF79B
:103AE000CAFE211D04A8FCF7A4FE00B1012007B006
:103AF00030BD00002DE9F84104468BB000F03FF8DE
:103B00000DF11C0018A100F037F86FF00108DFF884
:103B1000947806F11800FCF780FE08BB07A9304630
:103B2000FFF7A4FE002801D5FEF7A2B80494296887
:103B300004AADFF8743805916868002103920690A2
:103B4000DFF80C0801910090029706F11802314647
:103B50002046FDF7E1FA002818BF4045D9D0E3E739
:103B60004046E1E700000000FFFFFFFFFFFFFFFF0F
:103B70000100000001000000102200F067BD1646A1
:103B800000200D46B0610127F7617047026B61F3B9
:103B9000492202637047F8B50446206B0D46DFF8F2
:103BA0009C6406F18407FCF792FE50B9002D08D5FD
:103BB00041F21B32394606F6DC1000F053FDAFF33C
:103BC0000080206BFCF783FE40F2FF1188420AD38D
:103BD000002D08DD41F21C32394606F6142000F0B3
:103BE00041FDAFF30080206B2D18256304F13000F8
:103BF000FCF792FE216B60F3DF7121630020F2BDC0
:103C000040F2FF3330B599421ABFDFF8104844EA5A
:103C100081240024056B6FF39E252C430463994295
:103C200003D011684163516801E000214163816361
:103C300030BD00002DE9F04F8346A5B088460BF15A
:103C40003000FCF769FE002836D0DFF8F0A30AF157
:103C500084000024069040F2FF39C9A600E0002449
:103C60000DA80FF28C1100F06DFB002509E0012C6E
:103C700003D1B8F1000F40F082800DA815A900F023
:103C800061FB13A8FCF7C9FD002840F09E8013AA31
:103C900015A95846FDF796FC00280DD19DF84B005C
:103CA0000028EAD11DAA13A95846FFF723FF0300F5
:103CB00003D513F1020FDAD097E0002CDDD104A870
:103CC0000090DFF85C271DA95846FCF7E6FF0028A6
:103CD000F2D404A8FCF7CFFD13A904A8FCF7B9FDA2
:103CE0000028CAD105980499139B02901498019159
:103CF00006990090039641F2AD320AF6E42000F0F6
:103D000011FD0DA90BF130004F46FCF71BFEA8B1C9
:103D1000DBF83000FCF7D8FD0746029601970E98B5
:103D20000D9B0699009041F2B7320AF6243000F05C
:103D3000F9FC002249465846FFF762FF04A8FCF749
:103D40009CFD09A832A1FFF717FF4F451ABFDFF806
:103D5000CC0640EA8720002004A909900C91022398
:103D600009AA0DA95846FEF784FB074604A8FCF7EC
:103D700082FD002F27D4032F00D1012581E714985D
:103D8000139B06990090019641F2D6320AF66C30E8
:103D900000F0C8FC0BF1480215A95846FDF71FFCBE
:103DA00018BB1BA8FCF769FD9DF86B1000F038F8F4
:103DB0001BA90891079007AA0DA95846FEF759FBC1
:103DC00007461BA8D3E738460FE0002D7FF447AF26
:103DD000641C012C7FF744AFDBF83000FCF777FD63
:103DE000404241B25846FFF7D6FE25B0BDE8F08FFD
:103DF00000000000000000000000000000000000C3
:103E000000000000000000010000000001000000B0
:103E1000000000000000000008FC0F60000000002F
:103E2000DFF84806012301F5C06140EA0150704700
:103E3000F0B5074695B007F13000804CFCF779FDEE
:103E400004F184054EA6002838D00196786A41F224
:103E50003732294600903B6A04F64C2000F062FCA1
:103E600007F120020DA93846FDF7ACFB00286AD106
:103E7000DFF8FC050590B96EC8690690F86E0790EA
:103E8000386F0890786F0990B86F0A900DF11400A0
:103E9000FCF79EFD2FA0D0E900210BAB05A8C3E9DC
:103EA00000210C9001230BAA0DA93846FEF792FCC5
:103EB000002848D100213846FFF768FE07F13C0092
:103EC000FCF72FFD002840D0F86BFCF7FDFC0296B4
:103ED0000190786C4FF49B52294600903B6C04F59E
:103EE000286000F01FFCF86BFCF7E3FC40F2FF4198
:103EF000884208D041F26432294604F52B6000F074
:103F0000B1FBAFF3008007F1400205A93846FDF789
:103F100059FBC0B9F86BFCF7D7FC0446002240F20D
:103F2000FF313846FFF76CFEDFF8F03443EA8423B4
:103F300003AA0021C2E900110393012305A9384611
:103F4000FEF748FC08B115B0F0BD01213846FFF777
:103F500071FEF8E718001020000000000168491CFD
:103F600001600020704780B50021009100236A465F
:103F7000DFF80015FFF7A1FC00B9009802BD0000B2
:103F80000000000070B594B005460E46FFF7B3F987
:103F9000040050D1306A40B941F22B12DFF8D81436
:103FA00027A000F05FFBAFF3008000F069F8A96E76
:103FB00000206865C96AE86EC900814288BF014671
:103FC000E86EA9650021E965286606A92846FDF77F
:103FD000D7FD04002CD1DFF898040090A96EC869C1
:103FE0000190E86E0290286F0390686F0490A86FAC
:103FF00005906846FCF7ECFC0DF1380016A118227C
:1040000000F024FBCDF84CD003230EAA00F040FAB8
:1040100004000DD100208DF82E000023002200F0B6
:1040200037FA040004D100BF11A200F025F80446BD
:104030002846FFF705FC204614B070BD30DC0008B0
:104040006366672D3E626C6F636B5F636F756E7442
:1040500020213D2030000000000010400000000042
:104060000800F00F00ED000818001020000000000C
:10407000000000000100000006A92846FDF7A2BAD2
:10408000A86EC16A686E00F061BB2DE9F04F99B06F
:104090008046FFF730F9040040F02D8111A80FF29F
:1040A000642100F04FF904A80FF278211022DFF804
:1040B000F49300F0CBFA09F1840591A60FF274276E
:1040C00017A8FCF7AAFB002840F0E08004A911A87B
:1040D000FFF7CCFB04002FD497E80B000EAA0EAC20
:1040E00082E80B00CDF838800394DFF8BC0302901F
:1040F0000020DFF8B81301900091DFF8243317AAED
:1041000011A94046FDF708F8040015D474D0FCF757
:10411000BFFB002870D1119808A9DFF89433C8F8C4
:1041200020001298DFF8F822C8F82400009111A9A5
:104130004046FCF7B2FD040067D408A8FCF72DFC4C
:1041400008984FEA104A08A804884046FCF76FFC1C
:10415000824540F08A8000F0F8F8A042C0F28580E5
:1041600000F0F3F84FF0000B844214DA00F0EDF8A1
:1041700083464046FCF75BFC01900396CDF808B0FF
:104180000094534641F2C712294609F6780000F020
:10419000C9FA4FF0010B59464046FFF7F7FC0B9B5D
:1041A0002BB1D8F87000984233D3C8F870300C9B0C
:1041B0002BB1D8F87400984237D3C8F874300D9BEF
:1041C00063B1D8F87800984237D3D8F87C00984289
:1041D00088BF1846C8F87830C8F87C00D8F868104E
:1041E0000A9B086A002818BF83422ED1C8F86C3099
:1041F000C869099B834230D108F1300211A94046B9
:10420000FDF7EDF904003FF45BAF4046FFF754FBC8
:1042100071E00090019641F2D212294609F6B800E9
:1042200000F080FA6FF01504EFE70090019641F27C
:10423000DD12294609F6E800F2E70090019641F206
:10424000E812294609F61810EAE70090019641F2B3
:10425000F712294609F64810E2E7009001964FF45C
:104260009052294609F67810DAE700F06EF8074612
:104270004046FCF7DCFB01900396029700945346FE
:1042800041F2B812294609F50460C9E708F1300087
:10429000FCF737FB78B90296D8F8380041F21222C1
:1042A0000190D8F8341009F6A8100091D8F83030F1
:1042B000294600F037FAD8F8300010F0004118BF56
:1042C0000121C9B20818C8F8300008F1300090E8A0
:1042D000160008F13C0383E81600D8F82C00D8F843
:1042E0006C100024B0FBF1F201FB1200C8F854007E
:1042F0004046FCF7A3FB204619B0BDE8F08F000054
:1043000000000000000000000000000000000000AD
:10431000000000000000000000000000000000009D
:1043200001000000FFFFFFFFFFFFFFFF0100000093
:10433000010000000000000000ED0008080000007F
:1043400010A808A9202200F081B94046FCF771BBF3
:104350000800002000FC0F702046FEF73BBA78B53D
:1043600089B015460091044600236A4601A9FDF76D
:10437000D0F9060013D400982F2100F0EFF900289F
:104380001FBF7000400D02286FF0130607D13603DF
:104390002B46B20D01A92046FDF748F906463046E6
:1043A0000AB070BDB53A0008FF03F07F2046FCF765
:1043B00074BCF8B500F04EF848B100F025F84FF4A1
:1043C000C05200F6983000F04DF9AFF300800FF2C4
:1043D000E40000903B463246FFE729462046FEF7C0
:1043E000CEFAF2BD38B500F014F838B900F00CF888
:1043F00041F6240200F035F8AFF30080294620464C
:10440000BDE83440FEF7D9BBDFF8980000F1840125
:1044100070470446A06A0D46FCF7F1BA0000F04F61
:1044200000FCFF7FF8B500F015F838B9FFF7ECFF96
:1044300041F6580200F015F8AFF3008000F005F8DF
:1044400001B0BDE8F040FEF70BBF3B4632462946BF
:10445000204670470446A06A0D4616461F46FCF7E4
:10446000CEBA00F53D6000F0FDB8000008FC0F007A
:10447000010002005D3F0008B4DC000800208DF858
:10448000000001236A46214670472846FEF7A2B97C
:1044900006A92846FEF79EB905F108012046FDF75A
:1044A00038B9000030DC0008CD1600080800F00F15
:1044B00018001020000000000000000000000000B4
:1044C00010B50446AFF30080204600F005F804461E
:1044D000AFF30080204610BDF8B500F10F04E408EA
:1044E000E400A0422BD2082C04D2082402E00830B9
:1044F00000F047F8DFF800211568290005D10025F4
:1045000007E00368A3420DD2011D08680028F8D116
:104510002D68111D00E0191D0B68AB420BD0186807
:10452000A042F8D359B10B6818680838A04208D2E5
:10453000586808600FE000F01DF90028D7D100206E
:10454000F2BD181908601E1D5F6837511D680868A4
:104550002D1B05601C60086800281DBF41680029EC
:10456000001D0020106003F10800F2BD10B504002A
:1045700006D0AFF30080204600F003F8AFF30080D0
:1045800010BD002800D1704770B4A0F10802146873
:10459000072C2ED914F0070F2BD1DFF85C305968A7
:1045A00009B18A4203D251605A6015E00146486859
:1045B00008B19042FAD30E688819824219D390420A
:1045C00003D1A4190C600A4606E0486810B11444EF
:1045D000A0420ED350604A60506850B1146816195A
:1045E000864206D100251D6001680C1914604068E0
:1045F000506070BC7047000058300020FFF7B6BF15
:104600004018491C1CBFB1F1010100F8012DF9D17E
:10461000704730B5016884684218416802EB510365
:10462000C90703D54C4401E0491C08D19A4218BF80
:1046300012F9011B01D10C3030BD12F8015B0029C9
:1046400004F8015BF0D4491EF7D5EFE74AB100004A
:1046500011F8013B521E00F8013B1CBF11F8013B51
:10466000F8E7704700B583B00091019202906A4666
:1046700004491820ABBE002801D100F091F803B026
:1046800000BD00BF1010020003000020521E22BF18
:1046900013F8010B11F801CBB0EB0C00F6D0521C53
:1046A00008BF104670472E0070B500250B4B11E077
:1046B0004C5D6D1C84EA000606F00F0653F8266078
:1046C00086EA101686EA241000F00F0053F8200046
:1046D00080EA16109542EBD370BD00BFD0EA000807
:1046E00070B4054600E06D1C2B783BB10C46227877
:1046F000002AF8D014F8016BB342F8D1281A70BC24
:10470000704770B4054600E06D1C2B783BB10C4639
:10471000227822B114F8016BB342F9D1F4E7281AD8
:1047200070BC70470EB41EB5024605A80190002467
:10473000009401AB0121044878440C3000F037F8B4
:1047400003B010BC5DF810FB79A500000022FFF754
:1047500057BF0000002200F091BF0000C9B20278EC
:104760008A421AB11CBF10F8012FF9E718BF0020C8
:10477000704700000749086808B1002070470648E4
:10478000C008C00008600549C908C900091A0160CD
:10479000704700BF6830002077340020703600205A
:1047A000012000F085BF000040F0200070472DE997
:1047B000F14FB0B0924604910DF142013A9A2B911B
:1047C00099464A7000200AE01AF8011B0498309AB2
:1047D00090470028049000F043860D98401C0D90EF
:1047E0009AF8000050B12528EED10022002107924E
:1047F000089109920A910B920C9104E00D9800F037
:1048000031BE41F001011AF8010F2028F9D0232808
:104810000CD02B2804D02D2805D0302809D00BE04F
:1048200041F00201EFE741F00401ECE741F008013B
:10483000E9E741F01001E6E72A280FD1D9F8002076
:1048400052F8040BC9F8002000280F9003D540420D
:104850000F9041F004010AF1010A14E00F92DFF811
:104860000C0C0AE00F9C844205DA04EB840302EB93
:104870004302303A0F920AF1010A9AF80020A2F19D
:1048800030030A2BEED39AF800202E2A03D04FF0E3
:10489000FF300E9029E01AF8010F2A2809D1D9F823
:1048A000002052F8040BC9F800200E900AF1010A0A
:1048B0001BE02D280CBF0AF1010A002000220E92F5
:1048C000DFF8A85B0BE040B90E9BAB4205DA03EBC7
:1048D000830402EB4402303A0E920AF1010A9AF87C
:1048E0000020A2F130030A2BEDD3ADF840100FF6F3
:1048F00080309AF80010FFF731FF08B11AF8010B69
:104900008DF842009DF84200682805D19AF8001001
:1049100068290CD1622006E06C2804BF9AF80010C8
:104920006C2904D171208DF842000AF1010A12AA03
:1049300006921AF801BBBBF125002CD01C3800F000
:104940009781001F022840F29381133800F0BA8447
:10495000093800F08D81801E00F04F85401E00F068
:10496000FC84401E022840F28381001F00F0F58481
:10497000401F00F0F280401E00F0A484401E00F0B2
:10498000DA80C01E0ED0801E00F09C84C01E00F095
:10499000998400F03DBD0122252107928DF8481031
:1049A00000F042BDD9F8000050F8044BC9F80000EF
:1049B000002C059440F0AB802B994878002800F03B
:1049C000A1804FF0FF340FF6B02000F07BFE241AD8
:1049D00040F0468500F028BD01236A4602A9304612
:1049E00000F00CFE002840F03B85641EF4D13096A8
:1049F000079C12AE74B1309F16F8011B0498B8479B
:104A00000028049000F02C850D98401C641E0D9029
:104A1000F2D130970A9C3021002C8DF800100CDD6B
:104A2000309E01236A4602A9304600F0E7FD0028C7
:104A300040F01685641EF4D13096059E089C74B132
:104A4000309F16F8011B0498B8470028049000F026
:104A500007850D98401C641E0D90F2D130970B9C79
:104A60003021002C8DF800100CDD309E01236A46A9
:104A700002A9304600F0C2FD002840F0F184641E17
:104A8000F4D1309605980899099C461874B1309F66
:104A900016F8011B0498B8470028049000F0E08441
:104AA0000D98401C641E0D90F2D130970C9C302163
:104AB000002C8DF800100CDD309E01236A4602A9FF
:104AC000304600F09BFD002840F0CA84641EF4D1FB
:104AD00030969DF8400041077FF582AE2020002DE2
:104AE0008DF800007FF77CAE309C01236A4602A956
:104AF000204600F083FD002840F0B2846D1EF4D102
:104B000030946DE60FF65430059000F08DBC0E9D8C
:104B1000002D04D5204600F0F5FD044608E02A46A5
:104B20000021204600F00AFE002814BF041B2C467A
:104B3000089400F079BCD9F8001051F8040BC9F8BA
:104B4000001020F00002002121F0FF33CDE9022304
:104B500012AC0594782100F04CBC2B99487820B118
:104B60004FF0FF340FF6C4202FE79DF84200622873
:104B700060D0682817D06A283FD06C2806D07128EA
:104B800047D074282CD07A281DD062E0D9F80010C4
:104B900051F8040BC9F80010002866D14FF0FF341B
:104BA0000FF6A02011E7D9F8001051F8040BC9F84E
:104BB000001020B94FF0FF340FF6882005E70D995B
:104BC000018000F031BCD9F8001051F8040BC9F88D
:104BD0000010002849D14FF0FF340FF66820F4E6AA
:104BE000D9F8001051F8040BC9F8001000283CD186
:104BF0004FF0FF340FF64C20E7E6D9F8001051F8DB
:104C0000040BC9F8001080B94FF0FF340FF63420C0
:104C1000DBE6D9F8001051F8040BC9F8001020B9F0
:104C20004FF0FF340FF61C20CFE60D9AD317C0E9E2
:104C30000023F9E3D9F8001051F8040BC9F800106B
:104C400020B94FF0FF340FF6FC10BEE60D9901704D
:104C5000EAE3D9F8001051F8040BC9F8001020B9A4
:104C60004FF0FF340FF6DC10AFE60D990160DBE387
:104C70009DF842004C2807BFD9F80010CA1DD9F88A
:104C80000000C21D22F00702C9F80020D2E900018D
:104C90000832C9F80020CDE90201C80F02D00798F8
:104CA0002D210AE0BDF84010880702D507982B2176
:104CB00003E0C80705D50798202112AA1154401C0B
:104CC000079012A807994BF0200300EB010CDDE9D7
:104CD0000201CDE92C01612BCDF814C021AC0BD021
:104CE0000E98002848BF062105D404BF4BF02000D1
:104CF000672801D101210E91DDE902677B0043EABB
:104D0000D6735A15DB174FF0FF30834208BF82423B
:104D100010D13F0347EA16573603002F08BF002E75
:104D200008D0ABF1610503211A2D089118D30FF6B5
:104D3000341110E0DDE902014A00521512F1010FB1
:104D400011D108030FD1ABF1610503211A2D089190
:104D50001FD30FF6181103226046FFF777FC63E3B9
:104D60000FF6FC01F7E7DDE902016A4600F012FDEB
:104D7000CDE902014BF02000612811D105983022C5
:104D80000270811C0591BBF1610F0CBF7821582185
:104D900002E00FF6D401DEE741700798801C07900F
:104DA000DDE9020120F0000231F0004308BF002AD3
:104DB00002D10026002542E14BF02008B8F1610F36
:104DC00040F093800E98002847BF21210191401C9C
:104DD0000190019EDDE92C01761C00220023DDE913
:104DE000024500F00FFD38BF85F0004500988DF8B2
:104DF0008420001F002E00900DF1850732DD204633
:104E000029460022002300F017FD2BD21C2200F0BF
:104E10002DFD04460D4600F0C7FDF61F002E80460E
:104E200009DD00F0DDFD02460B462046294600F074
:104E30009FFE04460D46F81D0721B8F1000F0CDD5A
:104E4000491E5EBF08F00F0200F8012D4FEA281836
:104E5000F3D502E0002200F8012D491EFAD5C71D46
:104E6000002ECCDC0DF185003F1A01980DF1850470
:104E70003E468742C8BF0646002E2FD4BE4206DA01
:104E80000DF18500815D0829A8BF0F2000DA002000
:104E9000324621A98D1800E0761E15F80139521E00
:104EA0008342F9D00F2804D10DF18501885C401CA4
:104EB0008854002A04D50098001D21AC761C00906F
:104EC000701E0BD421180B783033DAB23A2AA4BF03
:104ED0005B443A3B401E01F80139F4D50E99002994
:104EE00040F1AC80701E0E90A8E00099DFF8FC261F
:104EF00047F29750414391FBF2F20092DDE92C45D5
:104F0000C2F10702002A25F0004504DD20462946AB
:104F100000F049FB0BE052420020DFF8D41600F00D
:104F200042FB02460B462046294600F093FE04460B
:104F30000D46B8F1660F06BF009E0A3606260E988B
:104F40003618142EC8BF142630208DF884000DF1B9
:104F50008507002E34DD2046294600F09FFF0146DC
:104F60000A4607F1080C04200A27B2FBF7FE0EEBF5
:104F70008E03A2EB430230320CF8012C0A22BEFB56
:104F8000F2F202EB8203AEEB43033033401E0CF827
:104F9000023DE9D1083E002E0CF10807D9DD084694
:104FA00000F08EFF02460B462046294600F0E0FD49
:104FB0000022DFF8403600F091FF04460D46CAE7B4
:104FC0000DF185003F1A0DF1850404E00098401EA4
:104FD0007F1E0090641C20783028F7D0B8F1660F4F
:104FE00002D1009E761C04E0B8F1650F0CBF0126CB
:104FF00000260E983618B742B8BF7E1E002E1DD46C
:10500000BE4204DAA05D3428C8BF392000DC30205D
:105010003246611E8D1800E0761E15F80179521E89
:105020008742F9D0392802D1A05C401CA054002A44
:1050300004D50098401C0C46761C0090009D01F0A1
:1050400023F8406A0778DDF8388030B2002802DCA7
:1050500001260FF21C644BF02000662808BF6D1C6F
:1050600016D0672845D128B210F1040F47DB404520
:1050700045DA9DF840106D1C080703D430B2404556
:10508000D8BF804628B2B8EB000848BF4FF00008F0
:105090000FFA85FBBBF1000F00F3B3800898411CA9
:1050A0000891302205990A54B8F1000F03DC9DF8ED
:1050B0004010080704D50898411C089105990F5421
:1050C00018EB0B0FB8BFC8F100052DB2684245447C
:1050D00032B20B909542B8BF2E46059B089836B267
:1050E0000996324621461844FFF7B0FAAD1B0C95DD
:1050F000D1E0BBF1610F17D14FF0700B19E030B266
:10510000404504DA9DF840100A0758BF8046B8F1C0
:10511000010848BF4FF00008BBF1670F14BF4FF004
:10512000450B4FF0650B04E0BBF1410F08BF4FF09A
:10513000500B0898411C0891B8F1000F059914F81C
:10514000012B0A5403DC9DF8401008071AD5089873
:10515000411C0891B8F1000F05990F5412DD761E1D
:1051600030B28045B8BF46460598089B32B221460A
:105170001844FFF76BFA089836B230180890A8EB7D
:1051800006000B9005980899014428B2002881F880
:1051900000B003D42B204870891C04E02D224A70F3
:1051A0000546891C6D4200202CAA0AE02B460A25E0
:1051B00093FBF5F505EB8504A3EB440302F8013BF3
:1051C000401C2DB2002DF1DC012806DC4BF0200242
:1051D000652A04BF302201F8012B00282CAB08D12E
:1051E000302001F8010B06E0401E1A5C303201F855
:1051F000012B0028F8DC059A08981044091A099137
:1052000049E031B228B281421CDA059B089832B2DB
:1052100021461844FFF71AFA089936B27118089116
:10522000ABEB0600B8F1000F0B9003DC9DF84000DB
:10523000020704D5059847540999491C0991CDF8EE
:10524000308028E0059B08982AB221461844FFF7D1
:10525000FDF90898761B5844B8F1000F089003DC5C
:105260009DF840100A0703D5411C089105990F5479
:1052700030B28045B8BF46460598089B32B204EB71
:105280000B011844FFF7E2F9089836B2301808907D
:10529000A8EB06000B909DF8400000F014001028C9
:1052A00040F0C280079A08980B99821809988A18CA
:1052B00082180C980F998018884280F2B580081ADD
:1052C0000A90B1E09DF84200622808D068280ED00C
:1052D0006A2814D06C281FD0712810D01CE0D9F88F
:1052E000001051F8040BC9F80010C0B21AE0D9F848
:1052F000001051F8040BC9F8001080B212E0D9F880
:105300000000C21D22F00702C9F80020D2E9000106
:105310000832C9F8002006E0D9F8001051F8040B53
:10532000C9F800100021CDE902019DF840000207F4
:105330005AD5DDE90201002908BF002854D04BF0FE
:105340002002782A50D1079912A830234354491CCF
:105350004A1C079200F801B046E09DF8420062281E
:1053600008D068280ED06A2814D06C281FD0712865
:1053700010D01CE0D9F8001051F8040BC9F8001047
:1053800040B21AE0D9F8001051F8040BC9F8001027
:1053900000B212E0D9F80000C21D22F00702C9F8DD
:1053A0000020D2E900010832C9F8002006E0D9F84F
:1053B000001051F8040BC9F80010C117CDE9020123
:1053C000002902D507982D220AE0BDF84000810788
:1053D00002D507982B2203E0C00705D507982022A5
:1053E00012A90A54401C079012A80799014405917C
:1053F000594602A800F04EF816E001200790D9F8AF
:10540000001051F8040BC9F800108DF848000BE0AB
:1054100001222521BBF1000F07928DF8481003D01F
:10542000022007908DF849B00F9D07980A992D1A10
:1054300008986D1A0B992D1A09986D1A0C992D1A46
:105440009DF840006D1A41073FF5D2AA2020002D9B
:105450008DF800007FF7CCAA309E2C46FFF7BCBA2F
:105460004FF0FF3031B0BDE8F08F0000CBCCCC0C5A
:10547000686A6C747A4C00007072696E74665F734F
:105480003A2062616420257320617267756D656ED4
:10549000740000002DE9FE4C06468B4637695846DD
:1054A0006F2808BF082205D0FFF77EF9782814BFBF
:1054B0000A221022D6E900013C2504468A46BBF1A7
:1054C000640F18BFBBF1690F04D1002902D56442F3
:1054D0006AEB4A0ABAF1000F08BF002C0CD1306BFE
:1054E00050B9082A3BD196F83810080737D5302133
:1054F0003B2587F83B1032E08DF800B093462046FC
:1055000051465A46002300F0C3FD3032D0B26D1E22
:105510003A2801950DDA7A55204651465A4600231D
:1055200000F0B6FD04465FEA010A08BF002C05D171
:1055300008E09DF800001218513AECE7F16878197C
:105540008142DCD3BBF1080F09D196F8380001077E
:1055500005D5785D302802D06D1E30207855C5F114
:105560003C02306BB26179198242F16007DA318F07
:10557000821A4FF6EF7001403262318710E0002846
:105580000ED596F8380000F01400102808D1736B7F
:105590007069316A1B1A5B1A9B1A002BC8BF3362F1
:1055A00003B0BDE8F08C2DE9D04306460F46144603
:1055B0004FF00008DFF8409012E0E00707D54246C0
:1055C0004B463046394600F089FC06460F464046B9
:1055D000494642464B4600F081FC641080468946AD
:1055E000002CEAD130463946BDE8D083A0860100C0
:1055F0000000F03F84D7974100002440F8B50546ED
:105600000E4617461C4600205CB117F8011BB06817
:10561000A847B06030B1F06A401CF0620020641E00
:10562000F3D1F2BD4FF0FF30F2BD00007072696E31
:1056300074665F733A20256E20646973616C6C6FC9
:10564000776564007072696E74663A2062616420E6
:10565000256E20617267756D656E74000000000034
:105660006E616E004E414E00696E6600494E460006
:105670003000000062F30F2262F31F4200B500BF4A
:10568000130096469446103928BFA0E80C50FAD86B
:105690005FEA417C28BF0CC048BF40F8042BC90713
:1056A00028BF20F8022B48BF00F8012B00BD0000E6
:1056B00080B5AFF30080024A11001820ABBEFBE7B3
:1056C0002600020080B500B906A005490B681BB191
:1056D00022220021984701E0FFF762F8222002BD54
:1056E00064300020636F6E73747261696E74206839
:1056F000616E646C65723A20626164206D657373DB
:105700006167650000F10103810704D010F8011BF7
:10571000820781B1FAD10268A2F10131914311F0FF
:10572000803104BF50F8042FF6E709BAB1FA81F1CD
:1057300000EBD100401CC01A70470000C9B28307BB
:1057400006D0521E22D310F8013B9942F7D11FE038
:10575000083A13D302F1040241EA012141EA01416E
:1057600050F8043B121F21BF4B40A3F1013C2CEA2F
:10577000030C1CF0803FF3D0C9B2001F0832521E48
:1057800024BF10F8013B91EA030FF8D818BF01209D
:10579000401E704710B5144600F002F8226010BD9C
:1057A000C1F30A5343B14A0012F5001F28D2A3F2F5
:1057B000FE32A1EB0251704750EA410C20D001F0BB
:1057C000004C31EA0C01B1FA81F204BFB0FA80F367
:1057D000D2180B3AB2F120032CBF00FA03F191402A
:1057E00041EA0C013EBFC2F1200C20FA0CF3194330
:1057F0009040524240F2FD33D21A01EB0351704700
:105800000022704741EA030C50EA4C0C52EA0C0C9F
:105810004FF4001C09D307D01CEB410F9CBF1CEBBD
:10582000430F8B4208BF824270471CEB430FFBD8EB
:10583000994208BF9042704741EA030C50EA4C0C71
:1058400052EA0C0C4FF4001C09D307D01CEB410F9B
:105850009CBF1CEB430F994208BF904270471CEB62
:10586000410FFBD88B4208BF82427047124254D48A
:1058700040F2FF7C1CEA11530FD0634531D09B18D6
:1058800063453CBF01EB0251704701F0004141EA22
:105890000C510020AFF30080704750EA410320D044
:1058A00001F0004C91EA0C011CD0B1FA81F30B3BE2
:1058B0009A420DD9D21A994051EA0C01C3F1200C39
:1058C00020FA0CFC61449840531C40F2FF7CD7E75F
:1058D000914041EA0C01C2F1200C20FA0CF319436B
:1058E00090407047B0FA80F31533202BE0D3202A84
:1058F000EED3203A203B9A4209D9D21A00FA03F19A
:1059000041EA0C010020531C40F2FF7CB8E700FA8A
:1059100002F141EA0C0100207047524240F2FF7C44
:105920001CEA11530DD06345DBD0B2EB030C3CBF36
:10593000A1EB025170470CF1010221EA035141F43D
:10594000801150EA410CCCD001F0004C352A27DC04
:1059500030B481EA0C01B2F1200309DAC2F120036C
:10596000044601FA03F5D0402843D1409C400CE0A6
:10597000C3F12002450020FA03F418BF44F00104EB
:1059800021FA03F091400C43002174F1004550F1DD
:10599000000051EB0C01244230BC7FF47BAF704718
:1059A0006146002076E70000C1F30A5340F21E4230
:1059B000D31A0CDDCA0283F3070342EA505242F0C5
:1059C0000042DA4002EBE17282EAE17070476FEA6E
:1059D000E17203F2E13008B182F00040704700004C
:1059E00010F0004160B148BF4042B0FA80F29040F0
:1059F000D21CC2F5846241EA025202EBD02140057A
:105A000070470000841A71EB030604D26E40001B3D
:105A1000B141121973414FF4001C1CEB410F34BF0C
:105A20007CEB430683E00C0DA4EB1356362E00F3FB
:105A30007C80012E45EAC32341DC43EA525312BF66
:105A4000D20292025B08240545EAC12141EA505185
:105A5000D2EBC020994125D407D1B0FA80F610FAD4
:105A600006F162D00020203608E0B1FA81F6B1409C
:105A7000C6F1200220FA02F21143B0404FEAF4745A
:105A8000B4EB465434F001064FEA74040AD8D6F554
:105A90000016760D04F00044F04061FA06F2504022
:105AA000F1404840C00A40EA415021F0004128BF7F
:105AB0005FEA500550F1000044EBD12135E0DB0AEC
:105AC00045EAC121C90AB6F120050EDD42EA0242CB
:105AD000120CC5F1200603FA06F6EB4042EA060571
